:04000000C3EF33F027
:105644001200120012001200C9CF01F0C9CF01F0FC
:105654001200000E026E000E016E1200C968C7A08F
:10566400FED7C9CFEDF11200FA0E00F0E82EFDD7F7
:10567400012EFAD7120004C001F005C002F0036A3B
:1056840035EC2FF0120006C002F007C003F0C2ECA4
:105694002FF0ACB21200FDD7ACAC05D0AC90010138
:1056A4000101ECB3AC8001C0ADFF1200C9CF02F020
:1056B4009E96C69E01C0C9FFC6AE02D0FF0E03D09F
:1056C4009EA6FED7000E1200948894969398949AFE
:1056D4008A888B968B9A220EC66EC78EC78CC69804
:1056E400C68A120020EE05F00150D9260250DA22B3
:1056F400DECF01F0DECF02F0DECF03F0DECF04F028
:105704001200036E000E046E035007D0036E050EE4
:10571400016E035036EC2BF0042A04500260F6D7D5
:10572400120008D001C0D9FF02C0DAFF200EDF6EDC
:10573400014A022A01C0D9FF02C0DAFFDF50D8B4FF
:105744001200F0D720EE02F00150D9260250DA22DE
:10575400000EDE6E000EDD6E01C0E1FF02C0E2FF4E
:10576400DECFE6FFDDCFE5FF120020EE0BF00150A7
:10577400D9260250DA22DF50036E03A804D0000EAB
:10578400026E010E03D0000E026E000E016E1200B6
:1057940020EE0BF00150D9260250DA22DF50036EBE
:1057A40003AA04D0000E026E010E03D0000E026E96
:1057B400000E016E120020EE0BF00150D9260250AB
:1057C400DA22DF500F0B0F0AD8A404D0000E026EA9
:1057D400010E03D0000E026E000E016E120007C00F
:1057E4000DF008C00EF008D00DC0D9FF0EC0DAFFCE
:1057F40009C0DFFF0D4A0E2A0B06D8A00C060B28A1
:10580400D8B40C28D8B41200EFD7066E000E076E79
:10581400065010D0066E000E086E065007D0066EB5
:10582400640E026E065083EC2BF0082A090E0864FD
:10583400F6D7072A0550075CD8B01200EBD7000E44
:105844002B6E000E2A6E560E2D6E440E2C6E000E1C
:10585400296E220E286E000E106E2A0E0F6E20C0C6
:1058640011F021C012F0000E146E280E136E89EC94
:105874005DF0120007C0D9FF08C0DAFFDECF09F0DF
:10588400DDCF0AF00A500910D8B40AD007C001F0DD
:1058940008C002F009C003F00AC004F0BAEC34F006
:1058A40009C007F00AC008F0120001500302F3CF48
:1058B40005F0F4CF06F001500402F3CFF4FFF36ACD
:1058C400F3500526F450062202500302F3CFF4FFEE
:1058D400F36AF3500526F450062205C001F006C011
:1058E40002F012000101010E026E0101F20E016EBE
:1058F400400E1124036E020E1220046EBAEC34F032
:105904000101010E0E6E0101EE0E0D6E400E11240A
:105914000F6E020E1220106E26EC2DF012000C50A9
:105924000B10D8B41AD00D6E010E0E6E0D5004D0AB
:10593400D8900B360C360E2A0CAEFAD70B50095CF5
:105944000C500A58D8A004D00B50095E0C500A5AC7
:10595400D8900C320B320E2EF1D709C009F00AC0D0
:105964000AF012000AC001F00BC002F050EC2DF056
:1059740001C00CF002C00DF00D500C10D8B411D0C1
:10598400040E0C24016E000E0D20026E000E046E37
:10599400050E036E7BEC33F001C00AF002C00BF07D
:1059A40004D0000E0B6E000E0A6E120020EE04F0FE
:1059B4000350D9260450DA2205C0DEFF06C0DEFFFC
:1059C40007C0DEFF08C0DEFF03C0D9FF04C0DAFF52
:1059D400000EDE6E000EDE6E000EDE6E000EDD6E5C
:1059E400DD52DD5220EE08F00350D9260450DA22AD
:1059F400000EDF6E1200A87F000002000004000405
:105A04000000080008000010001000002000200022
:105A140000400040000080008000000000000020E2
:105A2400080001000000010800000002100000004E
:105A34000420FFFFFFFF40000000000001000300FE
:105A4400050007000900012C20EE02F00D50D926B4
:105A54000E50DA22DE50DD10D8A40BD00DC009F0B0
:105A64000EC00AF00FC00BF010C00CF06DEC32F059
:105A740014D00DC001F00EC002F020EE02F00D5063
:105A8400D9260E50DA22DECF03F0DDCF04F00FC0AA
:105A940005F010C006F035EC33F0120001C005F03B
:105AA40002C006F002D0054A062A05C0F6FF06C069
:105AB400F7FF000EF86E0F0EF76403D00800F550E0
:105AC40005D0F6CFE9FFF7CFEAFFEF500009D8A4DD
:105AD400EAD701C003F002C004F0031E041E034A07
:105AE400042A05500324016E06500420026E12009D
:105AF4000568066801C007F002C008F017D02E0E32
:105B040007C0D9FF08C0DAFFDF620ED001C003F07E
:105B140002C004F0031E041E034A042A075003248F
:105B2400056E08500420066E074A082A07C0D9FFEC
:105B340008C0DAFFDF50D8A4E2D705C001F006C0E0
:105B440002F01200000E076E000E066E04500310E1
:105B5400D8B41ED0056E010E086E055004D0D8903E
:105B640003360436082A04AEFAD7D8900636073628
:105B74000350015C04500258D8A005D00350015EC4
:105B84000450025A0680D89004320332082EEDD70E
:105B940006C001F007C002F01200000E096E000EEC
:105BA4000A6E000E0B6E000E0C6E01A008D005509C
:105BB400092606500A2207500B2208500C22D890BE
:105BC4000536063607360836D890043203320232D8
:105BD40001320450011002100310D8A4E6D709C002
:105BE40001F00AC002F00BC003F00CC004F0120074
:105BF4000101010E086E0101EE0E076E3CEC2CF063
:105C040007C013F008C014F014501310D8B40CD00B
:105C14000101010E0E6E0101F20E0D6E13C00FF0A4
:105C240014C010F026EC2DF014501310D8A405D095
:105C3400000E126E000E116E06D0C00E1324116EEB
:105C4400FD0E1420126E120001C0D9FF02C0DAFF4B
:105C5400DF50D8B41CD001C0D9FF02C0DAFFDF5036
:105C6400E50AD8B414D020EE0BF00150D926025026
:105C7400DA22DF50080AD8B40AD020EE0BF0015023
:105C8400D9260250DA22DF50060BD8B404D0000E15
:105C9400026E010E03D0000E026E000E016E1200A1
:105CA40003C009F004C00AF001C007F002C008F004
:105CB4001AD009C0F6FF0AC0F7FF000EF86E07C03D
:105CC400D9FF08C0DAFF0F0EF76403D00800F550BF
:105CD40005D0F6CFE9FFF7CFEAFFEF50DF6E094AB0
:105CE4000A2A074A082A0506D8A006060528D8B4B1
:105CF4000628D8B41200DDD722EE3BF03450D92662
:105D040035501DD022EE04F03650D9263750DA2211
:105D1400DE50DD10D8B40ED034C020F035C021F0F0
:105D240036C022F037C023F01CEC42F02150201082
:105D3400D8B40ED022EE08F03650D9263750DA22E5
:105D4400DECF36F0DDCF37F037503610D8A4DAD7AF
:105D54001200096EFF0E016E095058EC2BF026EC70
:105D64002BF003504009016E58EC2BF026EC2BF07D
:105D740007C001F058EC2BF026EC2BF006C001F024
:105D840058EC2BF026EC2BF005C001F058EC2BF06E
:105D940026EC2BF004C001F058EC2BF026EC2BF091
:105DA40008C001F058EC2BF030EC2BF0120022C0AC
:105DB4000AF023C00BF024C00CF025C00DF026C05F
:105DC4000EF027C00FF028C010F029C011F02AC02F
:105DD40012F02BC013F020EE2BF02050D9262150C6
:105DE400DA22DECF2CF0DDCF2DF001D809D005006A
:105DF400FA6E2C50FD6E2D50FE6EFF6AFA501200A2
:105E04000AC020F00BC021F0120022C00AF023C007
:105E14000BF024C00CF025C00DF026C00EF027C0F6
:105E24000FF028C010F029C011F02AC012F02BC0C6
:105E340013F020EE29F02050D9262150DA22DECFAB
:105E44002CF0DDCF2DF001D809D00500FA6E2C50CE
:105E5400FD6E2D50FE6EFF6AFA5012000AC020F04B
:105E64000BC021F01200000EAC6E000EAB6E01B040
:105E7400AC8801A202D0AC8CAB8C01B4AC8E01A670
:105E840002D0AB8801D0AB8A01B8AC849E9801BA29
:105E9400AB8601AC02D09D8A01D09D9A9E9A01AE38
:105EA40002D09D8801D09D9802C0AFFF0350B06E10
:105EB400AC8AAB8E949C948EACB8ACBE01D0948C5E
:105EC400120001C007F002C008F014D00506D8A0E3
:105ED400060603C0D9FF04C0DAFF034A042A07C038
:105EE400E1FF08C0E2FF074A082ADFCFE7FFE750D7
:105EF400D8B40DD006500510D8B409D0E7D707C0E0
:105F0400D9FF08C0DAFF000EDF6E074A082A05062B
:105F1400D8A006060528D8B40628D8B41200EFD7AE
:105F240001010101E351E211D8B4F0EC32F029EEA1
:105F34007DF0DE50DD10D8B40BD001D809D00500B7
:105F4400FA6E7D51FD6E7E51FE6EFF6AFA501200AC
:105F5400090E356E500E346E7EEC2EF029EE7FF075
:105F6400DE50DD10D8B40BD001D809D00500FA6E8C
:105F74007F51FD6E8051FE6EFF6AFA5012001200CE
:105F8400ACA2FED702C0F6FF03C0F7FF000EF86E06
:105F94000F0EF76403D00800F55005D0F6CFE9FFE3
:105FA400F7CFEAFFEF50016E4EEC2BF00250046E77
:105FB4000350056E024A032A04C0F6FF05C0F7FF2A
:105FC400000EF86E0F0EF76403D00800F55005D0EC
:105FD400F6CFE9FFF7CFEAFFEF500009D8B412007B
:105FE400CFD720EE33F00150D9260250DA220A0E20
:105FF400DF6207D020EE32F00150D9260250DA22B7
:106004001ED020EE33F00150D9260250DA22DF50A0
:10601400D8B411D020EE33F00150D9260250DA2240
:10602400DF50036E0350050DF3500124D96EF45074
:106034000220DA6E04D001C0D9FF02C0DAFF000EDC
:10604400DF6E01C001F002C002F01200085005101A
:1060540006100710D8B426D0096E010E0A6E095036
:1060640006D0D89005360636073608360A2A08AE12
:10607400F8D70550015C06500258075003580850E1
:106084000458D8A008D00550015E0650025A0750A3
:10609400035A0850045AD89008320732063205329F
:1060A4000A2EE7D701C001F002C002F003C003F0DA
:1060B40004C004F0120020EE0BF00150D926025067
:1060C400DA22DF500F0AD8B427D001C0D9FF02C0AA
:1060D400DAFFDF50D8B420D001C0D9FF02C0DAFF04
:1060E400DF50E50AD8B418D020EE0BF00150D926C1
:1060F4000250DA22DF50080AD8B40ED020EE0BF09A
:106104000150D9260250DA22DF50060BD8A404D05D
:10611400000E026E010E03D0000E026E000E016E20
:10612400120003C007F004C008F001C005F002C06B
:1061340006F00350052604500622FF0E0524096EBE
:10614400FF0E06200A6E1BD0200E09C0D9FF0AC01C
:10615400DAFFDF6218D001C005F002C006F0051EA8
:10616400061E054A062A09500524076E0A50062011
:10617400086E0906D8A00A060306D8A0040604502F
:106184000310D8A4E1D707C001F008C002F0120040
:1061940001010101E351E211D8B4F0EC32F056C030
:1061A40079F957C07AF958C07BF959C07CF9090EBE
:1061B400216E500E206E8CEC78F020C05AF021C075
:1061C4005BF05B505A10D8B40FD0FE0E216E5B0EFC
:1061D400206E5AC022F05BC023F021EC2CF05AC090
:1061E40056F05BC057F00BD0000E01010101E56FC2
:1061F400010E0101E46F000E576E000E566E120080
:10620400000E066E000E056E1ED003C0D9FF04C03A
:10621400DAFFDF50076E034A042A0750200AD8B475
:1062240012D0400E076405D05B0E076002D0200E2A
:10623400072601C0D9FF02C0DAFF07C0DFFF014A09
:10624400022A054A062A03C0D9FF04C0DAFFDF5038
:10625400D8B408D00650800A800F0C0ED8B4055C60
:10626400D8A0D3D701C0D9FF02C0DAFF000EDF6E79
:106274001200000E146E000E136E20EE33F00F5059
:10628400D9261050DA22000EDF6E12501110D8B445
:1062940029D0000E146E000E136E1450800A800F65
:1062A4000A0ED8B4135CD8B01DD013C001F014C0CA
:1062B40002F0000E046E050E036E57EC2CF0015034
:1062C4000F24076E02501020086E000E0A6E000E96
:1062D400096E000E0C6E050E0B6EF1EC2BF0134ADA
:1062E400142ADBD712000A0D20616E6420737570C6
:1062F400706F7274696E6720706F77657220646561
:1063040076696365732E0000000000000000000041
:106314000000000000000000000000000000000079
:106324000000000000000000000000000000000069
:106334000000000000000000000000000000000059
:106344000000000000000000000000000000000049
:10635400000000000000000000000000000003C076
:10636400D9FF04C0DAFF05C0E1FF06C0E2FFDECFBB
:10637400E6FFDDCFE5FF20EE02F00550D9260650FA
:10638400DA2203C0DEFF04C0DDFF03C0D9FF04C06E
:10639400DAFFDE50DD10D8A405D001C0D9FF02C059
:1063A400DAFF0ED003C0D9FF04C0DAFFDECF07F056
:1063B400DDCF08F0020E0724D96E000E0820DA6E35
:1063C40005C0DEFF06C0DDFF03C0D9FF04C0DAFF4D
:1063D40005C0DEFF06C0DDFF120020EE0BF0035007
:1063E400D9260450DA22DF500F0AD8B430D003C0C3
:1063F400D9FF04C0DAFFDF50D8B429D003C0D9FFD5
:1064040004C0DAFFDF50E50AD8B421D020EE0BF047
:106414000350D9260450DA22DF50080AD8B417D022
:1064240020EE0BF00350D9260450DA22DF50060B7D
:10643400D8A40DD020EE33F00150D9260250DA2230
:10644400DF50D8B404D0000E026E010E03D0000E4B
:10645400026E000E016E120031D001C0D9FF02C0DD
:10646400DAFFDF50D8B40ED003C0D9FF04C0DAFF7E
:10647400DF50076E01C0D9FF02C0DAFFDF500718F2
:10648400D8B418D003C0D9FF04C0DAFFDF50076EB8
:10649400086A071E081E074A082A01C0D9FF02C05D
:1064A400DAFFDF50096E09500724016E000E082040
:1064B400026E10D0014A022A034A042A0506D8A013
:1064C40006060528D8B40628D8A4C7D7000E026E3D
:1064D400000E016E120009C0D9FF0AC0DAFFDE50B7
:1064E400DD10D8A425D009C0D9FF0AC0DAFF0BC03B
:1064F400DEFF0CC0DDFF20EE02F00950D9260A5061
:10650400DA220BC0DEFF0CC0DDFF0BC0D9FF0CC0CC
:10651400DAFF000EDE6E000EDD6E20EE02F00B5090
:10652400D9260C50DA22000EDE6E000EDD6E12D07B
:1065340009C001F00AC002F009C0D9FF0AC0DAFF9D
:10654400DECF03F0DDCF04F00BC005F00CC006F085
:10655400B1EC31F01200000E0A6E000E0B6E000E4C
:106564000C6E000E0D6E0850051006100710D8B4FE
:106574002CD0096E010E0E6E095006D0D890053647
:106584000636073608360E2A08AEF8D7D8900A36EB
:106594000B360C360D360550015C06500258075078
:1065A400035808500458D8A009D00550015E06507D
:1065B400025A0750035A0850045A0A80D8900832E5
:1065C4000732063205320E2EE1D70AC001F00BC0A5
:1065D40002F00CC003F00DC004F012000101010E22
:1065E400026E0101EE0E016EA4EC2BF00101010E0E
:1065F400026E0101F20E016EA4EC2BF0000E146E7B
:10660400000E136E1450800A800F020ED8B4135C6F
:10661400D8B021D00101010E0E6E0101EE0E0D6EF7
:1066240013C001F014C002F0020E046E440E036E97
:1066340057EC2CF0400E0124116E020E0220126E53
:10664400C80E11240F6E040E1220106E26EC2DF0CD
:10665400134A142AD7D7000E01010101E36F010E7A
:106664000101E26F120005C0D9FF06C0DAFF03C0C2
:10667400DEFF04C0DDFF20EE02F00350D9260450F3
:10668400DA2210EE02F00550E1260650E222DECFB7
:10669400E6FFDDCFE5FF20EE02F00350D9260450DB
:1066A400DA22DE50DD10D8A407D020EE02F001502B
:1066B400D9260250DA220ED020EE02F00350D92659
:1066C4000450DA22DECF07F0DDCF08F007C0D9FF8F
:1066D40008C0DAFF05C0DEFF06C0DDFF20EE02F0D1
:1066E4000350D9260450DA2205C0DEFF06C0DDFFC0
:1066F4001200056E000E076E055004AE08D0036C40
:10670400041ED8B0042A056E010E076E055002AEB1
:1067140006D0016C021ED8B0022A010E071A000E20
:10672400096E000E086E04500310D8B41ED0056E16
:10673400010E066E055004D0D89003360436062A9E
:1067440004AEFAD7D890083609360350015C0450D9
:106754000258D8A005D00350015E0450025A0880A4
:10676400D89004320332062EEDD70750D8B404D0A3
:10677400086C091ED8B0092A08C001F009C002F04B
:10678400120004EEC8F018EECFF0EE6AE550E150C6
:10679400FCE1E250FAE103EE00F0C80EEE6AE8060E
:1067A400FDE102EE78F0290EEE6AE806FDE101EE65
:1067B400DCF01A0EEE6AE806FDE1460EF66E6C0E8B
:1067C400F76E000EF86E04EE00F010EEC8F009004B
:1067D400F5CFEEFFE550E150FAE1EA0EF66E620EF7
:1067E400F76E000EF86E02EE00F010EE78F009007D
:1067F400F5CFEEFFE550E150FAE1FA0EF66E590ED0
:10680400F76E000EF86E01EE8AF010EE52F00900F9
:10681400F5CFEEFFE550E150FAE10001F8EF45F065
:1068240044D007C0D9FF08C0DAFFDF50116E09C099
:10683400D9FF0AC0DAFFDF50126E400E116405D092
:106844005B0E116002D0200E1126400E126405D09A
:106854005B0E126002D0200E122612500D6E0E6ACC
:106864000D1E0E1E0D4A0E2A11500D240F6E000E21
:106874000E20106E10500F10D8B405D00FC007F0C2
:1068840010C008F01ED007C0D9FF08C0DAFFDF50DF
:10689400D8B413D009C0D9FF0AC0DAFFDF50D8B486
:1068A4000CD0074A082A094A0A2A0B06D8A00C0663
:1068B4000B28D8B40C28D8A4B4D7000E086E000E48
:1068C400076E1200F2C129F0F3C12AF048D02A5011
:1068D4002910D8A405D0000E286E000E276E06D00D
:1068E400C00E2924276EFD0E2A20286E2650281853
:1068F40002E125502718D8B428D0120E2724136E8D
:10690400000E2820146E120E2524156E000E26206B
:10691400166E7DEC3FF014501310D8B416D01C0E34
:106924002724136E000E2820146E1C0E2524156EC9
:10693400000E2620166E7DEC3FF014501310D8B4D0
:1069440004D0000E266E010E11D020EE02F0295064
:10695400D9262A50DA22DECF29F0DDCF2AF02A50B8
:106964002910D8A4B4D7000E266E000E256E12008E
:1069740003C0D9FF04C0DAFFDE50DD10D8A40BD069
:1069840020EE02F00350D9260450DA2201C0E1FFC0
:1069940002C0E2FF14D020EE02F00350D9260450C6
:1069A400DA2203C0E1FF04C0E2FFE6CF05F0E5CF41
:1069B40006F0020E0524E16E000E0620E26EDECF24
:1069C400E6FFDDCFE5FF20EE02F00350D9260450A8
:1069D400DA22DE50DD10D8A40BD003C0D9FF04C0E6
:1069E400DAFF10EE02F00150E1260250E22212D04A
:1069F40003C0D9FF04C0DAFF10EE02F00350E12611
:106A04000450E222E6CF05F0E5CF06F005C0E1FF31
:106A140006C0E2FFDECFE6FFDDCFE5FF120082C055
:106A24008AF083C08BF084C08CF085C08DF034D0A4
:106A34008AC086F08BC087F08CC088F08DC089F046
:106A440080C046F081C047F08AC048F08BC049F04E
:106A54008CC04AF08DC04BF01FEC51F049C08DF052
:106A640048C08CF047C08BF046C08AF080C046F026
:106A740081C047F086C048F087C049F088C04AF01A
:106A840089C04BF0000E4C6E000E4D6E000E4E6E23
:106A9400000E4F6E08EC4DF0000100018A29D8B4B5
:106AA4008B29D8B48C29D8B48D29D8B408D0000146
:106AB40000018D518A118B118C11D8A4B9D7000E05
:106AC40000010001816F010E0001806F1200000EB1
:106AD40000010001BF6F000E0001BE6F0101010142
:106AE400E351E211D8B4F0EC32F029EE7DF0DE503F
:106AF400DD10D8B40BD001D809D00500FA6E7D5151
:106B0400FD6E7E51FE6EFF6AFA501200090E0001FE
:106B14000001AD6F500E0001AC6FBAC0AEF0BBC047
:106B2400AFF0BCC0B0F0BDC0B1F04AEC62F00001FF
:106B3400ACC0BEF00001ADC0BFF029EE7FF0DE5066
:106B4400DD10D8B40BD001D809D00500FA6E7F51FE
:106B5400FD6E8051FE6EFF6AFA50120000010001C2
:106B6400BF51BE11D8A406D000010001BA690001CA
:106B7400BB6907D0000E00010001BB6F000E0001CD
:106B8400BA6F1200A00E385C860E3958010E3A58BE
:106B9400000E3B58D8B054D0000E086E3E0E076E5F
:106BA400000E0A6E000E096E000E0C6E0C0E0B6EBB
:106BB400F1EC2BF03C6E7E0E3E6E3C5038C00FF074
:106BC40039C010F03AC011F03BC012F0000E146E40
:106BD4003F0E136E87EC36F034C001F035C002F07E
:106BE40036C003F037C004F0000E066E0B0E056EBF
:106BF40052EC2EF0000E026E3E0E016E50EC2DF0A3
:106C040001C04AF002C04BF04AC03CF04BC03DF01A
:106C14003C1E3D1E3C4A3D2A080E3C26000E3D22E9
:106C24003C503424016E3D503520026E000E046E3B
:106C34003E0E036E4AC005F04BC006F052EC2EF037
:106C440012000A0D50616B697374616E2050726991
:106C54006D65204D696E6973746572204E6177614C
:106C64007A205368617269662063616C6C73204E8C
:106C74006172656E647261204D6F646920616E6437
:106C840020636F6E67726174756C617465732068DC
:106C9400696D206F6E20686973207265736F756EFD
:106CA40064696E672077696E20696E207468652058
:106CB400706F6C6C733A205054490000000000005F
:106CC40000000000000000000000000000000000C0
:106CD40000000000000000000000000000000000B0
:106CE40000000000000000000000000000000000A0
:106CF4000000000000000000000000000000000090
:106D040000000000000000000000380EF66EFE0EC9
:106D1400F76E000EF86E20EE15F0110E0900F5CF97
:106D2400DEFFE82EFBD7000E336E260E326E0FC048
:106D340001F010C002F011C003F012C004F00A0EFA
:106D4400056E000E066E000E076E000E086E28EC2F
:106D540030F0150E0124D96E000E0220DA6E32C016
:106D6400E1FF33C0E2FFDFCFE7FF324A332A0FC02F
:106D740001F010C002F011C003F012C004F00A0EBA
:106D8400056E000E066E000E076E000E086EADEC6A
:106D940032F004C012F003C011F002C010F001C0C0
:106DA4000FF012500F1010101110D8A4C0D732C019
:106DB400D9FF33C0DAFF000EDF6E3206D8A03306E7
:106DC4000FD032C0D9FF33C0DAFF13C0E1FF14C0C3
:106DD400E2FFDFCFE7FF3206D8A03306134A142AB6
:106DE400260E325C000E3358D8B0EBD713C0D9FF4F
:106DF40014C0DAFF000EDF6E12001BC001F01CC0CD
:106E040002F051EC3AF001C027F002C028F0272824
:106E1400D8B42828D8B416D01BC007F01CC008F07A
:106E240027C009F028C00AF021C00BF022C00CF0E2
:106E340023C00DF024C00EF0F9EC43F00850071005
:106E4400D8B403D01B681C6851D028502710D8A48C
:106E540005D01DC0D9FF1EC0DAFF42D01BC001F00F
:106E64001CC002F050EC2DF001C025F002C026F049
:106E740021C001F022C002F050EC2DF0011E021ED0
:106E8400014A022A01502524296E025026202A6E26
:106E94002050800A256E29501F5C2A50800A2558EC
:106EA400D8B004D01FC029F020C02AF01DC001F0C2
:106EB4001EC002F01BC003F01CC004F029C005F082
:106EC4002AC006F052EC2EF0FF0E2924256EFF0E88
:106ED4002A20266E25501D24D96E26501E20DA6ED7
:106EE400000EDF6E000E1C6E000E1B6E1200000101
:106EF40000018A6900018B6900018C6900018D69B8
:106F040082C08EF083C08FF084C090F085C091F071
:106F1400000100018229D8B48329D8B48429D8B4C3
:106F2400852924D08EC08AF08FC08BF090C08CF05D
:106F340091C08DF080C046F081C047F08EC048F00B
:106F44008FC049F090C04AF091C04BF01FEC51F053
:106F540049C091F048C090F047C08FF046C08EF011
:106F64000001000191518E118F119011D8A406D007
:106F7400000E00010001816F000E3CD000010001F1
:106F84008E29D8B48F29D8B49029D8B49129D8A4FB
:106F9400C9D780C046F081C047F08AC048F08BC092
:106FA40049F08CC04AF08DC04BF086C04CF087C0CD
:106FB4004DF088C04EF089C04FF008EC4DF080C011
:106FC40046F081C047F086C048F087C049F088C0C9
:106FD4004AF089C04BF0FF0E4C6EFF0E4D6EFF0E53
:106FE4004E6EFF0E4F6E08EC4DF0000E00010001D6
:106FF400816F010E0001806F1200D3C0D5F0D4C0A0
:10700400D6F001010101E351E211D8B4F0EC32F001
:1070140000010001D651D511D8B479D029EE7DF004
:10702400DE50DD10D8B40BD001D809D00500FA6EBB
:107034007D51FD6E7E51FE6EFF6AFA501200000112
:1070440022EE3DF00001D551D9260001D651DA22B5
:10705400DE50DD10D8B44AD0D5C09EF0D6C09FF023
:10706400000122EE39F00001D551D9260001D65194
:10707400DA220001DECFA0F00001DECFA1F0000192
:10708400DECFA2F00001DECFA3F0390E0001000133
:10709400D52500010001A46F000E00010001D621D6
:1070A4000001A56F010E00010001A66F000E000192
:1070B400A76F000E0001A86F000E0001A96F42EC3B
:1070C4006DF000010001A1519E119F11A011D8B4CF
:1070D4000DD0000122EE3DF00001D551D92600016A
:1070E400D651DA22000EDE6E000EDD6E29EE7FF040
:1070F400DE50DD10D8B40BD001D809D00500FA6EEB
:107104007F51FD6E8051FE6EFF6AFA50120012002C
:1071140020EE28F00D50D9260E50DA22DF50D8A4E4
:1071240054D020EE01F00D50D9260E50DA22DECFD5
:1071340013F0DECF14F0DECF15F0DECF16F0FE0E26
:107144000F24016EFF0E1020026EFF0E1120036E3D
:10715400FF0E1220046E0DC0D9FF0EC0DAFFDF50FF
:10716400176E1750056E066A076A086ACFEC2DF091
:1071740020EE23F00D50D9260E50DA22DECF18F07F
:10718400DDCF19F0040E1A6ED890193218321A2E67
:10719400FBD77F0E1816000E1916185001241B6E0B
:1071A400195002201C6E000E03201D6E000E0420D8
:1071B4001E6E13501B240D6E14501C200E6E1550A1
:1071C4001D200F6E16501E2032D020EE01F00D50FF
:1071D400D9260E50DA22DECF13F0DECF14F0DECF44
:1071E40015F0DECF16F0FE0E0F24016EFF0E1020F8
:1071F400026EFF0E1120036EFF0E1220046E0DC0EE
:10720400D9FF0EC0DAFFDF50176E1750056E066AFD
:10721400076A086ACFEC2DF0135001240D6E145048
:1072240002200E6E155003200F6E16500420106EAF
:10723400120001010101E351E211D8B4F0EC32F083
:1072440029EE7DF0DE50DD10D8B40BD001D809D082
:107254000500FA6E7D51FD6E7E51FE6EFF6AFA5096
:107264001200FF0E216E8C0E206EFEC022F0FFC0B5
:1072740023F021EC2CF0FEC0F2F0FFC0F3F001018A
:10728400010E00010001F56F01014D0E0001F46FC4
:10729400AFEC39F000010001F3510001F211D8A460
:1072A40027D049D0010101016051D8B40DD0FF0E9F
:1072B400216EC70E206E0101010E236E0101560ED0
:1072C400226E21EC2CF014D0FF0E216E9D0E206E48
:1072D4000101010E236E0101560E226E65C124F0D8
:1072E40066C125F067C126F068C127F021EC2CF0B7
:1072F4000101010E00010001BB6F01014D0E0001EF
:10730400BA6F0101010E00010001BD6F0101560EAB
:107314000001BC6F69EC35F000010001BB510001B4
:10732400BA11D8B4BFD70101010E026E01014D0E8E
:10733400016E25EC2BF029EE7FF0DE50DD10D8B481
:107344000BD001D809D00500FA6E7F51FD6E805133
:10735400FE6EFF6AFA5012001200000E00010001D6
:10736400F96F010E0001F86F00010001FA690001D4
:10737400FB690001FC690001FD6901010101E351A0
:10738400E211D8B4F0EC32F029EE7DF0DE50DD10DD
:10739400D8B40BD001D809D00500FA6E7D51FD6E2A
:1073A4007E51FE6EFF6AFA501200F2C001F0F3C083
:1073B40002F051EC3AF0010E012400010001F66FD5
:1073C400000E02200001F76F00010001F751F611D1
:1073D400D8A40FD0090E026E500E016E74EC2BF07F
:1073E40004C0FDF003C0FCF002C0FBF001C0FAF0E1
:1073F40015D0F2C0B8F0F3C0B9F00001000E0001DE
:107404000001BB6F0001FA0E0001BA6F58EC40F0A6
:107414000001B8C0F8F00001B9C0F9F000010001A2
:10742400F951F811D8B412D0090E026E500E016E43
:10743400F4C003F0F5C004F0FAC005F0FBC006F098
:10744400FCC007F0FDC008F0D8EC2CF029EE7FF06A
:10745400DE50DD10D8B40BD001D809D00500FA6E87
:107464007F51FD6E8051FE6EFF6AFA5012000001DA
:107474000001FA29D8B4FB29D8B4FC29D8B4FD29D1
:10748400D8A408D0000E00010001F36F000E000123
:10749400F26F04D0F4C0F2F0F5C0F3F01200000E65
:1074A400066E000E056E02500110D8B458D001C00B
:1074B400F6FF02C0F7FF000EF86E0F0EF76403D05C
:1074C4000800F55005D0F6CFE9FFF7CFEAFFEF50FB
:1074D4002F0AD8A407D0036E2F0E076E0350014A5B
:1074E400022A6FD0010E0124036E000E0220046EE6
:1074F40003C0F6FF04C0F7FF000EF86E0F0EF7642A
:1075040003D00800F55005D0F6CFE9FFF7CFEAFF26
:10751400EF503A0AD8B41AD0020E0124036E000EBA
:107524000220046E03C0F6FF04C0F7FF000EF86EDD
:107534000F0EF76403D00800F55005D0F6CFE9FF2D
:10754400F7CFEAFFEF505C0AD8A409D0036E5C0EB3
:10755400076E0350030E0126000E022232D001688A
:10756400026849D001C0F6FF02C0F7FF000EF86EB2
:107574000F0EF76403D00800F55005D0F6CFE9FFED
:10758400F7CFEAFFEF500718D8A403D0014A022A24
:1075940016D0014A022A01C0F6FF02C0F7FF000E0E
:1075A400F86E0F0EF76403D00800F55005D0F6CF3F
:1075B400E9FFF7CFEAFFEF500009D8A4D3D7054A73
:1075C400062A01C0F6FF02C0F7FF000EF86E0F0E88
:1075D400F76403D00800F55005D0F6CFE9FFF7CFE4
:1075E400EAFFEF500009D8A4D6D7FF0E0524016E98
:1075F400FF0E0620026E12000AC014F00BC015F034
:107604000CC016F00DC017F0090ED89014361536BC
:1076140016361736E82EF9D717C01BF016C01AF025
:1076240015C019F014C018F0146E120E036E145025
:1076340018C004F019C005F01AC006F01BC007F00A
:10764400156EFF0E086E1550ABEC2EF002D030EC28
:107654002BF001010101ED67FAD702D030EC2BF0D9
:1076640001010101ED51FE0AD8A4F8D7000E1C6EE9
:10767400000E1D6E000E1E6E000E1F6E31D0000E29
:1076840001010101EB6F000E0101EA6F010101012B
:10769400EB51800A7E0F000ED8B4EA5DD8B010D04A
:1076A40030EC2BF00EC0D9FF0FC0DAFF0101EDC1A1
:1076B400DFFF0E4A0F2A01010101EA4BEB2BE6D74B
:1076C400010E0A26000E0B22000E0C22000E0D22C3
:1076D400010E1C26000E1D22000E1E22000E1F226B
:1076E40010501C5C11501D5812501E5813501F5836
:1076F400D8A0C5D7146EFF0E016E145058EC2BF0B1
:10770400146EFF0E016E145058EC2BF0146E0C0E18
:10771400036E1450000E046E000E056E000E066E0D
:10772400000E076E156EFF0E086E1550ABEC2EF0B2
:1077340030EC2BF002D030EC2BF001010101ED67AD
:10774400FAD702D030EC2BF001010101ED29D8A4C5
:10775400F9D7000E0B6E010E0A6E1200000E106EA9
:10776400000E0F6E1050800A800F0B0ED8B40F5C01
:10777400D8B011D00F500124D96E10500220DA6E07
:107784000F500B24E16E10500C20E26EDFCFE7FFA8
:107794000F4A102AE7D720EE0DF00B50D9260C50D3
:1077A400DA22000EDF6E20EE0EF00B50D9260C50BC
:1077B400DA22000EDF6E10EE0FF00B50E1260C50B3
:1077C400E222DFCFE7FF20EE11F00B50D9260C5058
:1077D400DA22000EDF6E20EE10F00B50D9260C508A
:1077E400DA22200EDF6E20EE13F00B50D9260C5057
:1077F400DA22000EDF6E20EE12F00B50D9260C5068
:10780400DA22200EDF6E20EE16F00B50D9260C5033
:10781400DA22000EDF6E10EE17F00B50E1260C504A
:10782400E222DFCFE7FF20EE19F00B50D9260C50EF
:10783400DA22000EDF6E20EE18F00B50D9260C5021
:10784400DA22200EDF6E0E500D10D8A408D020EEE0
:107854000BF00B50D9260C50DA22200E07D020EE64
:107864000BF00B50D9260C50DA22100EDF6E20EEEE
:107874000CF00B50D9260C50DA22000EDF6E20EEED
:1078840014F00B50D9260C50DA2209C0DEFF0AC0CE
:10789400DDFF20EE1AF00B50D9260C50DA2207C077
:1078A400DEFF08C0DDFF20EE1CF00B50D9260C5083
:1078B400DA2203C0DEFF04C0DEFF05C0DEFF06C01F
:1078C400DEFF1200000E8C6E8A888B9A0A6E000E00
:1078D4000D6E0A5007D00A6EFF0E016E0A5058EC66
:1078E4002BF00D2A090E0D64F6D78A988B9A0A6E2E
:1078F400000E01010101ED6F0A500A6E000E036EC5
:107904000A50000E046E000E056E000E066E000E88
:10791400076E0B6E950E086E0B50ABEC2EF030EC30
:107924002BF001010101ED05D8A4F9D7000E0101E6
:107934000101E76F000E0101E66F070E0A6E7D0E6E
:10794400E82EFED70A2EFCD70A6E010E036E0A50EB
:10795400000E046E000E056E000E066E000E076E1D
:107964000B6EFF0E086E0B50ABEC2EF030EC2BF0D0
:1079740001010101E64BE72B01010101ED51D8B4EE
:1079840005D001010101ED05D8A4F0D70A6E000E5F
:107994000C6E0A500A6E370E036E0A50000E046E07
:1079A400000E056E000E066E000E076E0B6EFF0EC7
:1079B400086E0B50ABEC2EF030EC2BF00101010102
:1079C400ED51D8B40BD001010101ED05D8B406D0B6
:1079D40001010101ED51050AD8A4EED70A6E010E8A
:1079E400036E0A50000E046E000E056E000E066E45
:1079F400000E076E0B6EFF0E086E0B50ABEC2EF0F4
:107A040030EC2BF001010101ED51D8B405D0010196
:107A14000101ED05D8A4F4D701010101ED67BAD73E
:107A240001010101ED51D8A4010E12000001B46F4F
:107A3400000E00010001BA6F0001B451000E0001F4
:107A44000001B96F000E0001B86F000E00010001C3
:107A5400B76F000E0001B66FACC080F0ADC081F00E
:107A6400AEC082F0AFC083F0B0C084F0B1C085F086
:107A740000010001B6510001B46F00010001B751CB
:107A84000001B56F0001B64BB72B0001B4C086F0FE
:107A94000001B5C087F00001000E000187BFFF0E92
:107AA4000001886F0001896F000E000100018B6FD7
:107AB400000E00018A6F38EC5BF000010001815177
:107AC40000018011D8B470D00001B46F000E000121
:107AD4000001BA6F0001B4510F0E00010001BA6534
:107AE40001D0BAD700010001BA51200DF3CFB8F08C
:107AF400F4CFB9F00001ACC0B4F00001ADC0B5F0F2
:107B040000010001B8510001B42700010001B9517E
:107B14000001B523310E0001B42500010001BB6F43
:107B2400000E0001B5210001BC6FBBC001F0BCC058
:107B340002F0DDEC2BF002500110D8A42CD0BBC015
:107B440001F0BCC002F026EC2EF002500110D8A4C3
:107B540022D0BBC001F0BCC002F05DEC30F002509A
:107B64000110D8B418D0BBC001F0BCC002F0B2C040
:107B740003F0B3C004F0000E066E0B0E056E2EEC7F
:107B840032F002500110D8A406D0000E000100010A
:107B9400AD6F010E0ED000010001BA2B0F0E0001D3
:107BA4000001BA659FD758D7000E00010001AD6FE0
:107BB400000E0001AC6F12000AC014F00BC015F0E7
:107BC4000CC016F00DC017F0090ED89014361536F7
:107BD40016361736E82EF9D717C01BF016C01AF060
:107BE40015C019F014C018F0146E190E036E145059
:107BF40018C004F019C005F01AC006F01BC007F045
:107C0400156EFF0E086E1550ABEC2EF002D030EC62
:107C14002BF001010101ED67FAD7146EFF0E016E1E
:107C2400145058EC2BF0146EFF0E016E145058ECE7
:107C34002BF0146EFC0E016E145058EC2BF0000E59
:107C44001C6E000E1D6E000E1E6E000E1F6E30D0D8
:107C5400000E01010101EB6F000E0101EA6F010149
:107C64000101EB51800A7E0F000ED8B4EA5DD8B052
:107C74000FD00EC0D9FF0FC0DAFFDF50016E58ECF1
:107C84002BF00E4A0F2A01010101EA4BEB2BE7D737
:107C9400010E0A26000E0B22000E0C22000E0D22ED
:107CA400010E1C26000E1D22000E1E22000E1F2295
:107CB40010501C5C11501D5812501E5813501F5860
:107CC400D8A0C6D7146EFF0E016E145058EC2BF0DA
:107CD400146EFF0E016E145058EC2BF030EC2BF0A8
:107CE40002D030EC2BF001010101ED511F0B050A0C
:107CF400D8B403D0F6D730EC2BF001010101ED2903
:107D0400D8A4F9D7146EFF0E016E145058EC2BF062
:107D1400146EFF0E016E145058EC2BF0146EFD0E11
:107D2400016E145058EC2BF030EC2BF030EC2BF0AF
:107D340002D030EC2BF001010101ED29D8A4F9D7D0
:107D4400000E0B6E010E0A6E120076C0D9FF77C0CA
:107D5400DAFF0001DECF92F00001DECF93F00001E4
:107D6400DECF94F00001DECF95F020EE1FF07450CA
:107D7400D9267550DA22DECF7CF0DECF7DF0DECF5F
:107D84007EF0DECF7FF07C28D8B47D28D8B47E285E
:107D9400D8B47F28D8B40ED074C046F075C047F06C
:107DA400FF0E486EFF0E496EFF0E4A6EFF0E4B6EBD
:107DB4000AEC43F0000E00010001966F000E000172
:107DC400976F000E0001986F000E0001996F7CD030
:107DD40074C046F075C047F020EE05F07450D92603
:107DE4007550DA22DECF48F0DECF49F0DECF4AF01C
:107DF400DECF4BF00001000E4D6E00019A0E4C6E6A
:107E0400DCEC5FF047504610D8B44DD074C046F057
:107E140075C047F092C048F093C049F094C04AF04E
:107E240095C04BF09AC04CF09BC04DF09CC04EF0F6
:107E34009DC04FF008EC4DF074C046F075C047F09B
:107E44009AC048F09BC049F09CC04AF09DC04BF0DA
:107E5400FF0E4C6EFF0E4D6EFF0E4E6EFF0E4F6EFC
:107E640008EC4DF09AC092F09BC093F09CC094F043
:107E74009DC095F000010001995196119711981138
:107E8400D8A415D076C0D9FF77C0DAFF00019AC014
:107E9400DEFF00019BC0DEFF00019CC0DEFF00018D
:107EA4009DC0DEFF04D0000E756E000E22D0010EC0
:107EB400000100019627000E00019723000E000127
:107EC4009823000E00019923785000010001965D6B
:107ED40079500001000197597A5000010001985926
:107EE4007B50000100019959D8A072D7000E756E1D
:107EF400010E746E1200000E1E6E000E1D6E000E3A
:107F04001A6E000E196E13C001F014C002F07AEC60
:107F14002DF001C023F002C024F015C001F016C0FA
:107F240002F07AEC2DF001C021F002C022F02328E7
:107F3400D8B42428D8A405D02128D8B42228D8A479
:107F4400ACD02128D8B42228D8A405D02328D8B46A
:107F54002428D8A4A2D02328D8B42428D8B454D010
:107F640013C017F014C018F02350172624501822F9
:107F7400010E17241D6E000E18201E6E15C017F07A
:107F840016C018F02150172622501822010E17246B
:107F9400196E000E18201A6E1DC001F01EC002F0EA
:107FA40050EC2DF001C017F002C018F019C001F018
:107FB4001AC002F050EC2DF00250181802E10150E2
:107FC4001718D8A46AD01DC007F01EC008F019C045
:107FD40009F01AC00AF01DC001F01EC002F050ECF6
:107FE4002DF001C00BF002C00CF012EC34F008507C
:107FF4000710D8A452D023C01FF024C020F021C001
:108004001BF022C01CF014D013C001F014C002F005
:1080140050EC2DF001C01FF002C020F015C001F09B
:1080240016C002F050EC2DF001C01BF002C01CF091
:1080340013C001F014C002F01FC003F020C004F00C
:1080440093EC30F001C01FF002C020F015C001F025
:1080540016C002F01BC003F01CC004F093EC30F017
:1080640001C01BF002C01CF01C50201802E11B5080
:108074001F18D8A412D013C007F014C008F015C0FC
:1080840009F016C00AF01FC00BF020C00CF012EC6F
:1080940034F008500710D8B404D0000E146E000E4B
:1080A40003D0000E146E010E136E1200090E026E40
:1080B400500E016E74EC2BF004C0CFF003C0CEF070
:1080C40002C0CDF001C0CCF0B8C001F0B9C002F0DC
:1080D40051EC3AF001C0CAF002C0CBF0000E00012E
:1080E4000001D16F000E0001D06F89D0B8C007F035
:1080F400B9C008F0D0C009F0D1C00AF00001000EE8
:108104000C6E0001C00E0B6E000E0E6E0A0E0D6E8C
:10811400F9EC43F00728D8B40828D8B466D0090E7F
:1081240000010001AD6F500E0001AC6FCCC0AEF089
:10813400CDC0AFF0CEC0B0F0CFC0B1F00001000EA2
:1081440000010001B36F0001C00E0001B26F000115
:10815400000E00010001B56F0001D20E0001B46FE2
:10816400D0EC56F000010001AF51AC11AD11AE11CD
:10817400D8B43BD00001000E026E0001D20E016E95
:10818400B7EC2BF002500110D8B42FD0000100013D
:10819400E6510001BC6F00010001E7510001BD6F11
:1081A4000001BE6B0001BF6BBDC0BFF0BCC0BEF020
:1081B4000001BD6BBC6B00010001EC510001BC254A
:1081C40000010001CC6F00010001ED510001BD214F
:1081D4000001CD6F000E0001BE210001CE6F000E24
:1081E4000001BF210001CF6F06D0000E0001000185
:1081F400B96F000E36D000010001D04BD12B010E17
:1082040000010001CA250001BC6F000E000100013D
:10821400CB210001BD6F00010001D151800A000192
:10822400BE6FBC5100010001D05D0001BD51800A48
:108234000001BE59D8A05AD7BAC0D9FFBBC0DAFFD3
:108244000001CCC0DEFF0001CDC0DEFF0001CEC0C6
:10825400DEFF0001CFC0DEFF000E00010001B96F98
:10826400010E0001B86F120022EE3BF00F50D92628
:108274001050DA22000EDE6E000EDD6E000E166E59
:10828400000E156E1650800A800F010ED8B4155CCE
:10829400D8B0CFD015C001F016C002F0020E046EA3
:1082A4000A0E036E57EC2CF03D0E0124116E020EE3
:1082B4000220126E11500F24136E12501020146EEF
:1082C400000E1324D96E020E1420DA6EFF0EDE6E39
:1082D400FF0EDE6EFF0EDE6EFF0EDD6EDD52DD5232
:1082E40015C001F016C002F0020E046E0A0E036EF1
:1082F40057EC2CF03D0E0124116E020E0220126E7A
:1083040011500F24136E12501020146E040E1324F7
:10831400D96E020E1420DA6E000EDE6E000EDD6ED3
:1083240015C001F016C002F0020E046E0A0E036EB0
:1083340057EC2CF03D0E0124116E020E0220126E39
:1083440011500F24076E12501020086E000E0A6E92
:10835400000E096E020E0C6E000E0B6EF1EC2BF08B
:1083640015C001F016C002F0020E046E0A0E036E70
:1083740057EC2CF03D0E0124116E020E0220126EF9
:1083840011500F24136E12501020146E060E132475
:10839400D96E020E1420DA6E000EDE6E000EDD6E53
:1083A40022EE3BF00F50D9261050DA2215C001F00E
:1083B40016C002F0020E046E0A0E036E57EC2CF087
:1083C4003D0E0124116E020E0220126E11500F2474
:1083D400136E12501020146E080E1324E16E020E58
:1083E4001420E26EDECFE6FFDDCFE5FF15C001F01D
:1083F40016C002F0020E046E0A0E036E57EC2CF047
:108404003D0E0124116E020E0220126E11500F2433
:10841400136E12501020146E22EE3BF00F50D9262A
:108424001050DA2213C0DEFF14C0DDFF154A162AED
:1084340029D7120023502210D8B4E5D022EE04F03C
:108444002250D9262350DA22DE50DD10D8B4D7D0FA
:1084540020EE2BF02050D9262150DA22DE50DD10F8
:10846400D8B4C3D0010E2C6E000E2D6E000E2E6EED
:10847400000E2F6E22EE00F02250D9262350DA226D
:10848400DECF24F0DECF25F0DECF26F0DECF27F0DE
:1084940020EE11F02050D9262150DA22DECF28F028
:1084A400DECF29F0DECF2AF0DECF2BF0281E291EE6
:1084B4002A1E2B1E282A000E29222A222B2224506F
:1084C4002824306E25502920316E26502A20326E01
:1084D40027502B20336E010E3024246E000E3120E1
:1084E400256E000E3220266E000E3320276E20EEFD
:1084F4001BF02050D9262150DA22DECF28F0DECF1F
:1085040029F0DECF2AF0DECF2BF02450285C255052
:10851400295826502A5827502B58D8A008D0010E85
:108524002C6E000E2D6E000E2E6E000E2AD020EE44
:108534001BF02050D9262150DA22DECF24F0DECFE2
:1085440025F0DECF26F0DECF27F030C028F031C092
:1085540029F032C02AF033C02BF0281E291E2A1E0F
:108564002B1E282A000E29222A222B2224502824BA
:108574002C6E255029202D6E26502A202E6E275031
:108584002B202F6E22EE00F02250D9262350DA221F
:10859400DECF0AF0DECF0BF0DECF0CF0DECF0DF035
:1085A40022C00EF023C00FF02CC010F02DC011F02B
:1085B4002EC012F02FC013F020EE2BF02050D9263D
:1085C4002150DA22DECF24F0DDCF25F001D809D006
:1085D4000500FA6E2450FD6E2550FE6EFF6AFA50B7
:1085E40012000B500A10D8B40ED022EE04F0225020
:1085F400D9262350DA22000EDE6E000EDD6E000E48
:10860400216E010E03D0000E216E000E206E1200AA
:1086140020EE28F04650D9264750DA22DF50D8B44D
:10862400E5D046C034F047C035F020EE17F0465090
:10863400D9264750DA22DECF4CF0DECF4DF0DECF24
:108644004EF0DECF4FF020EE15F04650D9264750BD
:10865400DA22DECF50F0DDCF51F050504C24366E8C
:1086640051504D20376E000E4E20386E000E4F20B4
:10867400396E4AEC49F034C052F035C053F05350CF
:108684005210D8B4B3D022EE06F05250D92653502B
:10869400DA22DECF4CF0DDCF4DF0EC0E4C24D96E57
:1086A400010E4D20DA6E48C0DFFF22EE06F0525074
:1086B400D9265350DA22DECF4CF0DDCF4DF0ED0E4B
:1086C4004C24D96E010E4D20DA6E49C0DFFF22EE34
:1086D40006F05250D9265350DA22DECF4CF0DDCFCB
:1086E4004DF0EE0E4C24D96E010E4D20DA6E4AC0C8
:1086F400DFFF22EE06F05250D9265350DA22DECFA5
:108704004CF0DDCF4DF0EF0E4C24D96E010E4D2010
:10871400DA6E4BC0DFFF22EE04F05250D9265350DC
:10872400DA22010EDE6E000EDD6E20EE1FF04650E2
:10873400D9264750DA2248C0DEFF49C0DEFF4AC0CE
:10874400DEFF4BC0DEFF20EE2BF04650D92647500B
:10875400DA22DE50DD10D8B42FD022EE00F05250D1
:10876400D9265350DA22DECF0AF0DECF0BF0DECF6B
:108774000CF0DECF0DF052C00EF053C00FF0010E1E
:10878400106E000E116E000E126E000E136E20EEAF
:108794002BF04650D9264750DA22DECF4CF0DDCFFD
:1087A4004DF001D809D00500FA6E4C50FD6E4D50C5
:1087B400FE6EFF6AFA50120022EE00F05250D926E3
:1087C4005350DA22FF0EDE6EFF0EDE6EFF0EDE6EFB
:1087D400FF0EDD6EDD52DD5222EE04F05250D9263A
:1087E4005350DA22000EDE6E000EDD6E1200000E13
:1087F400156E000E146E000E176E000E166E000E2F
:108804001A6E000E196E08500710D8B4EBD00E5033
:10881400800A800F010ED8B40D5CD8A0E3D007C045
:10882400F6FF08C0F7FF000EF86E0F0EF76403D0D2
:108834000800F55005D0F6CFE9FFF7CFEAFFEF5077
:108844002F0AD8A407D00F6E2F0E186E0F50074AA8
:10885400082A3CD0010E07240F6E000E0820106E6B
:108864000FC0F6FF10C0F7FF000EF86E0F0EF7648E
:1088740003D00800F55005D0F6CFE9FFF7CFEAFFA3
:10888400EF503A0AD8B41AD0020E07240F6E000E25
:108894000820106E0FC0F6FF10C0F7FF000EF86E30
:1088A4000F0EF76403D00800F55005D0F6CFE9FFAA
:1088B400F7CFEAFFEF505C0AD8A494D00F6E5C0E99
:1088C400186E0F50030E0726000E082207C001F091
:1088D40008C002F050EC2DF001C014F002C015F0F5
:1088E400000E136E000E126E5FD007C0F6FF08C0B4
:1088F400F7FF000EF86E0F0EF76403D00800F55072
:1089040005D0F6CFE9FFF7CFEAFFEF501818D8A447
:1089140002D0164A172A0A50171802E109501618ED
:10892400D8A43ED007C0F6FF08C0F7FF000EF86ECB
:108934000F0EF76403D00800F55005D0F6CFE9FF19
:10894400F7CFEAFFEF501818D8B42AD0FF0E0D2441
:108954000F6EFF0E0E20106E1A50800A116E0F500B
:10896400195C1050800A1158D8B01AD007C0F6FF0D
:1089740008C0F7FF000EF86E19500B24D96E1A5078
:108984000C20DA6E0F0EF76403D00800F55005D002
:10899400F6CFE9FFF7CFEAFFEF50DF6E194A1A2A44
:1089A400074A082A124A132A1350800A0F6E1450D9
:1089B400125C1550800A0F58D8A097D719500B2471
:1089C400D96E1A500C20DA6E000EDF6E0BC0D9FF80
:1089D4000CC0DAFFDF50D8B405D0000E086E000ECC
:1089E400076E02D0076808681200D7C0D9F0D8C053
:1089F400DAF001010101E351E211D8B4F0EC32F0F4
:108A040000010001DA51D911D8B4EFD029EE7DF07C
:108A1400DE50DD10D8B40BD001D809D00500FA6EB1
:108A24007D51FD6E7E51FE6EFF6AFA501200D7C072
:108A3400D3F0D8C0D4F0FFEC37F0000120EE10F0F2
:108A44000001D951D9260001DA51DA22DE50DD10B5
:108A5400D8B448D0090E00010001AD6F500E0001DA
:108A6400AC6FD9C0D9FFDAC0DAFF0001DECFAEF0B7
:108A74000001DECFAFF00001DECFB0F00001DECFA9
:108A8400B1F0260E00010001D92500010001B26FEA
:108A9400000E00010001DA210001B36F000120EE95
:108AA4000CF00001D951D9260001DA51DA22000173
:108AB400DECFB4F00001DECFB5F00001DECFB6F0BA
:108AC4000001DECFB7F011EC48F0000120EE10F009
:108AD4000001D951D9260001DA51DA22000EDE6EE6
:108AE400000EDD6E000120EE08F00001D951D926F8
:108AF4000001DA51DA22000EDE6E000EDE6E000E88
:108B0400DE6E000EDD6EDD52DD52000120EE0CF053
:108B14000001D951D9260001DA51DA22000EDE6EA5
:108B2400000EDE6E000EDE6E000EDD6EDD52DD52D6
:108B3400000120EE04F00001D951D9260001DA51D8
:108B4400DA22000EDE6E000EDE6E000EDE6E000E09
:108B5400DD6EDD52DD52000122EE39F00001D95103
:108B6400D9260001DA51DA22FF0EDE6EFF0EDE6E28
:108B7400FF0EDE6EFF0EDD6EDD52DD52000122EED1
:108B84003DF00001D951D9260001DA51DA22000E54
:108B9400DE6E000EDD6E000120EE10F00001D951F2
:108BA400D9260001DA51DA22000EDE6E000EDD6EE7
:108BB400D9C011F0DAC012F074EC2CF0090E356E45
:108BC400500E346E7EEC2EF029EE7FF0DE50DD1078
:108BD400D8B40BD001D809D00500FA6E7F51FD6ED0
:108BE4008051FE6EFF6AFA50120012000F0EC16E21
:108BF400070EB412F00E956E8C908C928C94DBC19F
:108C040004F00101876F1F0E056E010187513DECD1
:108C14002BF066EC2BF0070E0101876F7D0EE82E1A
:108C2400FED7872FFCD764EC3CF00009D8A40FD002
:108C3400FE0E076E8C0E066E45EC2BF00101876F5D
:108C4400020E056E0101875107EC2CF006D0FE0ED2
:108C5400076EB20E066E45EC2BF0F0EC32F0750E9A
:108C6400576EFC0E566E7B0E596EBC0E586ECAECD7
:108C740030F057505610D8B408D0FF0E076E0F0EC0
:108C8400066E45EC2BF000EF00F0FF0E0001000132
:108C9400FF6FF90E0001FE6F1BEC39F00101876FC5
:108CA4000A0E026E0101875183EC2BF0FF0E0101C5
:108CB40001017F6FBC0E01017E6FFF0E01010101F6
:108CC400816FFB0E0101806F88EC4AF001017EC1C7
:108CD40088F101017FC189F10101010189518811E4
:108CE400D8B41DD00401040E00010001D86F0401A2
:108CF400000E0001D76F000E00010001DA6F010EB3
:108D04000001D96F000E00010001DC6FC80E0001E4
:108D1400DB6F88C1DDF089C1DEF0C6EC73F088C179
:108D2400D7F089C1D8F0F7EC44F00101876F0A0E3F
:108D3400026E0101875183EC2BF0FF0E010101014A
:108D44007F6FE30E01017E6FFF0E01010101816F50
:108D5400FD0E0101806F88EC4AF001017EC188F1AB
:108D640001017FC189F10101010189518811D8B440
:108D74001ED00301030E00010001D86F0301000E91
:108D84000001D76F000E00010001DA6F010E00012F
:108D9400D96F000E00010001DC6FC80E0001DB6F0B
:108DA40088C1DDF089C1DEF06AEC70F006D0FE0EF9
:108DB400076EF10E066E45EC2BF088C1D7F089C121
:108DC400D8F0F7EC44F00301030E076E0301000E24
:108DD400066E45EC2BF00101876FC80E026E01018F
:108DE400875183EC2BF0FF0E076EF60E066E45ECF2
:108DF4002BF00301030E026E0301000E016E93ECCF
:108E04002BF09BD721EED0F010EE1CF00A0EDECF33
:108E1400E6FFE82EFCD70FC001F010C002F050ECC2
:108E24002DF001C02AF002C02BF00FC00AF010C0D0
:108E34000BF0B4EC2CF00AC026F00BC027F013C0E2
:108E440001F014C002F0000E046E050E036E57EC20
:108E54002CF001C02CF002C02DF011C007F012C09C
:108E640008F0000E0A6E000E096E000E0C6E200E45
:108E74000B6EF1EC2BF0FF0E2624166EFF0E27204E
:108E8400176E1450171802E113501618D8B406D0F0
:108E9400010E1324286E000E14200AD0010E132490
:108EA400166E000E1420176E400E1610286E175002
:108EB400296E11C0D9FF12C0DAFF28C0DFFF20EEEF
:108EC4000BF01150D9261250DA220F0EDF6E20EE6D
:108ED4000DF01150D9261250DA2215C0DFFF000E12
:108EE4002F6E000E2E6E2F50800A800F050ED8B400
:108EF4002E5CD8B093D02CC016F02DC017F02E5095
:108F040016262F5017221750800A186E2A50165C06
:108F14002B50800A1858D8B026D02CC016F02DC07B
:108F240017F02E5016262F50172216500F24D96EE4
:108F340017501020DA6ED8902E34186E2F34196E14
:108F44001C0E1824E16E000E1920E26EE6CF1AF012
:108F5400E5CF1BF01A501124E16E1B501220E26E73
:108F6400DFCFE7FF58D02CC016F02DC017F02E50DD
:108F740016262F5017222B50171802E12A501618C4
:108F8400D8A417D0D8902E34166E2F34176E1C0E1A
:108F94001624D96E000E1720DA6EDECF18F0DDCF5E
:108FA40019F018501124D96E19501220DA6E000EDF
:108FB40031D0D8902E34166E2F34176E1C0E162412
:108FC400D96E000E1720DA6EDECF18F0DDCF19F05F
:108FD40018501124D96E19501220DA6EFF0EDF6E6C
:108FE400D8902E34166E2F34176E1C0E1624D96E9C
:108FF400000E1720DA6EDECF18F0DDCF19F0010E67
:109004001826000E192218501124D96E1950122056
:10901400DA6EFF0EDF6E2E4A2F2A65D7120000018A
:10902400B86F000E00010001BE6F0001B851000EC0
:1090340000010001BD6F000E0001BC6F000E0001B5
:109044000001BB6F000E0001BA6F000120EE2BF08F
:109054000001AC51D9260001AD51DA22DE50DD10F9
:10906400D8B415D1ACC080F0ADC081F0AEC082F0F0
:10907400AFC083F0B0C084F0B1C085F0000100013E
:10908400BA510001B86F00010001BB510001B96F72
:109094000001BA4BBB2B0001B8C086F00001B9C077
:1090A40087F00001000E000187BFFF0E0001886FEA
:1090B4000001896F000E000100018B6F000E00019A
:1090C4008A6F38EC5BF000010001815100018011CE
:1090D400D8B4DDD00001B86F000E00010001BE6FEE
:1090E4000001B8510F0E00010001BE6501D0BAD7CE
:1090F40000010001BE51200DF3CFBCF0F4CFBDF050
:109104000001ACC0B8F00001ADC0B9F0000100012D
:10911400BC510001B82700010001BD510001B92371
:10912400310E0001B82500010001BF6F000E0001DF
:10913400B9210001C06FBFC001F0C0C002F0DDEC76
:109144002BF002500110D8A499D0BFC001F0C0C0C8
:1091540002F026EC2EF002500110D8A48FD0BFC02C
:1091640001F0C0C002F05DEC30F002500110D8B440
:1091740085D0BFC001F0C0C002F0B2C003F0B3C0DC
:1091840004F0000E066E0B0E056E2EEC32F002504B
:109194000110D8A473D0000120EE1CF00001BF51CF
:1091A400D9260001C051DA220001B4C0DEFF00015B
:1091B400B5C0DEFF0001B6C0DEFF0001B7C0DEFFB0
:1091C4000001ACC0B8F00001ADC0B9F0000100016D
:1091D400BC510001B82700010001BD510001B923B1
:1091E400310E0001B825016E000E0001B921026E96
:1091F400BFC003F0C0C004F0000E066E200E056E62
:1092040052EC2EF0000122EE31F00001AC51D926CF
:109214000001AD51DA22DECF0AF0DECF0BF0DECF53
:109224000CF0DECF0DF0310E00010001AC250E6E06
:10923400000E00010001AD210F6E010E106E000E34
:10924400116E000E126E000E136E000120EE2BF054
:109254000001AC51D9260001AD51DA22DECFB8F0BD
:10926400DDCFB9F001D813D00500FA6E0001B85172
:10927400FD6EB951FE6EFF6AFA5012000001000142
:10928400BE2B0F0E00010001BE6532D7EBD61200D3
:10929400000E436E000E426E22EE3BF03450D9268F
:1092A400355063D022EE00F04450D9264550DA22DE
:1092B400DECF3AF0DECF3BF0DECF3CF0DECF3DF048
:1092C4003A50365C3B5037583C5038583D5039582A
:1092D400D8A024D022EE00F04450D9264550DA22FA
:1092E400DECF3AF0DECF3BF0DECF3CF0DECF3DF018
:1092F400010E3A243E6E000E3B203F6E000E3C20D1
:10930400406E000E3D20416E3E50365C3F50375853
:109314004050385841503958D8A030D022EE08F087
:109324004450D9264550DA22DE50DD10D8A414D09A
:1093340043504210D8B406D022EE08F04250D92649
:10934400435005D022EE3BF03450D9263550DA2272
:10935400000EDE6E000EDD6E44C042F045C043F0E8
:1093640022EE08F04450D9264550DA22DECF44F0EC
:10937400DDCF45F045504410D8A494D7455044104F
:10938400D8B429D022EE00F04450D9264550DA2230
:10939400DECF3AF0DDCF3BF03A1E3B1E3A4A3B2A81
:1093A40036503A2637503B22090ED8903A363B368F
:1093B400E82EFBD73A5044243C6E3B5045203D6E8A
:1093C40022EE06F04450D9264550DA223CC0DEFF96
:1093D4003DC0DDFF96D042C044F043C045F022EECC
:1093E4003BF03450D9263550DA2212EE08F04450BE
:1093F400E1264550E222DECFE6FFDDCFE5FF22EE97
:109404003BF03450D9263550DA2244C0DEFF45C043
:10941400DDFF22EE04F04450D9264550DA22DE5016
:10942400DD10D8B40ED034C020F035C021F044C0D3
:1094340022F045C023F01CEC42F021502010D8B497
:1094440051D022EE00F04450D9264550DA2236C0DD
:10945400DEFF37C0DEFF38C0DEFF39C0DEFF22EE9C
:1094640000F04450D9264550DA22DECF0AF0DECF90
:109474000BF0DECF0CF0DECF0DF044C00EF045C093
:109484000FF0010E106E000E116E000E126E000E23
:10949400136E20EE29F03450D9263550DA22DECF6F
:1094A4003AF0DDCF3BF001D809D00500FA6E3A500E
:1094B400FD6E3B50FE6EFF6AFA5012000B500A100C
:1094C400D8A415D022EE00F04450D9264550DA2213
:1094D400FF0EDE6EFF0EDE6EFF0EDE6EFF0EDD6E25
:1094E400DD52DD52000E356E000E346E0ED022EECB
:1094F40006F04450D9264550DA2244C0DEFF45C068
:10950400DDFF44C034F045C035F012000001FC6FAB
:10951400000E01010101866F0001FC5101010101EE
:10952400E351E211D8B4F0EC32F001010101E5514C
:10953400E411D8B40CD0010101017F517E11D8B4DB
:1095440006D00101010181518011D8A408D0000E78
:10955400010101017F6F000E01017E6F14D1000E25
:1095640001010101836F000E0101826F67D00101C7
:10957400010186815FD0010101018683010101019E
:1095840086891DD00101010186A104D001010101D8
:10959400868350D00101010186A304D00101010199
:1095A4008681ECD70101010186A544D001010101A6
:1095B4008681010101018683010101018685010182
:1095C4000101868B37D001010101868733D0010167
:1095D40080C1FCF0010181C1FDF001010101825152
:1095E4000001FC270101010183510001FD23FCC09E
:1095F400F6FFFDC0F7FF000EF86E0800F5502B0AC9
:10960400D8B4C0D76A0AD8B4D4D7030AD8B4DBD73D
:10961400100AD8B4ACD7050AD8B4ADD7360AD8B432
:10962400C8D7030AD8B4CFD7100AD8B4A0D7050A2C
:10963400D8B4A1D701010101824B832B80C101F071
:1096440081C102F050EC2DF0010101018351800A27
:109654000001FC6F015001010101825D0250800A8A
:109664000001FC59D8A0B3D7000E01010101856F98
:10967400000E0101846F29EE7BF0DE50DD10D8A4CA
:1096840004D0D90E01010101861729EE7DF0DE50C8
:10969400DD10D8B40BD001D809D00500FA6E7D5185
:1096A400FD6E7E51FE6EFF6AFA5012000101010147
:1096B40086A10CD07EC1F2F07FC1F3F0E4EC54F04B
:1096C4000001F2C084F10001F3C085F10101010140
:1096D40085518411D8A410D00101010186AB0CD0AE
:1096E4007EC14DF17FC14EF11EEC6AF001014DC106
:1096F40084F101014EC185F10101010186B11CD043
:109704000101010186AB18D00101010185518411C9
:10971400D8A412D0010101018651060BD8B40CD093
:109724007EC1F2F07FC1F3F0E4EC54F00001F2C02A
:1097340084F10001F3C085F1010101018551841117
:10974400D8B40CD0010122EE3FF001018451D92696
:1097540001018551DA22010186C1DFFF29EE7FF084
:10976400DE50DD10D8B40BD001D809D00500FA6E54
:109774007F51FD6E8051FE6EFF6AFA50120084C163
:109784007EF185C17FF1120000010001A751A411EF
:10979400A511A611D8B4D5D0000120EE1FF0000108
:1097A4009E51D92600019F51DA22DECFA8F0DECFE8
:1097B400A9F0DECFAAF0DECFABF00001A829D8B41F
:1097C400A929D8B4AA29D8B4AB29D8B40ED09EC03C
:1097D40046F09FC047F0FF0E486EFF0E496EFF0E25
:1097E4004A6EFF0E4B6E0AEC43F09EC0D9FF9FC039
:1097F400DAFFDF500001A86F0001A851016E026A70
:10980400020E046E000E036E57EC2CF0000101C032
:10981400ACF0000102C0ADF00001000E0001ADBFCC
:10982400FF0E0001AE6F0001AF6FA4C001F0A5C030
:1098340002F0A6C003F0A7C004F0ACC005F0ADC0B0
:1098440006F0AEC007F0AFC008F0ADEC32F004C0D3
:10985400B3F003C0B2F002C0B1F001C0B0F0ACC0CC
:1098640001F0ADC002F0AEC003F0AFC004F0B0C070
:1098740005F0B1C006F0B2C007F0B3C008F0CFECF9
:109884002DF0011E021E031E041E012A000E0222D8
:109894000322042200010001A4510001012500015A
:1098A400A86F00010001A551000102210001A96F68
:1098B40000010001A651000103210001AA6F00016B
:1098C4000001A751000104210001AB6F0001AB515D
:1098D400A811A911AA11D8B40DD0010E00010001DC
:1098E400B027000E0001B123000E0001B223000EC8
:1098F4000001B32300010001A151A011D8B456D036
:109904009EC046F09FC047F0000120EE05F0000124
:109914009E51D92600019F51DA22DECF48F0DECFD6
:1099240049F0DECF4AF0DECF4BF00001000E4D6E61
:109934000001B40E4C6EDCEC5FF047504610D8A426
:1099440006D0000E000100019F6F000E5CD00001E4
:109954000001B005B111B211B311D8A437D09EC023
:1099640046F09FC047F0B4C048F0B5C049F0B6C057
:109974004AF0B7C04BF0FF0E4C6EFF0E4D6EFF0E5B
:109984004E6EFF0E4F6E08EC4DF0A2C0D9FFA3C07F
:10999400DAFF0001B4C0DEFF0001B5C0DEFF000144
:1099A400B6C0DEFF0001B7C0DEFF28D0A2C0D9FFD9
:1099B400A3C0DAFF0001DECFB4F00001DECFB5F0C2
:1099C4000001DECFB6F00001DECFB7F09EC074F028
:1099D4009FC075F00001000E776E0001B40E766E24
:1099E400B0C078F0B1C079F0B2C07AF0B3C07BF007
:1099F400A7EC3EF075507410D8B4A3D7000E000144
:109A040000019F6F010E00019E6F120020EE28F0EE
:109A14004650D9264750DA22DF50D8A410D048C087
:109A240050F049C051F04AC052F04BC053F051C0FD
:109A340050F052C051F053C052F0536A11D048C094
:109A440050F049C051F04AC052F04BC053F0080ED8
:109A540005D0D8905332523251325032E82EF9D7D1
:109A640053C05BF052C05AF051C059F050C058F086
:109A740046C034F047C035F020EE11F04650D926E8
:109A84004750DA22DECF50F0DECF51F0DECF52F075
:109A9400DECF53F058505024366E59505120376E53
:109AA4005A505220386E5B505320396E4AEC49F0BC
:109AB40034C060F035C061F061506010D8B4F2D0A9
:109AC40020EE28F04650D9264750DA22DF50D8A499
:109AD40050D058C051F059C052F05AC053F0506A97
:109AE400501E511E521E531E502A000E5122522245
:109AF400532248505024546E49505120556E4A50B8
:109B04005220566E4B505320576ED89054345C6E8E
:109B140055345D6E56345E6E57345F6E22EE06F039
:109B24006050D9266150DA22DECF50F0DDCF51F0FB
:109B34005C505024D96E5D505120DA6E4CC0DFFF6A
:109B4400010E5C24506E000E5D20516E22EE06F074
:109B54006050D9266150DA22DECF52F0DDCF53F0C7
:109B640050505224D96E51505320DA6E4D50DF6E4E
:109B74008FD058C050F059C051F05AC052F05BC059
:109B840053F0070ED8905036513652365336E82EDD
:109B9400F9D7501E511E521E531E502A000E512238
:109BA4005222532248505024546E49505120556E2D
:109BB4004A505220566E4B505320576E020ED89086
:109BC4005436553656365736E82EF9D757C05FF017
:109BD40056C05EF055C05DF054C05CF022EE06F055
:109BE4006050D9266150DA22DECF50F0DDCF51F03B
:109BF4005C505024D96E5D505120DA6E4CC0DFFFAA
:109C0400010E5C24506E000E5D20516E22EE06F0B3
:109C14006050D9266150DA22DECF52F0DDCF53F006
:109C240050505224D96E51505320DA6E4DC0DFFF8C
:109C3400020E5C24506E000E5D20516E22EE06F082
:109C44006050D9266150DA22DECF52F0DDCF53F0D6
:109C540050505224D96E51505320DA6E4EC0DFFF5B
:109C6400030E5C24506E000E5D20516E22EE06F051
:109C74006050D9266150DA22DECF52F0DDCF53F0A6
:109C840050505224D96E51505320DA6E4FC0DFFF2A
:109C940022EE04F06050D9266150DA22010EDE6E05
:109CA400000EDD6E12001D681E6811C001F012C0A6
:109CB40002F050EC2DF001C019F002C01AF02E0E83
:109CC40011C0D9FF12C0DAFFDF6201D03FD10FC04B
:109CD40007F010C008F0000E0A6E200E096E000E88
:109CE4000C6E0B0E0B6EF1EC2BF0000E086E160EC4
:109CF400076E000E0A6E200E096E000E0C6E030E27
:109D04000B6EF1EC2BF0000E206E000E1F6E0FD0C8
:109D14001F501124D96E20501220DA6E2E0EDF62ED
:109D240004D01FC01DF020C01EF01F4A202A20505E
:109D3400800A136E19501F5C1A50800A1358D8A059
:109D4400E7D71D28D8B41E28D8B443D0010E1D244B
:109D54001F6E000E1E20206E28D02050800A136E25
:109D640019501F5C1A50800A1358D8B01CD01F50C9
:109D74001124D96E20501220DA6E010E1D24136EA8
:109D8400000E1E20146E131E141E134A142A1F5094
:109D9400132620501422160E1324E16E000E1420F4
:109DA400E26EDFCFE7FF1F4A202A040E1D24136E44
:109DB400000E1E20146E2050800A156E13501F5C76
:109DC4001450800A1558D8A0C8D71DC019F01EC059
:109DD4001AF0000E1C6E000E1B6E000E206E000E9C
:109DE4001F6E50D01F501124D96E20501220DA6EED
:109DF400DF50200AD8B43FD01F501124D96E205010
:109E04001220DA6EDF502E0AD8B435D01F50112438
:109E1400D96E20501220DA6E600EDF641CD01F5001
:109E24001124D96E20501220DA6EDF50136E7B0E8F
:109E3400135CD8B010D01B500F24D96E1C501020C6
:109E4400DA6E1F501124E16E20501220E26EE750AA
:109E5400E00FDF6E0ED01F501124D96E2050122057
:109E6400DA6E1B500F24E16E1C501020E26EDFCF1F
:109E7400E7FF1B4A1C2A1B50080A1C10D8B40CD03C
:109E84001F4A202A2050800A136E19501F5C1A5052
:109E9400800A1358D8A0A6D7000E206E080E1F6E95
:109EA4002050800A800F0B0ED8B41F5CD8B04ED05F
:109EB400F80E1F24136EFF0E2020146E160E1324AA
:109EC400D96E000E1420DA6E600EDF6428D0F80E0E
:109ED4001F24136EFF0E2020146E160E1324D96E49
:109EE400000E1420DA6EDF50156E7B0E155CD8B0B0
:109EF40016D01F500F24D96E20501020DA6EF80EA1
:109F04001F24136EFF0E2020146E160E1324E16E10
:109F1400000E1420E26EE750E00FDF6E14D0F80E4E
:109F24001F24136EFF0E2020146E160E1324D96EF8
:109F3400000E1420DA6E1F500F24E16E2050102002
:109F4400E26EDFCFE7FF1F4A202AAAD7120020EED5
:109F54002BF02050D9262150DA22DE50DD10D8B45F
:109F64005CD020EE28F02050D9262150DA22DF5090
:109F7400D8A4BCD02550221023102410D8A4B6D0C5
:109F840020EE0DF02050D9262150DA22DECF2CF01D
:109F9400DECF2DF0DECF2EF0DECF2FF02C50265C5E
:109FA4002D5027582E5028582F502958D8B035D026
:109FB40020EE09F02050D9262150DA22DECF2CF0F1
:109FC400DECF2DF0DECF2EF0DECF2FF020EE17F017
:109FD4002050D9262150DA22DECF30F0DECF31F006
:109FE400DECF32F0DECF33F02C503024346E2D50DF
:109FF4003120356E2E503220366E2F503320376E7E
:10A00400265034243C6E275035203D6E285036208F
:10A014003E6E295037203F6E05D0000E216E000E93
:10A02400206E0AD12B502A10D8B421D03CC00AF09B
:10A034003DC00BF03EC00CF03FC00DF02AC00EF046
:10A044002BC00FF0010E106E000E116E000E126E7A
:10A05400000E136E20EE2BF02050D9262150DA2268
:10A06400DECF2CF0DDCF2DF001D8E2D036D022EEB9
:10A0740031F02050D9262150DA223CC0DEFF3DC009
:10A08400DEFF3EC0DEFF3FC0DEFF22EE31F0205097
:10A09400D9262150DA22DECF0AF0DECF0BF0DECF54
:10A0A4000CF0DECF0DF0310E20240E6E000E2120B8
:10A0B4000F6E010E106E000E116E000E126E000E69
:10A0C400136E20EE2BF02050D9262150DA22DECF59
:10A0D4002CF0DDCF2DF001D8ABD00500FA6E2C505A
:10A0E400FD6E2D50FE6EFF6AFA5012002B502A109E
:10A0F400D8B443D020C00DF021C00EF022C00FF020
:10A1040023C010F024C011F025C012F08AEC38F0FE
:10A1140026500D24386E27500E20396E28500F20FB
:10A124003A6E295010203B6E38C00AF039C00BF04B
:10A134003AC00CF03BC00DF02AC00EF02BC00FF05B
:10A14400010E106E000E116E000E126E000E136ED4
:10A1540020EE2BF02050D9262150DA22DECF2CF02D
:10A16400DDCF2DF001D864D00500FA6E2C50FD6EC1
:10A174002D50FE6EFF6AFA50120020C00DF021C06F
:10A184000EF022C00FF023C010F024C011F025C03F
:10A1940012F08AEC38F026500D242C6E27500E2035
:10A1A4002D6E28500F202E6E295010202F6E22EE77
:10A1B40031F02050D9262150DA222CC0DEFF2DC0E8
:10A1C400DEFF2EC0DEFF2FC0DDFFD906D90622EE4A
:10A1D40031F02050D9262150DA22DECF0AF0DECF2A
:10A1E4000BF0DECF0CF0DECF0DF0310E20240E6E1E
:10A1F400000E21200F6E010E106E000E116E000E67
:10A20400126E000E136E20EE2BF02050D926215032
:10A21400DA22DECF2CF0DDCF2DF001D809D00500F5
:10A22400FA6E2C50FD6E2D50FE6EFF6AFA5012002D
:10A234000AC020F00BC021F012004B504810491006
:10A244004A10D8A408D0020E486E000E496E000EC3
:10A254004A6E000E4B6E20EE28F04650D926475029
:10A26400DA22DF50D8A410D048C04CF049C04DF0D9
:10A274004AC04EF04BC04FF04DC04CF04EC04DF0B4
:10A284004FC04EF04F6A11D048C04CF049C04DF059
:10A294004AC04EF04BC04FF0080E05D0D8904F3254
:10A2A4004E324D324C32E82EF9D74FC075F04EC0C5
:10A2B40074F04DC073F04CC072F046C034F047C027
:10A2C40035F020EE11F04650D9264750DA22DECF81
:10A2D4004CF0DECF4DF0DECF4EF0DECF4FF07250BB
:10A2E4004C24366E73504D20376E74504E20386EA9
:10A2F40075504F20396E4AEC49F034C07EF035C0B9
:10A304007FF07F507E10D8B46BD120EE28F04650F9
:10A31400D9264750DA22DF50D8A46ED072C04DF04F
:10A3240073C04EF074C04FF04C6A4C1E4D1E4E1E4E
:10A334004F1E4C2A000E4D224E224F2248504C24D0
:10A34400506E49504D20516E4A504E20526E4B5023
:10A354004F20536ED8905034766E5134776E523409
:10A36400786E5334796E010E76244C6E000E77208D
:10A374004D6E22EE06F07E50D9267F50DA22DECFD3
:10A384004EF0DDCF4FF04C504E24D96E4D504F203F
:10A39400DA6EDF50506E5050526E516A22EE06F063
:10A3A4007E50D9267F50DA22DECF53F0DDCF54F031
:10A3B40076505324D96E77505420DA6EDF50556EA0
:10A3C40055505126000E522251C07AF052C07BF0F3
:10A3D4007C6A7D6AF80E7A5CFF0E7B58000E7C580E
:10A3E400000E7D58D8A001D1000E7A5C000E7B5877
:10A3F400010E7C58000EF1D072C04CF073C04DF0C9
:10A4040074C04EF075C04FF0070ED8904C364D36E0
:10A414004E364F36E82EF9D74C1E4D1E4E1E4F1E9B
:10A424004C2A000E4D224E224F2248504C24506E8E
:10A4340049504D20516E4A504E20526E4B504F2081
:10A44400536E020ED8905036513652365336E82E9B
:10A45400F9D753C079F052C078F051C077F050C0AA
:10A4640076F0010E76244C6E000E77204D6E22EEAF
:10A4740006F07E50D9267F50DA22DECF4EF0DDCFB3
:10A484004FF04C504E24D96E4D504F20DA6EDF50B1
:10A49400506E50C051F0526A536A546A53C054F01B
:10A4A40052C053F051C052F0516A020E7624556ED8
:10A4B400000E7720566E22EE06F07E50D9267F508D
:10A4C400DA22DECF57F0DDCF58F055505724D96E3D
:10A4D40056505820DA6EDF50596E59C05AF05B6AF4
:10A4E4005C6A5D6A5BC05DF05AC05CF05B6A5A6A84
:10A4F400030E76245E6E000E77205F6E22EE06F069
:10A504007E50D9267F50DA22DECF60F0DDCF61F0B5
:10A514005E506024D96E5F506120DA6EDF50626E47
:10A5240062C063F0646A656A666A63C066F0656AFD
:10A53400646A636A5A506324676E5B506420686E71
:10A544005C506520696E5D5066206A6E51506724C8
:10A554006B6E525068206C6E535069206D6E54506F
:10A564006A206E6E22EE06F07E50D9267F50DA22E3
:10A57400DECF6FF0DDCF70F076506F24D96E775058
:10A584007020DA6EDF50716E71506B247A6E000E9B
:10A594006C207B6E000E6D207C6E000E6E207D6E36
:10A5A400FF0E7A147A6EFF0E7B147B6EFF0E7C1402
:10A5B4007C6E0F0E7D147D6EF80E7A5CFF0E7B5858
:10A5C400FF0E7C580F0E7D58D8A00FD0000E7A5C79
:10A5D400000E7B58000E7C58100E7D58D8B005D064
:10A5E400466847684868496808D07AC046F07BC026
:10A5F40047F07CC048F07DC049F0120009C0D9FF83
:10A604000AC0DAFFDF501F0B0E6E0A0E0E6401D073
:10A61400D8D10E6601D0D5D120EE33F00750D9261B
:10A624000850DA22DF50D8A408D020EE33F00750C7
:10A63400D9260850DA220EC0DFFF20EE01F00950BF
:10A64400D9260A50DA22FF0E0E24016E026AFF0E8A
:10A654000222000E046E050E036E57EC2CF001501E
:10A664000724E16E02500820E26EDFCFE7FF20EE00
:10A6740003F00950D9260A50DA22FF0E0E24016E87
:10A68400026AFF0E0222000E046E050E036E57ECE2
:10A694002CF0010E0126000E022201500724E16E67
:10A6A40002500820E26EDFCFE7FF20EE05F00950EC
:10A6B400D9260A50DA22FF0E0E24016E026AFF0E1A
:10A6C4000222000E046E050E036E57EC2CF0020EEF
:10A6D4000126000E022201500724E16E02500820D8
:10A6E400E26EDFCFE7FF20EE07F00950D9260A50CB
:10A6F400DA22FF0E0E24016E026AFF0E0222000E01
:10A70400046E050E036E57EC2CF0030E0126000EAA
:10A71400022201500724E16E02500820E26EDFCFCE
:10A72400E7FF20EE09F00950D9260A50DA22FF0E7D
:10A734000E24016E026AFF0E0222000E046E050E44
:10A74400036E57EC2CF0040E0126000E0222015079
:10A754000724E16E02500820E26EDFCFE7FF20EE0F
:10A764000EF00950D9260A50DA22FF0E0E24016E8B
:10A77400026AFF0E0222000E046E050E036E57ECF1
:10A784002CF0050E0126000E022201500724E16E72
:10A7940002500820E26EDFCFE7FF20EE10F00950F0
:10A7A400D9260A50DA22FF0E0E24016E026AFF0E29
:10A7B4000222000E046E050E036E57EC2CF0060EFA
:10A7C4000126000E022201500724E16E02500820E7
:10A7D400E26EDFCFE7FF20EE12F00950D9260A50CF
:10A7E400DA22FF0E0E24016E026AFF0E0222000E10
:10A7F400046E050E036E57EC2CF0070E0126000EB6
:10A80400022201500724E16E02500820E26EDFCFDD
:10A81400E7FF20EE14F00950D9260A50DA22FF0E81
:10A824000E24016E026AFF0E0222000E046E050E53
:10A83400036E57EC2CF0080E0126000E0222015084
:10A844000724E16E02500820E26EDFCFE7FF20EE1E
:10A8540016F00950D9260A50DA22FF0E0E24016E92
:10A86400026AFF0E0222000E046E050E036E57EC00
:10A874002CF0090E0126000E022201500724E16E7D
:10A8840002500820E26EDFCFE7FF20EE18F00950F7
:10A89400D9260A50DA22FF0E0E24016E026AFF0E38
:10A8A4000222000E046E050E036E57EC2CF00A0E05
:10A8B4000126000E022201500724E16E02500820F6
:10A8C400E26EDFCFE7FF20EE1CF00950D9260A50D4
:10A8D400DA22FF0E0E24016E026AFF0E0222000E1F
:10A8E400046E050E036E57EC2CF00B0E0126000EC1
:10A8F400022201500724E16E02500820E26EDFCFED
:10A90400E7FF20EE1EF00950D9260A50DA22FF0E86
:10A914000E24016E026AFF0E0222000E046E050E62
:10A92400036E57EC2CF00C0E0126000E022201508F
:10A934000724E16E02500820E26EDFCFE7FF0B6EC2
:10A94400000E0D6E0B503AD0FF0E0E24016E026AFB
:10A95400FF0E0222000E046E050E036E57EC2CF05F
:10A96400015007240B6E025008200C6E0D50010D8F
:10A97400F3500B24D96EF4500C20DA6EFF0EDF6214
:10A984001CD0FF0E0E24016E026AFF0E0222000E7E
:10A99400046E050E036E57EC2CF0015007240B6E69
:10A9A400025008200C6E0D50010DF3500B24D96E8B
:10A9B400F4500C20DA6E200EDF6E0D2A040E0D64A6
:10A9C400C3D71200FAEC2DF011C06DF112C06EF174
:10A9D400010101016E516D11D8B4D8D1120E0101DB
:10A9E40001016D25076E000E010101016E21086E43
:10A9F400000E0A6E000E096E000E0C6E0A0E0B6E2F
:10AA0400F1EC2BF01C0E010101016D25076E000E07
:10AA1400010101016E21086E000E0A6E000E096E1E
:10AA2400000E0C6E0A0E0B6EF1EC2BF0F2C01BF054
:10AA3400F3C01CF0120E010101016D251D6E000E04
:10AA4400010101016E211E6E000E206E0A0E1F6EA2
:10AA54001C0E010101016D25216E000E0101010191
:10AA64006E21226E000E246E0A0E236EFFEC36F069
:10AA74001B28D8B41C28D8A407D06DC111F06EC10E
:10AA840012F074EC2CF082D16DC125F06EC126F069
:10AA940064EC34F026502510D8B407D06DC111F001
:10AAA4006EC112F074EC2CF071D1010120EE12F0A1
:10AAB40001016D51D92601016E51DA22DF50D8A46B
:10AAC40015D0090E026E500E016E74EC2BF06DC1A0
:10AAD400D9FF6EC1DAFF01C0DEFF02C0DEFF03C092
:10AAE400DEFF04C0DDFFD906D90621D0120E010114
:10AAF40001016D2500010001B86F000E0101010183
:10AB04006E210001B96F6DC1BAF06EC1BBF058EC93
:10AB140040F000010001B9510001B811D8A407D0D8
:10AB24006DC111F06EC112F074EC2CF02FD1090E2E
:10AB340000010001AD6F500E0001AC6F6DC1D9FF73
:10AB44006EC1DAFF0001DECFAEF00001DECFAFF060
:10AB54000001DECFB0F00001DECFB1F01C0E010128
:10AB640001016D2500010001B26F000E0101010118
:10AB74006E210001B36F0101010E00010001B56FE8
:10AB840001014D0E0001B46FD0EC56F0000100013C
:10AB9400AF51AC11AD11AE11D8B4F2D00101010E18
:10ABA400026E01014D0E016ECAEC2BF00250011031
:10ABB400D8B4E6D0260E010101016D25016E000E08
:10ABC400010101016E21026E0101010E046E0101F9
:10ABD4004D0E036E000E066E0B0E056E52EC2EF03B
:10ABE400010120EE0CF001016D51D92601016E51D5
:10ABF400DA22010169C1DEFF01016AC1DEFF010140
:10AC04006BC1DEFF01016CC1DEFF010120EE08F023
:10AC140001016D51D92601016E51DA22000EDE6E5A
:10AC2400000EDE6E000EDE6E000EDD6EDD52DD52B5
:10AC34000101010161510001F46F0101010162513F
:10AC44000001F56F0001F66B0001F76BF5C0F7F03A
:10AC5400F4C0F6F00001F56BF46B010101016751DA
:10AC64000001F4250001F86F0101010168510001A0
:10AC7400F5210001F96F000E0001F6210001FA6FC1
:10AC8400000E0001F7210001FB6F010120EE04F02A
:10AC940001016D51D92601016E51DA22F8C0DEFF9F
:10ACA400F9C0DEFFFAC0DEFFFBC0DDFFD906D9061E
:10ACB400010122EE39F001016D51D92601016E51D5
:10ACC400DA22FF0EDE6EFF0EDE6EFF0EDE6EFF0E6C
:10ACD400DD6EDD52DD52010122EE3DF001016D51C8
:10ACE400D92601016E51DA22000EDE6E000EDD6EF1
:10ACF400010120EE10F001016D51D92601016E51C0
:10AD0400DA22000EDE6E000EDD6E010120EE31F05F
:10AD140001016D51D92601016E51DA22FF0EDE6E5A
:10AD2400FF0EDE6EFF0EDE6EFF0EDD6EDD52DD52B7
:10AD3400010120EE35F001016D51D92601016E515A
:10AD4400DA22FF0EDE6EFF0EDE6EFF0EDE6EFF0EEB
:10AD5400DD6EDD52DD52090E026E500E016E6DC1C4
:10AD640003F06EC104F023EC2BF0090E356E500E87
:10AD7400346E7EEC2EF06DC1F2F06EC1F3F00DD0A6
:10AD84006DC111F06EC112F074EC2CF0000E0001D4
:10AD94000001F36F000E0001F26F12000001B66FA4
:10ADA400000E01010101156F0001B651000E0101F1
:10ADB4000101146F000E0101136F0001B66F000E44
:10ADC40001010101186F0001B651000E01010101DA
:10ADD4000E6F000E01010D6F000E01010101106FD5
:10ADE400000E01010F6F000E01010101126F000E30
:10ADF4000101116F0101010E106E0101190E0F6E98
:10AE0400000E126E010E116E3BEC31F0ACC080F0FE
:10AE1400ADC081F0AEC082F0AFC083F0B0C084F0AA
:10AE2400B1C085F0010101010D510001B66F0101AE
:10AE340001010E510001B76F01010D4B0E2B0001F2
:10AE4400B6C086F00001B7C087F00001000E000113
:10AE540087BFFF0E0001886F0001896F000E00019B
:10AE640000018B6F000E00018A6F38EC5BF000016B
:10AE74000001815100018011D8B4A3D10001B66F43
:10AE8400000E01010101156F0001B6510F0E010101
:10AE94000101156501D0BAD7010101011551200D39
:10AEA400F3CF13F1F4CF14F10001ACC0B6F00001FC
:10AEB400ADC0B7F00101010113510001B627010132
:10AEC400010114510001B723310E0001B62501011F
:10AED4000101166F000E0001B7210101176F16C1A1
:10AEE40001F017C102F0DDEC2BF002500110D8B4D0
:10AEF40021D00101010E086E0101190E076E000137
:10AF0400ACC0B6F00001ADC0B7F0010101011351AE
:10AF14000001B6270101010114510001B723310ECC
:10AF24000001B625096E000E0001B7210A6E00EC7F
:10AF340053F03ED116C101F017C102F026EC2EF0F9
:10AF440002500110D8B40DD00101010E106E0101A0
:10AF5400190E0F6E000E126E000E116E3BEC31F0E6
:10AF640027D10101010E026E0101190E016E16C1F5
:10AF740003F017C104F0EFEC31F002500110D8B423
:10AF840036D00101010E026E0101190E016EF3ECBF
:10AF94002FF001C00FF102C010F10FC113F010C166
:10AFA40014F0B2C015F0B3C016F07DEC3FF01450AD
:10AFB4001310D8B40FD0B4C001F0B5C002F016C15C
:10AFC40003F017C104F0000E066E200E056E52EC5D
:10AFD4002EF0E0D00101010E106E0101190E0F6E6A
:10AFE400000E126E000E116E3BEC31F0E1D016C172
:10AFF40001F017C102F05DEC30F002500110D8B43A
:10B00400D7D00101010E086E0101000E076E000E7B
:10B014000A6E000E096E000E0C6E0D0E0B6EF1EC36
:10B024002BF00001B66F000E01010101186F000141
:10B03400B6511FD0010101011851010DF350010156
:10B0440001011625D96EF450010101011721DA6EB0
:10B05400010101011851010D0101000EF324E16EFB
:10B064000101010EF420E26EDFCFE7FF01010101CF
:10B07400182B070E010101011865DCD7000E010130
:10B084000101126F000E0101116F0001B66F080E6D
:10B0940001010101186F0001B65141D00101010104
:10B0A4001851010DF350010101011625D96EF45018
:10B0B400010101011721DA6E01010101185100019A
:10B0C400B66FB76B010E0001B627000EB72301015E
:10B0D400000E0001B625E16E0101010E0001B72149
:10B0E400E26EDFCFE7FF010101011851010DF350BA
:10B0F400010101011625D96EF45001010101172146
:10B10400DA6EDF50200AD8B407D0000E0101010125
:10B11400126F010E0101116F01010101182B0A0EBA
