:0400000042EF29F0B2
:104FD00095988388958A838A120001C0F5F002C0F3
:104FE000F6F01200636865636B2E747874008A981B
:104FF000FF0E28EC28F08A8812008A9814EC28F01A
:10500000026E8A8802501200016EFA0E00F0E82E3D
:10501000FDD7012EFAD71200016E210EE82EFED721
:1050200000F0012EFAD71200C9CF01F09E96C96890
:105030009EA6FED7C9501200026EC9CF01F09E96FF
:10504000C69E02C0C9FFC6BE02D09EA6FED71200F1
:10505000026EC9CF01F09E96C69E02C0C9FFC6BEB1
:1050600002D09EA6FED71200026E000E036E04D080
:10507000050E04EC28F0032A0350025CD8A01200AD
:10508000F7D7050E0CEC28F000F000F000F000F06F
:1050900000F000F000F000F000F01200046E000ECE
:1050A000056E0BD0000E066E04D0640E34EC28F0B2
:1050B000062A090E0664F9D7052A0450055CD8B003
:1050C0001200F0D702C008F001C007F008D007C0F6
:1050D000D9FF08C0DAFF03C0DFFF074A082A050628
:1050E000D8A006060528D8B40628D8B41200EFD7F1
:1050F000086EFF0E1CEC28F0085040091CEC28F04C
:1051000006501CEC28F005501CEC28F004501CEC58
:1051100028F003501CEC28F007501CEC28F012007B
:10512000036E080E046E839841EC28F00ED003C085
:1051300002F0010E0216023A83500218EF0B021819
:10514000836E41EC28F0D890033204060428D8A4DA
:10515000EED7838841EC28F01200000E086E000E96
:10516000076E010E34EC28F08A80000E086E000EE7
:10517000076E07D08A88FF0E28EC28F08A98074A25
:10518000082A0850800A066E0450075C0550800A01
:105190000658D8B01200EED7000E066E000E076E4D
:1051A000000E086E000E056E000E046EC69A0F0EFD
:1051B000C16E070EB412929A899A9398020E066EE7
:1051C000000E076E000E086E07C001F008C002F066
:1051D000065017EC29F01200000E096E000E0A6E40
:1051E000000E0B6E000E0C6E01A008D005500926B3
:1051F00006500A2207500B2208500C22D890053680
:10520000063607360836D8900432033202320132AD
:105210000450011002100310D8A4E6D709C001F011
:105220000AC002F00BC003F00CC004F01200036EC1
:105230003F0EC716000EC66E0350C6120250C712AC
:1052400005D0C78C13D0C78CC68810D00150000A77
:10525000D8B4F7D7020AD8B4F6D7010AD8B4F4D72D
:1052600005D0928A93820AD0939208D00350040A00
:10527000D8B4F7D7010AD8B4F5D7F6D79380949E5F
:10528000C68A120001EE6EF016EE00F0EE6AE550EE
:10529000E150FCE1E250FAE101EE00F0640EEE6A4A
:1052A000E806FDE100EEEFF00E0EEE6AE806FDE125
:1052B000E40EF66E4F0EF76E000EF86E01EE64F01F
:1052C00010EE0AF00900F5CFEEFFE550E150FAE1EB
:1052D000000EF86E0001B0EF30F005C0F6FF06C01A
:1052E000F7FFF86A070EF76403D00800F55005D001
:1052F000F6CFE9FFF7CFEAFFEF5090EC28F005502A
:10530000076E0650086E054A062A07C0F6FF08C059
:10531000F7FFF86A070EF76403D00800F55005D0D0
:10532000F6CFE9FFF7CFEAFFEF500009D8B412003B
:10533000D4D702C00BF001C00AF004C00DF003C0C6
:105340000CF0000E0F6E000E0E6E0506D8A00606BD
:105350000528D8B40628D8B41FD00CC0D9FF0DC07A
:10536000DAFF0C4A0D2ADF50076E086A071E081E76
:10537000074A082A0AC0D9FF0BC0DAFF0A4A0B2ADB
:10538000DF50096E095007240E6E000E08200F6EC4
:105390000F500E10D8B4D9D70EC001F00FC002F0D4
:1053A0001200000E0A6E000E096E000E0C6E000E4A
:1053B0000B6E000E056E080E046EADEC28F0000EAC
:1053C000036E000E046E000E056E000E066E950E46
:1053D000076E400E78EC28F0F7EC27F0FDEC27F094
:1053E0000D6E0B4A0C2A0D04D8B408D00C50800A5C
:1053F000800F0A0ED8B40B5CD8A0F0D7000E0C6E4C
:10540000000E0B6E0D04D8A4D4D77F0E066EA40E2A
:10541000056E6DEC29F0020E4EEC28F01200000E25
:10542000096E000E0A6E000E0B6E000E0C6E085018
:10543000051006100710D8B42AD0010E0D6E06D044
:10544000D89005360636073608360D2A08AEF8D746
:10545000D89009360A360B360C360550015C0650DA
:1054600002580750035808500458D8A009D00550D6
:10547000015E0650025A0750035A0850045A098028
:10548000D89008320732063205320D2EE1D709C016
:1054900001F00AC002F00BC003F00CC004F01200CF
:1054A0000001F4C00EF00001F3C00DF0000E0F6E0D
:1054B000000E106E000E116E000E126E030E0DC067
:1054C000D9FF0EC0DAFFDF6225D020EE15F00150C3
:1054D000D9260250DA22DF50056E0550076E066AA3
:1054E00020EE14F00150D9260250DA22DF50086E67
:1054F00008500612000E071206C00FF007C010F089
:10550000116A126A100ED8900F3610361136123604
:10551000E82EF9D720EE1BF00150D9260250DA22EE
:10552000DF50056E0550076E066A20EE1AF0015036
:10553000D9260250DA22DF50086E08500610096E94
:1055400007500A6E0B6A0C6A09500F120A501012AB
:105550000B5011120C5012120FC001F010C002F0CB
:1055600011C003F012C004F012000001F4C01BF0DF
:105570000001F3C01AF0020E0D5E000E0E5A0F5A13
:10558000105A20EE06F01A50D9261B50DA22FE0ED1
:10559000DE24116EFF0EDE20126EFF0EDE20136E73
:1055A000FF0EDE20146E11500D5C12500E58135079
:1055B0000F5814501058D8A008D0000E0D6E000ED1
:1055C0000E6E000E0F6E000E38D020EE12F01A5044
:1055D000D9261B50DA22DECF11F0DECF12F0DECF5B
:1055E00013F0DECF14F020EE02F01A50D9261B5033
:1055F000DA22DF50156E1550016E026A036A046AE2
:105600000DC005F00EC006F00FC007F010C008F086
:10561000ECEC28F001C016F002C017F003C018F03F
:1056200004C019F0115016240D6E125017200E6E82
:10563000135018200F6E14501920106E120059C00C
:105640001DF058C01CF02CEC2CF05F6E5F50D8A4FD
:105650006FD05BC00AF05AC009F020EE0CF0585031
:10566000D9265950DA22DECF0BF0DECF0CF0DECF98
:105670000DF0DECF0EF058C0D9FF59C0DAFFDECFF3
:105680005CF0DDCF5DF00F0E5C16000E5D16050EB2
:10569000D8905C365D36E82EFBD75CC00FF05DC05D
:1056A00010F0000E126E200E116EBAEC32F00009EE
:1056B000D8B402D0010E01D0000E5F6E5F50D8A4A6
:1056C00037D05AC0D9FF5BC0DAFFDF505E6E5E662E
:1056D00003D0030E5F6E2CD020EE0BF05A50D9266B
:1056E0005B50DA22DF505C6E5CB618D05BC002F013
:1056F0005AC001F020EE02F05850D9265950DA2253
:10570000DECF03F0DDCF04F0000E066E0B0E056E4B
:1057100099EC29F002500110D8B40AD059C048F0D1
:1057200058C047F0B3EC31F05F6E5F50D8B491D7FA
:105730005F501200000E156E000E146E010E4EEC3E
:1057400028F0000E056E080E046EADEC28F00CC0BB
:1057500010F00DC011F00EC012F00FC013F0090EC2
:10576000D8901036113612361336E82EF9D710C0FD
:1057700003F011C004F012C005F013C006F0000ED3
:10578000076E580E78EC28F0F7EC27F0FDEC27F0C8
:10579000186E1866FBD7020E4EEC28F0000E056E50
:1057A000080E046EADEC28F0FE0E1CEC28F0000E86
:1057B000176E000E166E1750800A7E0F000ED8B4BA
:1057C000165CD8B022D009C0F6FF0AC0F7FF0BC0A4
:1057D000F8FF0800F5500009D8B411D009C0F6FF51
:1057E0000AC0F7FF0BC0F8FF0800F5501CEC28F0CA
:1057F000010E0926000E0A22000E0B2203D0000E15
:105800001CEC28F0164A172AD6D7FF0E1CEC28F0FD
:10581000FF0E1CEC28F0F7EC27F0010E4EEC28F000
:10582000000E056E080E046EADEC28F0000E036E3F
:10583000000E046E000E056E000E066E000E076E62
:105840004D0E78EC28F0F7EC27F0FDEC27F0186E01
:105850001866FBD7000E12000001F4C027F000010B
:10586000F3C026F01CC0D9FF1DC0DAFF000EDE6EAB
:10587000000EDD6E20EE04F01C50D9261D50DA22F9
:10588000DECF28F0DECF29F0DECF2AF0DECF2BF0FE
:10589000280429102A102B10D8B418D020EE06F0B6
:1058A0002650D9262750DA22DECF1EF0DECF1FF099
:1058B000DECF20F0DECF21F01E50285C1F5029588B
:1058C00020502A5821502B58D8A002D0010E5FD06A
:1058D0002B50281029102A10D8A415D0030E26C04A
:1058E000D9FF27C0DAFFDF620ED020EE0EF026507F
:1058F000D9262750DA22DECF28F0DECF29F0DECFFE
:105900002AF0DECF2BF020EE08F01C50D9261D50D7
:10591000DA2228C0DEFF29C0DEFF2AC0DEFF2BC04E
:10592000DEFF2B50281029102A10D8A40FD020EE0B
:105930000EF02650D9262750DA22DECF22F0DECF15
:1059400023F0DECF24F0DECF25F012D028C00DF0FA
:1059500029C00EF02AC00FF02BC010F0B5EC2AF0D1
:105960000DC022F00EC023F00FC024F010C025F0AF
:1059700020EE0CF01C50D9261D50DA2222C0DEFF8A
:1059800023C0DEFF24C0DEFF25C0DEFF000E1200B4
:1059900020EE02F00950D9260A50DA22DECF19F0A3
:1059A000DDCF1AF01AC002F019C001F0000E046E2B
:1059B000200E036E000E066E0B0E056E62EC28F0D4
:1059C000000E1B6E1BC018F0080E176E0BC0D9FF1F
:1059D0000CC0DAFFDECF15F0DDCF16F01850010D48
:1059E00015C00DF016C00EF0F3500D26F4500E2227
:1059F0000DC0F6FF0EC0F7FF0800F5CF1CF0182A07
:105A0000200E1C6445D01C502F0AD8B441D01C5025
:105A10002E0AD8B404D017501B5CD8A00DD0175054
:105A2000080AD8A435D01C502E0AD8A431D0080EAC
:105A30001B6E0B0E176ED2D77F0E1C6414D0800E17
:105A40000D6EFF0E0E6E1C500F6E106A0D500F265D
:105A50000E501022510E0F24F66E7D0E1020F76EA0
:105A60000800F5CF1CF0600E1C6406D07B0E1C5C99
:105A7000D8B002D0200E1C5E1B50010DF35019242B
:105A8000D96EF4501A20DA6E1CC0DFFF1B2AA6D78D
:105A90001850010D15C00DF016C00EF0F3500D2674
:105AA000F4500E220BC0D9FF0CC0DAFF0DC0DEFF90
:105AB0000EC0DDFF20EE0BF01950D9261A50DA2265
:105AC000200EF36A1C64F32AF3CF0DF00D50DF6E45
:105AD000000E120020C00AF01FC009F021C00BF018
:105AE00022C00CF023C00DF024C00EF0010E106E89
:105AF000FE0E0F6E000E126E020E116EBAEC32F038
:105B00000009D8B402D0030E8BD020EE01F01F5054
:105B1000D9262050DA22DF50256E2550276E266ABE
:105B20001FC0D9FF20C0DAFFDF50286E2850261290
:105B3000000E27122750AA0A550ED8B42618D8B43A
:105B400002D0020E6DD020C00AF01FC009F021C0A3
:105B50000BF022C00CF023C00DF024C00EF0000E9C
:105B6000106E360E0F6E000E126E020E116EBAEC33
:105B700032F00009D8A41CD020EE01F01F50D92625
:105B80002050DA22DF50256E2550276E266A1FC06E
:105B9000D9FF20C0DAFFDF50286E28502612000EF1
:105BA00027122750410A460ED8B42618D8B435D04B
:105BB00020C00AF01FC009F021C00BF022C00CF079
:105BC00023C00DF024C00EF0000E106E520E0F6EAA
:105BD000000E126E020E116EBAEC32F00009D8A45B
:105BE0001ED020EE01F01F50D9262050DA22DF50BF
:105BF000256E2550276E266A1FC0D9FF20C0DAFF08
:105C0000DF50286E28502612000E27122750410A16
:105C1000460ED8B42618D8A402D0000E01D0010E2A
:105C2000120003D00001644B652B000164C0F6FF35
:105C3000000165C0F7FF0800F550200AD8B4F2D77C
:105C4000000164C0F6FF000165C0F7FF0800F550D1
:105C50002F0AD8A403D00001644B652B000120EE6D
:105C600004F000016051D92600016151DA22DE6A98
:105C7000DE6ADE6ADD6A200E000164C0F6FF000104
:105C800065C0F7FF0800F5CF66F00001665DD8B08B
:105C900011D0000161C01DF0000160C01CF02CECAF
:105CA0002CF000016A6F62C0D9FF63C0DAFF000EFA
:105CB000DF6E71D0000161C00AF0000160C009F020
:105CC0000001000E0C6E0001640E0B6EC8EC2CF08F
:105CD00000016A6F00016A51D8A45DD0000161C063
:105CE00059F0000160C058F0000163C05BF0000192
:105CF00062C05AF01FEC2BF000016A6F00016A517C
:105D0000D8A449D0000120EE02F000016051D9264C
:105D100000016151DA2210EE0BF0DE50E126DD5079
:105D2000E222E750D8A437D0000120EE0BF00001AA
:105D30006251D92600016351DA22DF500001666FFB
:105D4000000166B904D0030E00016A6F24D000017F
:105D500063C002F0000162C001F050EC2AF001C003
:105D600066F002C067F003C068F004C069F000018B
:105D700020EE04F000016051D92600016151DA22C1
:105D800066C0DEFF67C0DEFF68C0DEFF69C0DDFF02
:105D9000D906D9068FD700016A511200000E0F6E86
:105DA000000E0E6E000E116E000E106E000E146EC0
:105DB000000E136ED1EC29F0F40E34EC28F0000E36
:105DC000056E080E046EADEC28F0000E036E000E9A
:105DD000046E000E056E000E066EFF0E076E410E7D
:105DE00078EC28F0F7EC27F0FDEC27F0156E1504A1
:105DF000D8A4FAD7010E4EEC28F0F7EC27F01504E2
:105E0000D8A477D0010E34EC28F0000E116E000EED
:105E1000106E000E146E000E136E000E056E080E4E
:105E2000046EADEC28F0000E036E000E046E000E42
:105E3000056E000E066E950E076E770E78EC28F054
:105E40001568FDEC27F0156E134A142A1504D8B412
:105E500008D01450800A800F0A0ED8B4135CD8A062
:105E6000F0D7010E34EC28F0000E146E000E136E05
:105E7000000E056E080E046EADEC28F0000E036EE9
:105E8000000E046E000E056E400E066E950E076E37
:105E9000690E78EC28F01568F7EC27F0FDEC27F098
:105EA000156E134A142A1550D8B408D01450800A1D
:105EB000800F0A0ED8B4135CD8A0F0D71566A9D706
:105EC000000E116E000E106E010E34EC28F0000E64
:105ED000126E7F0E066EE20E056E6DEC29F07F0EDF
:105EE000066ECA0E056E6DEC29F0020E4EEC28F01F
:105EF0000FD01550050AD8A40BD0010E126E7F0EDC
:105F0000066EDA0E056E6DEC29F0030E4EEC28F0ED
:105F1000010E4EEC28F0000E056E080E046EADEC7E
:105F200028F0000E036E020E046E000E056E000EC9
:105F3000066EFF0E076E500E78EC28F0F7EC27F097
:105F4000FDEC27F0156E1566FBD77E0E066E8F0EE4
:105F5000056E6DEC29F0020E4EEC28F07F0E066EF9
:105F6000710E056E6DEC29F0125012000001F4C0A4
:105F7000B1F00001F3C0B0F00001B151B011D8A4EC
:105F800002D0050EECD0000120EE01F00001B0516E
:105F9000D9260001B151DA22000EDF6E0001000E99
:105FA0000001B56F0001830E0001B46F0001000E07
:105FB0000001616F0001B20E0001606F0001000E70
:105FC0000001636F00018F0E0001626F7F0E000100
:105FD000656FE50E0001646F11EC2EF00001AF6FEC
:105FE0000001AF51D8B403D00001AF51B8D00001C7
:105FF0008F51D8B403D000019AA902D0030EAFD0BC
:106000000001000E026E00018F0E016E50EC2AF0AE
:1060100001C06DF002C06EF003C06FF004C070F0FC
:10602000000120EE1EF00001B051D9260001B1514F
:10603000DA226DC0DEFF6EC0DEFF6FC0DEFF70C013
:10604000DDFFD906D9060001AC5100016E6F6D6B02
:106050000001ADC06FF00001706B716B726B70C0AE
:1060600072F06FC071F00001706B6F6B0001AEC019
:1060700073F00001746B756B766B73C076F0000182
:10608000756B746B736B00016F510001731100012C
:10609000776F00017051000174110001786F0001E9
:1060A0007151000175110001796F000172510001F9
:1060B000761100017A6F00016D5100017711000126
:1060C0007B6F00016E510001781100017C6F000EA2
:1060D0000001791100017D6F000E00017A110001AD
:1060E0007E6F0001AB5100017B1100017F6F000149
:1060F0007C510001806F00017D510001816F000122
:106100007E510001826F000120EE1AF00001B051B3
:10611000D9260001B151DA227FC0DEFF80C0DEFF48
:1061200081C0DEFF82C0DDFFD906D906000120EE66
:1061300016F00001B051D9260001B151DA22DE6A11
:10614000DE6ADE6ADD6A000120EE01F00001B05176
:10615000D9260001B151DA22010EDF6E000E1200C5
:10616000CCEC28F0E8EC27F07E0E066E450E056EAE
:106170006DEC29F0F7EC27F00001000E2A6E00010B
:10618000C50E296EFDEC3AF00001C46F0001C46732
:10619000AFD07F0E066E540E056E6DEC29F0010136
:1061A000010E066E0101640E056E6DEC29F07E0E87
:1061B000066E410E056E6DEC29F07F0E066EB90E6F
:1061C000056E6DEC29F07F0E00016C6FE50E00018D
:1061D0006B6FB6EC2FF00001C46F0001C46776D07E
:1061E0007E0E066EB30E056E6DEC29F07F0E486EC6
:1061F000EF0E476E000E4A6E050E496E0001000E4E
:106200004C6E0001C20E4B6E4CEC38F00001C46FB6
:106210000001C46707D07F0E066E8D0E056E6DEC13
:1062200029F012D07E0E066ED50E056E6DEC29F0AB
:106230000001C451300F90EC28F07E0E066E410E26
:10624000056E6DEC29F0FFD77E0E066EF70E056E1B
:106250006DEC29F0000E026E010E016EEDEC27F0E0
:106260000101010E486E0101440E476E000E4A6E98
:106270001F0E496E0001000E4C6E0001C20E4B6EE7
:106280001EEC36F00001C46F0001C4670DD001019F
:10629000440E0001C225D96E0101010E0001C32187
:1062A000DA6E000EDF6E36D07F0E066E180E056EAB
:1062B0006DEC29F00001C451300F90EC28F07E0EF7
:1062C000066E410E056E6DEC29F0FFD77F0E066E4F
:1062D000360E056E6DEC29F00001C451300F90ECC4
:1062E00028F07E0E066E410E056E6DEC29F0FFD78C
:1062F0007E0E066E6A0E056E6DEC29F00001C4512B
:10630000300F90EC28F07E0E066E410E056E6DEC9F
:1063100029F0FFD77F0E066EF70E056E6DEC29F0A3
:106320007D0E066ED10E056E6DEC29F00001C45194
:10633000D8B412D07D0E066EF80E056E6DEC29F005
:106340000001C451300F90EC28F07E0E066E410E15
:10635000056E6DEC29F0FFD77E0E066E1F0E056EE2
:106360006DEC29F0FFD70001F4C051F00001F3C03B
:1063700050F047C0D9FF48C0DAFFDECF49F0DDCF8B
:106380004AF0010E4924566E000E4A20576E5750AF
:106390005610D8B4B3D020EE0CF04750D926485050
:1063A000DA22DECF49F0DECF4AF0DECF4BF0DECF8F
:1063B0004CF04C5049104A104B10D8B49FD00F0EDF
:1063C0005614496E000E57144A6E4A504910D8A40C
:1063D000C7D020EE0CF04750D9264850DA22DE2AEA
:1063E000000EDE22DE22DD2220EE08F04750D92604
:1063F0004850DA22DECF49F0DECF4AF0DECF4BF054
:10640000DECF4CF04C5049104A104B10D8A411D09C
:1064100020EE04F05050D9265150DA22DECF49F058
:10642000DDCF4AF04950565C4A505758D8A098D012
:1064300065D056C049F057C04AF0040E4B6ED89054
:106440004A3249324B2EFBD7FF0E4C6EFF0E4D6E7B
:1064500020EE02F05050D9265150DA22DF504E6E15
:106460004F6A4C504E264D504F2249504E164A50BE
:106470004F164F504E10D8A473D020EE08F047505E
:10648000D9264850DA22DECF1FF0DECF20F0DECF53
:1064900021F0DECF22F035EC34F01FC052F020C0E6
:1064A00053F021C054F022C055F0020E496E4A6AE2
:1064B0004B6A4C6A4950525C4A5053584B5054589E
:1064C0004C505558D8B002D0010E53D020EE06F0F3
:1064D0005050D9265150DA22DECF49F0DECF4AF0B3
:1064E000DECF4BF0DECF4CF04950525C4A5053584F
:1064F0004B5054584C505558D8A002D0030E39D0A8
:1065000020EE08F04750D9264850DA2252C0DEFF6C
:1065100053C0DEFF54C0DEFF55C0DEFF52C00DF099
:1065200053C00EF054C00FF055C010F0B5EC2AF077
:106530000DC049F00EC04AF00FC04BF010C04CF037
:1065400020EE0CF04750D9264850DA2249C0DEFF31
:106550004AC0DEFF4BC0DEFF4CC0DDFFD906D906C6
:1065600047C0D9FF48C0DAFF56C0DEFF57C0DDFF85
:10657000000E1200000E176E10500F10D8A48CD011
:106580000BC013F00CC014F00DC015F00EC016F0C7
:10659000090ED8901336143615361636E82EF9D76C
:1065A00013C018F014C019F015C01AF016C01BF073
:1065B000010E4EEC28F0000E056E080E046EADECD8
:1065C00028F018C003F019C004F01AC005F01BC071
:1065D00006F0000E076E520E78EC28F0F7EC27F06C
:1065E000FDEC27F01C6E1C66FBD7010E4EEC28F06C
:1065F000F7EC27F0FDEC27F01C6E1C50FE0AD8A427
:10660000F9D7000E1E6E000E1D6E0BD06E0E1D24EF
:10661000D96E050E1E20DA6EFDEC27F0DF6E1D4AE6
:106620001E2A11501D5C12501E58D8A0EFD7010E23
:106630004EEC28F0000E056E080E046EADEC28F04E
:10664000000E036E000E046E000E056E000E066E48
:10665000000E076E4C0E78EC28F0F7EC27F0FDECFE
:1066600027F01C6E1C28D8A4FAD7000E1E6E000E50
:106670001D6E02D01D4A1E2A6E0E1D24D96E050EF7
:106680001E20DA6EDF50D8A4F5D709C0D9FF0AC0A2
:10669000DAFF1DC0DFFFE7D00BC013F00CC014F011
:1066A0000DC015F00EC016F0090ED8901336143632
:1066B00015361636E82EF9D713C018F014C019F0A5
:1066C00015C01AF016C01BF0000E1E6E000E1D6ED7
:1066D0000AD06E0E1D24D96E050E1E20DA6E000E35
:1066E000DF6E1D4A1E2A1E50800A7E0F000ED8B48F
:1066F0001D5CD8A0EED7010E4EEC28F0000E056E02
:10670000080E046EADEC28F018C003F019C004F0B8
:106710001AC005F01BC006F0000E076E510E78EC93
:1067200028F0F7EC27F0FDEC27F01C6E1C66FBD779
:10673000FDEC27F01C6E1C50FE0AD8A4F9D7000E01
:106740001E6E000E1D6E47D06E0E1D24D96E050EF6
:106750001E20DA6EFDEC27F0DF6E1D4A1E2A0F06A2
:10676000D8A010060F28D8B41028D8B418D0ECD769
:10677000FDEC27F009C0D9FF0AC0DAFFDF6E09C0BF
:10678000D9FF0AC0DAFF6E0E1D24E16E050E1E2031
:10679000E26EDFCFE7FF094A0A2A1D4A1E2A1106C8
:1067A000D8A012061128D8B41228D8B40CD0E0D73B
:1067B0006E0E1D24D96E050E1E20DA6EFDEC27F03C
:1067C000DF6E1D4A1E2A1E50800A7E0F000ED8B4AE
:1067D0001D5CD8A0EDD71E50800A7E0F000ED8B4E5
:1067E0001D5CD8A0BCD7010E4EEC28F0000E036E45
:1067F000000E046E000E056E000E066E000E076E93
:106800004C0E78EC28F0F7EC27F0FDEC27F01C6E2E
:106810001C28D8A4FAD7000E1E6E000E1D6E0001B3
:10682000F505F611D8B40CD015D06E0E1D24D96E16
:10683000050E1E20DA6EDF5090EC28F01D4A1E2A4D
:106840006E0E1D24D96E050E1E20DA6EDF50D8B4F0
:1068500007D0EBD77F0E066EFC0E056E6DEC29F0AF
:10686000020E4EEC28F0000E12000001F4C046F0BB
:106870000001F3C045F0020E1F5C000E2058000E10
:106880002158000E2258D8A0D0D120EE06F0455055
:10689000D9264650DA22DECF23F0DECF24F0DECF39
:1068A00025F0DECF26F023501F5C245020582550C1
:1068B000215826502258D8A0AAD1B7D11FC043F0E2
:1068C00020C044F0D8904430246E4330236E2350CF
:1068D000432624504422FF0E43143D6E010E4414FF
:1068E0003E6E090E236ED89044324332232EFBD7DE
:1068F0003D28D8B43E04D8B429D0000E0A6E3F0E0D
:10690000096E20EE0AF04550D9264650DA22DECF35
:1069100023F0DECF24F0DECF25F0DECF26F043508B
:1069200023240B6E445024200C6E000E25200D6E87
:10693000000E26200E6E3DC00FF03EC010F0000E7F
:10694000126E020E116EBAEC32F05ED0000E0A6EBC
:106950003F0E096E20EE0AF04550D9264650DA2245
:10696000DECF23F0DECF24F0DECF25F0DECF26F021
:10697000435023240B6E445024200C6E000E25201F
:106980000D6E000E26200E6E010E106E0F68000EAA
:10699000126E010E116EBAEC32F00009D8A445D186
:1069A000000E0A6E400E096E20EE0AF04550D92600
:1069B0004650DA22DECF23F0DECF24F0DECF25F002
:1069C000DECF26F043502324276E44502420286E27
:1069D000000E2520296E000E26202A6E010E272487
:1069E0000B6E000E28200C6E000E29200D6E000E7E
:1069F0002A200E6E000E106E000E0F6E000E126E2C
:106A0000010E116EBAEC32F00009D8A40ED140503C
:106A10003C6E3F503B6E1FB007D0FF0E3B14396EEB
:106A20000F0E3C143A6E0FD03BC023F03CC024F054
:106A3000040E256ED89024322332252EFBD723C096
:106A400039F024C03AF039C01FF03AC020F04FD0DE
:106A5000000E0A6E3F0E096E20EE0AF04550D92650
:106A60004650DA22DECF23F0DECF24F0DECF25F051
:106A7000DECF26F01FC027F020C028F021C029F06B
:106A800022C02AF028C027F029C028F02AC029F007
:106A90002A6A235027240B6E245028200C6E255080
:106AA00029200D6E26502A200E6EFF0E1F142B6E0D
:106AB000000E20142C6ED8902B340F6E2C34106ED8
:106AC000000E126E020E116EBAEC32F00009D8A45C
:106AD000ACD03F5040C023F0246A23C024F0236A86
:106AE0002312000E241223C01FF024C020F0216ABC
:106AF000226AA3D0000E0A6E3F0E096E20EE0AF045
:106B00004550D9264650DA22DECF23F0DECF24F0DE
:106B1000DECF25F0DECF26F01FC027F020C028F002
:106B200021C029F022C02AF0080E05D0D8902A32C0
:106B3000293228322732E82EF9D7235027240B6E2A
:106B4000245028200C6E255029200D6E26502A2016
:106B50000E6E7F0E1F142B6E000E20142C6ED8901C
:106B60002B362C36D8902B362C362BC00FF02CC061
:106B700010F0000E126E040E116EBAEC32F0000925
:106B8000D8A453D04050246E236A41C025F0266A11
:106B9000276A286A26C028F025C027F0266A256AB9
:106BA00042C029F02A6A2B6A2C6A29C02CF02B6A71
:106BB0002A6A296A255029102D6E26502A102E6E19
:106BC00027502B102F6E28502C10306E23502D1074
:106BD000316E24502E10326E000E2F10336E000EC8
:106BE0003010346E3F503110356E3250366E3350A7
:106BF000376E3450386EFF0E35141F6EFF0E36148C
:106C0000206EFF0E3714216E0F0E381415D045C0BC
:106C1000D9FF46C0DAFFDF50010AD8B44FD6030AC5
:106C2000D8B416D7010AD8B465D7010E1F6E000E6E
:106C3000206E000E216E000E226E1200000148C070
:106C400061F0000147C060F00001F4C075F0000180
:106C5000F3C074F04BC0D9FF4CC0DAFF000EDE6EFB
:106C6000000EDD6E000175517411D8A402D0050E1E
:106C700012D2000120EE01F000017451D92600016A
:106C80007551DA22DF504D6E4DB002D0040E03D2A2
:106C9000000120EE1AF000017451D926000175514F
:106CA000DA22DECF4DF0DECF4EF0DECF4FF0DECF7A
:106CB00050F0000120EE16F000017451D9260001B9
:106CC0007551DA22DECF51F0DECF52F0DECF53F035
:106CD000DECF54F0511E521E531E541E512A000E78
:106CE0005222532254224D5051240001696F4E50BC
:106CF000522000016A6F4F50532000016B6F5050BB
:106D0000542000016C6F49504D6E4A504E6E4F6AD0
:106D1000506A4D500001695D4E5000016A594F5054
:106D200000016B59505000016C59D8B0AFD169C007
:106D300049F06AC04AF0AAD1000120EE16F0000125
:106D40007451D92600017551DA22FF0EDE144D6E02
:106D5000010EDE144E6E000EDE144F6E000EDE14B9
:106D6000506E50504D104E104F10D8A4E2D000017C
:106D700020EE16F000017451D92600017551DA2277
:106D8000DECF4DF0DECF4EF0DECF4FF0DECF50F055
:106D90000A0E05D0D89050324F324E324D32E82E86
:106DA000F9D7000120EE02F000017451D92600014C
:106DB0007551DA22DF50516E51044D140001716F8C
:106DC0000001716770D0000120EE16F000017451CF
:106DD000D92600017551DA22DECF4DF0DECF4EF01C
:106DE000DECF4FF0DECF50F050504D104E104F1010
:106DF000D8A416D0000120EE1EF000017451D9264F
:106E000000017551DA220001DECF6DF00001DECF06
:106E10006EF00001DECF6FF00001DECF70F01BD00E
:106E2000000120EE22F000017451D92600017551B5
:106E3000DA22DECF1FF0DECF20F0DECF21F0DECF72
:106E400022F035EC34F01FC06DF020C06EF021C090
:106E50006FF022C070F0020E4D6E4E6A4F6A506A9B
:106E60004D5000016D5D4E5000016E594F500001B4
:106E70006F59505000017059D8A0CFD0000120EEBA
:106E800022F000017451D92600017551DA22000167
:106E90006DC0DEFF00016EC0DEFF00016FC0DEFFCF
:106EA000000170C0DEFF000120EE22F000017451ED
:106EB000D92600017551DA22DECF0DF0DECF0EF0BB
:106EC000DECF0FF0DECF10F0B5EC2AF00DC065F08C
:106ED0000EC066F00FC067F010C068F00001685186
:106EE000651166116711D8B498D000017151000185
:106EF00065254D6E000E000166214E6E000E0001EC
:106F000067214F6E000E00016821506E000120EED7
:106F100026F000017451D92600017551DA224DC0C6
:106F2000DEFF4EC0DEFF4FC0DEFF50C0DDFFD906E2
:106F3000D906FF0E4D6E010E4E6E000120EE16F0CA
:106F400000017451D92600017551DA22DECF4FF0CD
:106F5000DDCF50F04D504F164E5050164F1E501E64
:106F60004F4A502A000E4F240001726F020E50202B
:106F70000001736F00017251495C000173514A585E
:106F8000D8B004D049C072F04AC073F048504710DE
:106F9000D8B407D0000161C063F0000160C062F0A6
:106FA00006D0000E0001636F000E0001626F000149
:106FB00063C00AF0000162C009F0000120EE26F073
:106FC00000017451D92600017551DA22DECF0BF091
:106FD000DECF0CF0DECF0DF0DECF0EF0000120EEA4
:106FE00016F000017451D92600017551DA22DECF66
:106FF0004DF0DDCF4EF0FF0E4D140F6E010E4E140E
:10700000106E72C011F073C012F0BAEC32F00001D1
:10701000646F00016451D8B40DD0000120EE01F07E
:1070200000017451D92600017551DA22000EDF6E7D
:10703000010E31D0000120EE16F000017451D92666
:1070400000017551DA2200017251DE2600017351F0
:10705000DE22000EDE22DD22DD52DD520001725101
:10706000000160270001735100016123000172518A
:10707000495E000173514A5A4BC0D9FF4CC0DAFF38
:1070800000017251DE2600017351DD224A50491081
:10709000D8A452D6000E1200000148C061F00001D1
:1070A00047C060F00001F4C072F00001F3C071F05D
:1070B0004BC0D9FF4CC0DAFF000EDE6E000EDD6E55
:1070C000000172517111D8A402D0050E95D20001B1
:1070D00020EE01F000017151D92600017251DA222F
:1070E000DF504D6E4DB002D0040E86D24A5049108A
:1070F000D8A42CD0000120EE01F000017151D92656
:1071000000017251DA22DF504D6E4DAC13D0000EEB
:107110000B6E000E0A6E000E096E000E0C6E000E55
:107120000D6E000E0E6E000E0F6E9AEC2BF0000925
:10713000D8A445D2000120EE01F000017151D926FA
:1071400000017251DA22BF0EDF1655D2000120EE87
:1071500001F000017151D92600017251DA22DF508D
:107160004D6E4DBC13D0000120EE16F000017151A0
:10717000D92600017251DA22000EDE16FE0EDE164E
:10718000FF0EDE16FF0EDD16DD52DD52000120EE91
:107190001AF000017151D92600017251DA22DECFB6
:1071A0004DF0DECF4EF0DECF4FF0DECF50F00001DD
:1071B00020EE16F000017151D92600017251DA2239
:1071C000DECF51F0DECF52F0DECF53F0DECF54F001
:1071D000511E521E531E541E512A000E522253227B
:1071E00054224D5051240001666F4E505220000130
:1071F000676F4F5053200001686F505054200001BA
:10720000696F49504D6E4A504E6E4F6A506A4D50EC
:107210000001665D4E50000167594F5000016859EA
:10722000505000016959D8B0E2D166C049F067C03A
:107230004AF0DDD1FF0E4D6E010E4E6E000120EEC4
:1072400016F000017151D92600017251DA22DECF09
:107250004FF0DDCF50F04D504F164E50501650505D
:107260004F10D8A409D1000120EE16F00001715191
:10727000D92600017251DA22DECF4DF0DECF4EF07A
:10728000DECF4FF0DECF50F00A0E05D0D89050324E
:107290004F324E324D32E82EF9D7000120EE02F087
:1072A00000017151D92600017251DA22DF50516E6E
:1072B00051044D1400016E6F00016E6770D0000123
:1072C00020EE16F000017151D92600017251DA2228
:1072D000DECF4DF0DECF4EF0DECF4FF0DECF50F000
:1072E00050504D104E104F10D8A416D0000120EE73
:1072F0001EF000017151D92600017251DA220001FD
:10730000DECF6AF00001DECF6BF00001DECF6CF063
:107310000001DECF6DF01BD0000120EE22F0000155
:107320007151D92600017251DA22DECF1FF0DECF73
:1073300020F0DECF21F0DECF22F035EC34F01FC09C
:107340006AF020C06BF021C06CF022C06DF0020E1C
:107350004D6E4E6A4F6A506A4D5000016A5D4E5044
:1073600000016B594F5000016C59505000016D598C
:10737000D8A025D1000120EE22F000017151D926BC
:1073800000017251DA2200016AC0DEFF00016BC009
:10739000DEFF00016CC0DEFF00016DC0DEFF0001FA
:1073A00020EE22F000017151D92600017251DA223B
:1073B000DECF0DF0DECF0EF0DECF0FF0DECF10F01F
:1073C000B5EC2AF00DC062F00EC063F00FC064F09F
:1073D00010C065F000016551621163116411D8B4E9
:1073E000EED000016E51000162254D6E000E0001CD
:1073F00063214E6E000E000164214F6E000E0001ED
:107400006521506E000120EE26F000017151D92651
:1074100000017251DA224DC0DEFF4EC0DEFF4FC0C8
:10742000DEFF50C0DDFFD906D906000E0B6E000E40
:107430000A6E000E096E000120EE26F00001715167
:10744000D92600017251DA22DECF0CF0DECF0DF02A
:10745000DECF0EF0DECF0FF09AEC2BF00009D8A4AF
:10746000AED0000120EE01F000017151D9260001DB
:107470007251DA22000EDB8CFF0E4D6E010E4E6E45
:10748000000120EE16F000017151D9260001725161
:10749000DA22DECF4FF0DDCF50F04D504F164E5078
:1074A00050164F1E501E4F4A502A000E4F24000106
:1074B0006F6F020E50200001706F00016F51495C28
:1074C000000170514A58D8B004D049C06FF04AC08A
:1074D00070F0000E0B6E000161C00AF0000160C088
:1074E00009F0000120EE26F000017151D9260001BB
:1074F0007251DA22DECF0CF0DECF0DF0DECF0EF0CF
:10750000DECF0FF09AEC2BF00009D8A458D0000180
:1075100020EE16F000017151D92600017251DA22D5
:1075200000016F51DE2600017051DE22000EDE22C6
:10753000DD22DD52DD5200016F51000160270001A4
:1075400070510001612300016F51495E00017051CB
:107550004A5A4BC0D9FF4CC0DAFF00016F51DE26FA
:1075600000017051DD22FF0E4D6E010E4E6E0001C6
:1075700020EE16F000017151D92600017251DA2275
:10758000DECF4FF0DDCF50F04D504F164E5050161D
:1075900050504F10D8A42BD0000E0B6E000E0A6E68
:1075A000000E096E000E0C6E000E0D6E000E0E6EBB
:1075B000000E0F6E9AEC2BF00009D8B40DD000012C
:1075C00020EE01F000017151D92600017251DA223A
:1075D000000EDF6E010E10D0000120EE01F0000160
:1075E0007151D92600017251DA22BF0EDF164A50BE
:1075F0004910D8A41FD6000E1200000E0001F46F2F
:10760000000E0001F36FCEEC2EF02B6E2BA002D0FB
:10761000020E9DD3000E00018C6F000E00018D6FD5
:10762000000E00018E6F000E00018F6F0001000E32
:10763000206E0001600E1F6E8CC021F08DC022F004
:107640008EC023F08FC024F06AEC2DF00001946FFF
:1076500000019405D8A474D00001000E0A6E000148
:10766000600E096E8CC00BF08DC00CF08EC00DF05A
:107670008FC00EF0010E106EBE0E0F6E000E126E59
:10768000100E116EBAEC32F00009D8B402D0030E1D
:1076900055D000016451D8B453D0000169512C6E0B
:1076A0002B6A00016AC02DF02E6A2F6A306A2EC044
:1076B00030F02DC02FF02E6A2D6A00016BC031F022
:1076C000326A336A346A31C034F0336A326A316AFA
:1076D0002D503110356E2E503210366E2F50331023
:1076E000376E30503410386E2B503510396E2C50A8
:1076F00036103A6E000E37103B6E000E38103C6E9E
:1077000000016851391000018C6F3A5000018D6FF3
:107710003B5000018E6F3C5000018F6F0001000E46
:10772000206E0001600E1F6E8CC021F08DC022F013
:107730008EC023F08FC024F06AEC2DF00001946F0E
:1077400000019451030AD8B41FD000019451D8A469
:107750001CD20001000E0A6E0001600E096E8CC082
:107760000BF08DC00CF08EC00DF08FC00EF0000E2F
:10777000106E0D0E0F6E000E126E240E116EBAEC0E
:1077800032F00009D8B402D0010EE1D200016951F3
:1077900000016AC02BF02C6A2BC02CF02B6A2B1234
:1077A000000E2C1200012BC090F000012CC091F0B3
:1077B0000001926B0001936B0001935190119111A4
:1077C0009211D8A441D0000178512C6E2B6A00018F
:1077D00079C02DF02E6A2F6A306A2EC030F02DC08D
:1077E0002FF02E6A2D6A00017AC031F0326A336AB6
:1077F000346A31C034F0336A326A316A2D50311044
:10780000356E2E503210366E2F503310376E30508A
:107810003410386E2B503510396E2C5036103A6EAD
:10782000000E37103B6E000E38103C6E0001775191
:1078300039100001906F3A500001916F3B500001E8
:10784000926F3C500001936F90C001F091C002F024
:1078500092C003F093C004F000016351056E066A04
:10786000076A086AECEC28F001C090F002C091F0C1
:1078700003C092F004C093F000016151000162C0A6
:107880002BF02C6A2BC02CF02B6A2B12000E2C1222
:107890002B5000018C252D6E2C5000018D212E6E59
:1078A000000E00018E212F6E000E00018F21306E20
:1078B00020EE0AF02950D9262A50DA222DC0DEFF08
:1078C0002EC0DEFF2FC0DEFF30C0DDFFD906D90697
:1078D00020EE02F02950D9262A50DA22000160C099
:1078E000DFFF00016451000165C02BF02C6A2BC042
:1078F0002CF02B6A2B12000E2C1220EE04F02950D3
:10790000D9262A50DA222BC0DEFF2CC0DDFF000171
:107910006651000167C02BF02C6A2BC02CF02B6A3B
:107920002B12000E2C1200012BC084F000012CC081
:1079300085F00001866B0001876B0001875184117F
:1079400085118611D8A441D0000174512C6E2B6A88
:10795000000175C02DF02E6A2F6A306A2EC030F0FB
:107960002DC02FF02E6A2D6A000176C031F0326AE8
:10797000336A346A31C034F0336A326A316A2D5066
:107980003110356E2E503210366E2F503310376E48
:1079900030503410386E2B503510396E2C50361054
:1079A0003A6E000E37103B6E000E38103C6E000130
:1079B000735139100001846F3A500001856F3B50BC
:1079C0000001866F3C500001876F20EE04F02950C3
:1079D000D9262A50DA22DECF2BF0DDCF2CF0040E90
:1079E0002D6ED8902C322B322D2EFBD700016151F9
:1079F000000162C02EF02F6A2EC02FF02E6A2E12C8
:107A0000000E2F122E502B24306E2F502C20316E52
:107A1000326AD8B0322A336A000190513024346E71
:107A2000000191513120356E000192513220366EA5
:107A3000000193513320376E341E351E361E371E1B
:107A4000342A000E35223622372200018451342494
:107A5000016E000185513520026E000186513620ED
:107A6000036E000187513720046E20EE02F029508A
:107A7000D9262A50DA22DF50386E3850056E066A51
:107A8000076A086A0FEC2AF001C039F002C03AF028
:107A900003C03BF004C03CF0020E39240001886FA3
:107AA000000E3A200001896F000E3B2000018A6F12
:107AB000000E3C2000018B6F20EE06F02950D926E5
:107AC0002A50DA22000188C0DEFF000189C0DEFFF3
:107AD00000018AC0DEFF00018BC0DEFF000E000146
:107AE000946FF70E2B6E0F0E2C6E000E2D6E000E87
:107AF0002E6E2B500001885D2C50000189592D50AD
:107B000000018A592E5000018B59D8B003D0010EC4
:107B10000001946FF80E0001885D0F0E0001895975
:107B2000000E00018A59000E00018B59D8A019D00F
:107B3000F70E2B6EFF0E2C6E000E2D6E000E2E6EAD
:107B40002B500001885D2C50000189592D500001F7
:107B50008A592E5000018B59D8B003D0020E000173
:107B6000946FF70E0001885DFF0E00018959000E29
:107B700000018A59000E00018B59D8A003D0030ED2
:107B80000001946F0001946702D0060EE0D029C076
:107B9000D9FF2AC0DAFF000194C0DFFF0001945131
:107BA000030AD8A44CD0000180512C6E2B6A00012E
:107BB00081C02DF02E6A2F6A306A2EC030F02DC0A1
:107BC0002FF02E6A2D6A000182C031F0326A336ACA
:107BD000346A31C034F0336A326A316A2D50311060
:107BE000356E2E503210366E2F503310376E3050A7
:107BF0003410386E2B503510396E2C5036103A6ECA
:107C0000000E37103B6E000E38103C6E00017F51A5
:107C100039103D6E3A503E6E3B503F6E3C50406EC8
:107C200020EE0EF02950D9262A50DA223DC0DEFF80
:107C30003EC0DEFF3FC0DEFF40C0DDFF2CD020EEA7
:107C40000AF02950D9262A50DA22DECF2BF0DECFD7
:107C50002CF0DECF2DF0DECF2EF0000190512B2442
:107C60002F6E000191512C20306E000192512D2079
:107C7000316E000193512E20326E20EE0EF029500D
:107C8000D9262A50DA222FC0DEFF30C0DEFF31C0F5
:107C9000DEFF32C0DDFFD906D90620EE0AF02950FA
:107CA000D9262A50DA22DECF2BF0DECF2CF0DECF21
:107CB0002DF0DECF2EF020EE04F02950D9262A50E8
:107CC000DA22DECF2FF0DDCF30F0040E316ED89007
:107CD00030322F32312EFBD72F502B24326E3050C2
:107CE0002C20336E000E2D20346E000E2E20356EAB
:107CF000000190513224366E000191513320376ECD
:107D0000000192513420386E000193513520396EB4
:107D100020EE12F02950D9262A50DA2236C0DEFF92
:107D200037C0DEFF38C0DEFF39C0DDFFD906D90617
:107D300020EE01F02950D9262A50DA22000EDF6EFB
:107D400000012AC0F4F0000129C0F3F0000E120077
:107D500000809A90418E418F804545454949498E22
:107D60008F9092924F994F555559999A9B9C9D9EF1
:107D70009F41494F55A5A5A6A7A8A9AAABAC21AE7E
:107D8000AFB0B1B2B3B4B5B6B7B8B9BABBBCBDBE8B
:107D9000BFC0C1C2C3C4C5C6C7C8C9CACBCCCDCE7B
:107DA000CFD0D1D2D3D4D5D6D7D8D9DADBDCDDDE6B
:107DB000DFE0E1E2E3E4E5E6E7E8E9EAEBECEDEE5B
:107DC000EFF0F1F2F3F4F5F6F7F8F9FAFBFCFDFE4B
:107DD000FF0D0A417474656D7074696E6720746F6D
:107DE00020554E6D6F756E742066696C65207379D1
:107DF0007374656D2E0D0A000D0A4572726F722044
:107E0000747279696E6720746F20554E6D6F756E50
:107E1000742066696C6573797374656D3B20000D21
:107E200046696C652073797374656D20737563633F
:107E3000657366756C6C7920756E6D6F756E7465A3
:107E4000642E0D0A000D0A417474656D7074696EBC
:107E50006720746F206D6F756E742066696C652085
:107E600073797374656D2E0D0A000D0A4572726F79
:107E70007220747279696E6720746F206D6F756EF1
:107E8000742066696C6573797374656D3B20000AB4
:107E90000D53657474696E6720426C6F636B205379
:107EA000697A6520746F20353132204279746573A8
:107EB0000A0D000D0A0D0A5374617274696E672011
:107EC000746F207772697465207468652066696CC8
:107ED000652E0D0A000D0A4572726F722074727958
:107EE000696E6720746F20777269746520746F20E3
:107EF00066696C653B20000D0A0D0A53746172744B
:107F0000696E6720746F20726561642074686520F3
:107F100066696C652E0D0A000D0A4572726F72203B
:107F2000747279696E6720746F207265616420666F
:107F3000696C653B20000D0A4572726F7220747285
:107F400079696E6720746F206F70656E2066696C4A
:107F5000653B20000D0A0D0A417474656D707469EB
:107F60006E6720746F206F70656E2066696C652087
:107F7000000A0D434F4D504C4554494E4720494E41
:107F8000495449414C495A4154494F4E000D0A53F6
:107F900075636365737366756C6C79207772697449
:107FA00074656E000A0D5344204361726420496E6B
:107FB0007365727465640A0D004F50454E494E4713
:107FC000205448452046494C450043617264204195
:107FD000636365707465640A0D004572726F722187
:107FE00021210A0D00636865636B2E747874005359
:107FF000445F43617264000D0A0D0A002E2E0000DA
:020000040020DA
:08000000FFFFFFFFFFFFFFFF00
:020000040030CA
:0E000000040C1F1EFF8081FF0FC00FE00F4099
:00000001FF
