:0400000066EF3AF07D
:1073BE0095988388958A838A12008A98FF0E31ECFD
:1073CE003AF08A8812008A9809EC3AF0026E8A889E
:1073DE0002501200016E210EE82EFED700F0012E93
:1073EE00FAD71200016E030EE82EFED700F0012E22
:1073FE00FAD71200016EFA0E00F0E82EFDD7012E1C
:10740E00FAD71200C9CF01F09E96C9689EA6FED784
:10741E00C9501200020EF1EC39F0050EF9EC39F0FC
:10742E0000F000F01200050EF1EC39F000F000F063
:10743E0000F000F000F000F000F01200026EC9CF74
:10744E0001F09E96C69E02C0C9FFC6BE02D09EA681
:10745E00FED71200026EC9CF01F09E96C69E02C0E4
:10746E00C9FFC6BE02D09EA6FED71200026E000E47
:10747E00036E04D0050E01EC3AF0032A0350025CB1
:10748E00D8A01200F7D7050EF1EC39F000F000F09D
:10749E0000F000F000F000F000F000F000F012003C
:1074AE00EFEC3AF0DFEC39F07F0E066ED80E056E7B
:1074BE0089EC3AF077EC3EF041EC3BF0FDD704EE70
:1074CE0000F014EE00F0EE6AE550E150FCE1E250FF
:1074DE00FAE1000EF86E000157EF3AF0046E000E5E
:1074EE00056E0BD0000E066E04D0640E3DEC3AF025
:1074FE00062A090E0664F9D7052A0450055CD8B091
:10750E001200F0D705C0F6FF06C0F7FF0800F550D1
:10751E00B4EC3AF005C0F6FF06C0F7FF054A062A9E
:10752E000800F5500009D8B41200ECD7086EFF0E13
:10753E0025EC3AF0085025EC3AF0065025EC3AF0DE
:10754E00055025EC3AF0045025EC3AF0035025ECAA
:10755E003AF0075025EC3AF01200036E080E046E56
:10756E0083984AEC3AF00ED003C002F0010E0216D8
:10757E00023A83500218EF0B0218836E4AEC3AF06F
:10758E00D890033204060428D8A4EED783884AEC98
:10759E003AF01200000E086E000E076E010E3DEC62
:1075AE003AF0000E086E000E076E07D08A88FF0EA6
:1075BE0031EC3AF08A98074A082A0850800A066E7B
:1075CE000450075C0550800A0658D8B01200EED75A
:1075DE00000E066E000E076E000E086E000E056E93
:1075EE00000E046EC69A0F0EC16E070EB412929A5A
:1075FE00899A9398949E93929380020E066E000E33
:10760E00076E000E086E07C001F008C002F00650AB
:10761E0016EC3BF0C00EC76E220EC66E1200036E45
:10762E003F0EC716000EC66E0350C6120250C7128A
:10763E0005D0C78C13D0C78CC68810D00150000A55
:10764E00D8B4F7D7020AD8B4F6D7010AD8B4F4D70B
:10765E0005D0928A93820AD0939208D00350040ADE
:10766E00D8B4F7D7010AD8B4F5D7F6D79380949E3D
:10767E00C68A12007E0E066ECF0E056E89EC3AF0AB
:10768E00BFEC3BF0106E13D013EC3CF01ED087EC29
:10769E003CF01BD018EC3DF018D0ACEC3DF015D002
:1076AE007F0E066E720E056E89EC3AF00ED01050FB
:1076BE00610AD8B4EFD7050AD8B4EFD7160AD8B4F2
:1076CE00E6D7050AD8B4E0D7EBD71050770AD8B46E
:1076DE000CD01050720AD8B408D01050640AD8B426
:1076EE0004D01050610AD8A4C5D71200000E0A6E3D
:1076FE00000E096E000E0C6E000E0B6E000E056E67
:10770E00080E046ED1EC3AF0000E036E000E046EFD
:10771E00000E056E000E066E950E076E400E9DEC69
:10772E003AF0000E046E010E036EE4EC39F0EAEC52
:10773E0039F00D6E0B4A0C2A0D04D8B408D00C503B
:10774E00800A800F0A0ED8B40B5CD8A0F0D7000EBA
:10775E000C6E000E0B6E0D04D8A4D0D77F0E066EE5
:10776E004A0E056E89EC3AF0020E75EC3AF01200F4
:10777E00080E056E000E076E010E046E04D083BA5D
:10778E00FED711EC3AF083AA0BD0F9D71AEC3AF0E7
:10779E00000E83BA010E066E085008240610086EFD
:1077AE0005060528D8A4F2D7026A08AE01D0022A2F
:1077BE00010E02160840800B800B0210071208C043
:1077CE0002F0050E036ED8900232032EFCD7020E85
:1077DE0002160838E846E00B400B0210071208C0EC
:1077EE0002F0D8900232D8900232D8900232040EB3
:1077FE0002160838E842F80B200B0210071208C0D8
:10780E0002F0D8900232080E021608500824100B0F
:10781E000210071207501200000E0A6E000E096EBB
:10782E00000E056E080E046ED1EC3AF0000E036EDB
:10783E000A0E046E000E056E000E066E000E076E2A
:10784E00580E9DEC3AF0E4EC39F0EAEC39F00B6EA0
:10785E000B66FBD77F0E066EC90E056E89EC3AF0ED
:10786E00010E75EC3AF0000E056E080E046ED1ECAA
:10787E003AF0FE0E25EC3AF0000E0A6E000E096E7E
:10788E000A50800A7C0F000ED8B4095CD8B008D01C
:10789E00410E25EC3AF0094A0A2A094A0A2AF0D77B
:1078AE00FF0E25EC3AF0FF0E25EC3AF0000E056EB9
:1078BE00010E046ED1EC3AF0010E75EC3AF0000EAA
:1078CE00056E080E046ED1EC3AF0000E036E000E3B
:1078DE00046E000E056E000E066EFF0E076E4D0E48
:1078EE009DEC3AF0E4EC39F0EAEC39F00B6E0B66F5
:1078FE00FBD77F0E066EA80E056E89EC3AF01200CD
:10790E00000E0C6E000E0B6E010E75EC3AF0000EB2
:10791E00056E080E046ED1EC3AF0000E0A6E060EDD
:10792E00096E000E036E000E046E000E056E000E44
:10793E00066EFF0E076E510E9DEC3AF0EAEC39F032
:10794E000D6E0D66FBD7EAEC39F00D6E0D50FE0A8A
:10795E00D8A4F9D7000E0F6E000E0E6E8A980BD0BB
:10796E00000E0E24D96E060E0F20DA6EEAEC39F0F8
:10797E00DF6E0E4A0F2A0F50800A7E0F000ED8B40B
:10798E000E5CD8A0EDD7000E0F6E000E0E6EFF0E21
:10799E00B4EC3AF0FF0EB4EC3AF0010E75EC3AF09E
:1079AE00000E056E080E046ED1EC3AF0000E036E5A
:1079BE00000E046E000E056E000E066E000E076EB3
:1079CE004C0E9DEC3AF0E4EC39F0EAEC39F00D6E29
:1079DE000D28D8A4FAD77F0E066E850E056E89EC9B
:1079EE003AF0020E75EC3AF0000E0F6E000E0E6EAF
:1079FE00000E0C6E000E0B6E0BD0000E0E24D96E08
:107A0E00060E0F20DA6EDF50B4EC3AF00E4A0F2A53
:107A1E000F50800A7E0F000ED8B40E5CD8B0120044
:107A2E00ECD7410E0B6E000E0A6E000E096E000EA4
:107A3E00056E080E046ED1EC3AF0000E036E0A0EBF
:107A4E00046E000E056E000E066E000E076E590EC9
:107A5E009DEC3AF0E4EC39F0EAEC39F00E6E0E667D
:107A6E00FBD77F0E066E970E056E89EC3AF0020E6E
:107A7E0075EC3AF0000E056E080E046ED1EC3AF07D
:107A8E002FD0FC0E25EC3AF0094A0A2A000E0D6E94
:107A9E00000E0C6E0D50800A7C0F000ED8B40C5CDC
:107AAE00D8B008D00B5025EC3AF00C4A0D2A0C4AEF
:107ABE000D2AF0D70B2AFF0E25EC3AF0FF0E25EC1F
:107ACE003AF0000E056E010E046ED1EC3AF0010E86
:107ADE0075EC3AF0000E056E080E046ED1EC3AF01D
:107AEE000950040A0A10D8A4CCD7FD0E25EC3AF0A2
:107AFE00000E056E010E046ED1EC3AF0010E75EC1F
:107B0E003AF0000E056E080E046ED1EC3AF0000E3F
:107B1E00036E000E046E000E056E000E066E000E55
:107B2E00076E4D0E9DEC3AF0E4EC39F0EAEC39F0CC
:107B3E000E6E0E66FBD77F0E066E5F0E056E89EC1F
:107B4E003AF0020E75EC3AF01200000E096E010EBC
:107B5E0075EC3AF0000E056E080E046ED1EC3AF09C
:107B6E00000E036E0A0E046E000E056E000E066EFB
:107B7E00000E076E520E9DEC3AF0E4EC39F0EAEC92
:107B8E0039F00C6E0C66FBD7000E056E010E046EFE
:107B9E00D1EC3AF0EAEC39F00C6E0C50FE0AD8A497
:107BAE00F9D7000E0B6E020E0A6E000E0E6E000E50
:107BBE000D6E31D0000E0D24D96E040E0E20DA6E2D
:107BCE00EAEC39F0DF6E0D4A0E2A0E50800A7E0F57
:107BDE00000ED8B40D5CD8A0EDD70A06D8A00B06BF
:107BEE00000E0E6E000E0D6E0BD0000E0D24D96E13
:107BFE00060E0E20DA6EEAEC39F0DF6E0D4A0E2A12
:107C0E000E50800A7E0F000ED8B40D5CD8A0EDD7B2
:107C1E000A06D8A00B060B500A10D8A4D6D7000E11
:107C2E000E6E000E0D6E010E75EC3AF0000E056E26
:107C3E00080E046ED1EC3AF0000E036E060E046EC2
:107C4E00000E056E000E066E000E076E4C0E9DECBD
:107C5E003AF0E4EC39F0EAEC39F00C6E0C28D8B4BA
:107C6E000CD0F9D7000E0D24D96E040E0E20DA6E4C
:107C7E00DF50B4EC3AF00D4A0E2A0E50800A7E0FF9
:107C8E00000ED8B40D5CD8A0EDD7010E75EC3AF00D
:107C9E007F0E066EFC0E056E89EC3AF0000E0E6E2F
:107CAE00000E0D6E0BD0000E0D24D96E060E0E209A
:107CBE00DA6EDF50B4EC3AF00D4A0E2A0E50800AFE
:107CCE007E0F000ED8B40D5CD8A0EDD7010E75EC6A
:107CDE003AF07F0E066E340E056E89EC3AF0120005
:107CEE00000E0F6E000E0E6E000E136E000E126E54
:107CFE00000E116E000E106E000E156E000E146E3C
:107D0E007DEC3BF0F40E3DEC3AF0000E056E080EE5
:107D1E00046ED1EC3AF0000E036E000E046E000EEF
:107D2E00056E000E066E000E076E410E9DEC3AF0CB
:107D3E00E4EC39F0EAEC39F0166E124A132A1650BA
:107D4E00D8B408D01350800A800F0A0ED8B4125C33
:107D5E00D8A0F0D7000E136E000E126E1666D5D791
:107D6E00010E75EC3AF0E4EC39F0166675D0010EA2
:107D7E003DEC3AF0000E116E000E106E000E156EF8
:107D8E00000E146E000E056E080E046ED1EC3AF065
:107D9E00000E036E000E046E000E056E000E066ED3
:107DAE00950E076E770E9DEC3AF01668EAEC39F0F8
:107DBE00166E144A152A1604D8B408D01550800A27
:107DCE00800F0A0ED8B4145CD8A0F0D7010E3DEC8B
:107DDE003AF0000E156E000E146E000E056E080EB3
:107DEE00046ED1EC3AF0000E036E000E046E000E1F
:107DFE00056E400E066E950E076E690E9DEC3AF0FE
:107E0E001668E4EC39F0EAEC39F0166E144A152ACD
:107E1E001650D8B408D01550800A800F0A0ED8B468
:107E2E00145CD8A0F0D71666A9D7000E116E000EFE
:107E3E00106E010E3DEC3AF07F0E066EEF0E056EE3
:107E4E0089EC3AF07F0E066EF20E056E89EC3AF072
:107E5E00020E75EC3AF00DD01650050AD8A409D0D2
:107E6E007F0E066EE70E056E89EC3AF0030E75EC8A
:107E7E003AF0010E75EC3AF0000E056E080E046E27
:107E8E00D1EC3AF0000E036E020E046E000E056E7B
:107E9E00000E066EFF0E076E500E9DEC3AF0E4ECEF
:107EAE0039F0EAEC39F0166E1666FBD77F0E066EC9
:107EBE00B90E056E89EC3AF0020E75EC3AF012002E
:107ECE00000A0D506C656173652073656C65637493
:107EDE0020612066696C65206F7065726174696FD0
:107EEE006E3F0A0D5772697465202020202D207771
:107EFE000A0D5265616420202020202D20720A0D6B
:107F0E004D756C74695F57726974652020202D2041
:107F1E00610A0D4D756C74695F5265616420202095
:107F2E002D20640A0D000D0A0D0A4D756C74692022
:107F3E0052656164204F7665720A0D000A0D534436
:107F4E00204361726420496E7365727465640A0D14
:107F5E00004D554C5449205752495445204F5645D3
:107F6E00520A0D000A0D496E76616C696420456EE9
:107F7E007472792E2E2100424C4F434B20524541B4
:107F8E0044204F5645520A0D00434D443235204190
:107F9E00636365707465640A0D00424C4F434B2059
:107FAE005752495445204F564552003531322042E2
:107FBE0079746573205365740A0D00434D44323451
:107FCE0020416363657074656400496E73657274F5
:107FDE002053442043617264004572726F722121F6
:107FEE00210A0D00535543434553530A0D000D0A04
:027FFE00000081
:020000040020DA
:08000000FFFFFFFFFFFFFFFF00
:020000040030CA
:0E000000040C1F1EFF8081FF0FC00FE00F4099
:00000001FF
