:04000000FFEF28F0F6
:103E42001200120012009EAAFED7E6EF1FF0000E2B
:103E5200026E016E000C036E03500FEF20F0C9CF0B
:103E620001F0C9CF01F01200086E07C001F0026A2A
:103E720008509EEF24F007C003F006C002F0DDEC0C
:103E820023F0ACB21200FDD7016EACAC04D0AC9002
:103E92000101A5B3AC8001C0ADFF1200C9CF01F092
:103EA200C9689E969EA6FED7C9CFABF1C950120033
:103EB200010192519111D8B444EC29F0090E356EEA
:083EC200780E346ECDEF22F002
:103ECB0001000300050007000900657869740062B2
:103EDB00696E0074787400012C2079948894969301
:103EEB0098949A8A888B968B9A220EC66EC78EC729
:103EFB008CC698C68A220C026EC9CF01F09E96C65C
:103F0B009E02C0C9FFC6AE02D0FF0E03D09EA6FE16
:103F1B00D7000E120020EE05F00150D9260250DA20
:103F2B0022DECF01F0DECF02F0DECF03F0DECF04D6
:103F3B00F0120008D001C0D9FF02C0DAFF200EDF5B
:103F4B006E014A022A01C0D9FF02C0DAFFDF50D846
:103F5B00B41200F0D720EE0BF00150D9260250DA44
:103F6B0022DF50036E03A804D0000E026E010E0276
:103F7B00D0000E026E016E120020EE02F00150D93D
:103F8B00260250DA22000EDE6EDD6E01C0E1FF026A
:103F9B00C0E2FFDECFE6FFDDCFE5FF000C20EE0B2E
:103FAB00F00150D9260250DA22DF50036E03AA0427
:103FBB00D0000E026E010E02D0000E026E016E12C8
:103FCB0000F20E0101A517ABAC03D0A591ABB0A5C8
:103FDB0081ABA402D00101A585ABA202D00101A542
:103FEB0087AECF01F00150120020EE0BF00150D93B
:103FFB00260250DA22DF50036E0F0E031603500F0A
:10400B000A04E1000E026E010E02D0000E026E01D8
:10401B006E1200026E02500D0A06E0025045EC1FB4
:10402B00F0ACB20BD0FDD70A0E45EC1FF0ACA2FEE4
:10403B00D70D0E45EC1FF0ACA2FED7120002C00844
:10404B00F001C007F008D007C0D9FF08C0DAFF03A2
:10405B00C0DFFF074A082A0506D8A006060528D8A0
:10406B00B40628D8B41200EFD7010192519111D8A0
:10407B00B444EC29F0F9C0F3F00001F8C0F2F044BD
:10408B00EC6AF0F2C0FAF00001F3C0FBF0FAC0F8F2
:10409B00F0FBC0F9F012000B6A0C6A0D6A0E6A088D
:1040AB00C002F007C001F0000E046E0B0E036EB3DE
:1040BB00EC20F00BC007F00CC008F00DC009F00E9F
:1040CB00C00AF01200090E5A6E780E596E65C05B6D
:1040DB00F066C05CF067C05DF068C05EF06AC060FF
:1040EB00F069C05FF076EC27F059C065F05AC066F6
:1040FB00F0120007C0D9FF08C0DAFFDECF09F0DDF0
:10410B00CF0AF00A5009100AE008C002F007C001FC
:10411B00F00AC004F009C003F0EAEC2BF00AC00867
:10412B00F009C007F01200010E026E0101DA0E0158
:10413B006E400E0F24036E020E1020046EEAEC2B61
:10414B00F0010E0C6E0101D60E0B6E400E0F240DFE
:10415B006E020E10200E6E29EF22F002C006F00147
:10416B00C005F00650051014E020EE08F00550D9FC
:10417B00260650DA2203C0E1FF04C0E2FFDECFE6E1
:10418B00FFDECFE6FFDECFE6FFDDCFE5FFE552E555
:10419B005212006BC065F06CC066F06DC067F06EBC
:1041AB00C068F070C06AF06FC069F068EC20F06610
:1041BB0050651007E0FE0E076EDB0E066E3CEC1F23
:1041CB00F006D0FF0E076E180E066E3CEC1FF012B9
:1041DB000020EE04F00350D9260450DA2205C0DE8D
:1041EB00FF06C0DEFF07C0DEFF08C0DEFF03C0D93D
:1041FB00FF04C0DAFFDE6ADE6ADE6ADD6A20EE08E3
:10420B00F00350D9260450DA22000EDF6E000C0B9F
:10421B00500A1017E0010E0C6E04D0D8900A360B22
:10422B00360C2A0BAEFAD70A50085C0B500958040F
:10423B00E30A50085E0B50095AD8900B320A320C25
:10424B002EF2D708C008F009C009F01200046A0565
:10425B00500D0A17E09EAAFED7E6EC1FF0056E057F
:10426B00500D0A06E002C0D9FF03C0DAFF05C0DF1C
:10427B00FF055045EC1FF0ACA2FED7024A032A04FF
:10428B002AE6D70D0E45EC1FF0ACB21200FDD70A93
:10429B00C002F009C001F07BEC22F001C00BF00270
:1042AB00C00CF00C500B1010E0040E0B24016E0030
:1042BB000E0C20026E046A050E036E1AEC2AF00136
:1042CB00C009F002C00AF003D0000E0A6E096E128C
:1042DB00000001FA6B000EDF6FFA0EDE6FE16B016F
:1042EB000EE06FE36BE26FF7C0E5F0F6C0E4F00EA3
:1042FB00EC65F0DEC0F8F0DFC0F9F00001F805F96D
:10430B001104E1FAC0F6F0F76B04D0F8C0F6F0F93F
:10431B00C0F7F01200086EFF0E81EC1FF030EC1F9F
:10432B00F00850400981EC1FF030EC1FF006508173
:10433B00EC1FF030EC1FF0055081EC1FF030EC1F40
:10434B00F0045081EC1FF030EC1FF0035081EC1F98
:10435B00F030EC1FF0075081EC1FF04FEF1FF00611
:10436B006A056A045003101BE0010E076E04D0D8D7
:10437B009003360436072A04AEFAD7D890053606D2
:10438B00360350015C0450025805E30350015E04F0
:10439B0050025A0580D89004320332072EEED7050F
:1043AB00C001F006C002F01200010E086E0101D62A
:1043BB000E076E7FEC20F007C011F008C012F01250
:1043CB005011100BE0010E0C6E0101DA0E0B6E1288
:1043DB00C00EF011C00DF029EC22F0125011100498
:1043EB00E1000E106E0F6E06D0C00E11240F6EFD85
:1043FB000E1220106E12000001BF6BBE6B010192FA
:10440B00519111D8B444EC29F0090E0001AD6F782D
:10441B000EAC6FBBC0AFF0BAC0AEF0BDC0B1F0BC5C
:10442B00C0B0F049EC58F0ACC0BEF0ADC0BFF0006E
:10443B0001BF51BE1103E1BA69BB6904D0000E0084
:10444B0001BB6FBA6F120020EE02F00B50D9260C95
:10445B0050DA22DE50DD100BE10CC008F00BC00768
:10446B00F00EC00AF00DC009F0C0EC26F014D00C11
:10447B00C002F00BC001F020EE02F00B50D9260C5D
:10448B0050DA22DECF03F0DDCF04F00EC006F00DC4
:10449B00C005F0BAEC28F012000568066802C008E7
:1044AB00F001C007F017D02E0E07C0D9FF08C0DAF5
:1044BB00FFDF620ED001C003F002C004F0031E0444
:1044CB001E034A042A07500324056E0850042006D5
:1044DB006E074A082A07C0D9FF08C0DAFFDF50E38E
:1044EB00E105C001F006C002F0120002C006F001A7
:1044FB00C005F002D0054A062A05C0F6FF06C0F734
:10450B00FF000EF86E0F0EF76403D00800F5500590
:10451B00D0F6CFE9FFF7CFEAFFEF500009EBE1014F
:10452B00C003F002C004F0031E041E034A042A0554
:10453B00500324016E06500420026E120001C0D9F4
:10454B00FF02C0DAFFDF501BE001C0D9FF02C0DA67
:10455B00FFDF50E50A14E020EE0BF00150D92602E4
:10456B0050DA22DF50080A0BE020EE0BF00150D995
:10457B00260250DA22DF50036E060E031604E0000B
:10458B000E026E010E02D0000E026E016E120022A0
:10459B00EE3BF03450D92635501BD022EE04F036CA
:1045AB0050D9263750DA22DE50DD100DE035C02110
:1045BB00F034C020F037C023F036C022F07CEC3C46
:1045CB00F0215020100DE022EE08F03650D926379E
:1045DB0050DA22DECF36F0DDCF37F037503610DD34
:1045EB00E1120002C008F001C007F013D00506D895
:1045FB00A0060603C0D9FF04C0DAFF034A042A074A
:10460B00C0E1FF08C0E2FF074A082ADFCFE7FFE758
:10461B00500BE00650051008E0E9D707C0D9FF089A
:10462B00C0DAFFDF6A074A082A0506D8A006060586
:10463B0028D8B40628D8B41200F0D721C009F0222C
:10464B00C00AF023C00BF024C00CF026C00EF025DE
:10465B00C00DF027C00FF028C010F029C011F02AB0
:10466B00C012F020EE29F01F50D9262050DA22DE9E
:10467B00CF2BF0DDCF2CF001D809D00500FA6E2B33
:10468B0050FD6E2C50FE6EFF6AFA50120009C01FCF
:10469B00F00AC020F01200FB0E076EE30E066E3C14
:1046AB00EC1FF020D0FD0E076E580E066E3CEC1F73
:1046BB00F0010E026E0101AF0E016E9FEC1FF001B7
:1046CB000E036E0101AF0E026E2CEC21F06B6A6CC7
:1046DB006A100E6D6E6E6AFF0E706EE00E6F6ECF0F
:1046EB00EC20F006D024EC1FF06E0A02E0170ADA79
:1046FB00E01200106A0F6A20EE33F00950D9260A37
:10470B0050DA22DF6A0C500B1022E0106A0F6A108D
:10471B0050800A800F0A0ED8B40F5C19E2050E0FF9
:10472B0002F3CF0DF0F4CF0EF01002F3500E260D66
:10473B00500924016E0E500A20026E046A036A06A9
:10474B006A050E056E24EC20F00F4A102AE0D712F2
:10475B000005C00AF004C009F003C008F002C00C49
:10476B00F001C00BF01BD008C0F6FF09C0F7FF0A21
:10477B00C0F8FFF8BA03D00800F55005D0F6CFE922
:10478B00FFF7CFEAFFEF500BC0D9FF0CC0DAFFDF0A
:10479B006E082A000E09220A220B4A0C2A0606D89A
:1047AB00A007060628D8B40728D8B41200DCD7AC6B
:1047BB00A2FED702C0F6FF03C0F7FF000EF86E0F84
:1047CB000EF76403D00800F55005D0F6CFE9FFF7DC
:1047DB00CFEAFFEF5045EC1FF00250046E0350057B
:1047EB006E024A032A04C0F6FF05C0F7FF000EF85D
:1047FB006E0F0EF76403D00800F55005D0F6CFE925
:10480B00FFF7CFEAFFEF500009D8B41200D0D72240
:10481B00C009F023C00AF024C00BF025C00CF0280F
:10482B00C00FF027C00EF026C00DF029C010F02AE3
:10483B00C011F02BC012F02CC013F020EE2BF02087
:10484B0050D9262150DA22DECF2DF0DDCF2EF0010C
:10485B00D809D00500FA6E2D50FD6E2E50FE6EFF5E
:10486B006AFA50120009C020F00AC021F01200A809
:10487B007F00000200000400040000080008000094
:10488B0010001000002000200000400040000080BD
:10489B000080000000000000200800010000000163
:1048AB000800000002100000000420FFFFFFFF4083
:1048BB00000000000020202020202020202020208D
:1048CB002020202020202020202020202020000815
:1048DB005005100610071023E0010E096E06D0D804
:1048EB00900536063607360836092A08AEF8D7057E
:1048FB0050015C06500258075003580850045808E2
:10490B00E30550015E0650025A0750035A08500443
:10491B005AD8900832073206320532092EE8D701F1
:10492B00C001F002C002F003C003F004C004F01297
:10493B0000066EAC6AAB6A06B0AC8806A202D0ACBD
:10494B008CAB8C06B4AC8E06A602D0AB8801D0AB78
:10495B008A06B8AC849E9806BAAB8606AC02D09D8C
:10496B008A01D09D9A9E9A06AE02D09D8801D09D59
:10497B009801C0AFFF02C003F003C004F0056A0446
:10498B0050B06EAC8AAB8E949C948EACB8ACBE011E
:10499B00D0948C120020EE0BF00150D9260250DA85
:1049AB0022DF500F0A25E001C0D9FF02C0DAFFDF7A
:1049BB00501FE001C0D9FF02C0DAFFDF50E50A1833
:1049CB00E020EE0BF00150D9260250DA22DF50081E
:1049DB000A0FE020EE0BF00150D9260250DA22DF4D
:1049EB0050036E060E031604E1000E026E010E025A
:1049FB00D0000E026E016E120020EE33F00150D982
:104A0B00260250DA220A0EDF6207D020EE32F001C6
:104A1B0050D9260250DA221DD020EE33F00150D9A6
:104A2B00260250DA22DF5011E020EE33F00150D98C
:104A3B00260250DA22DF50036E0350050DF35001AE
:104A4B0024D96EF4500220DA6E04D001C0D9FF02D3
:104A5B00C0DAFF000EDF6E02C002F001C001F000F1
:104A6B000C000E066E056E1DD003C0D9FF04C0DA14
:104A7B00FFDF50076E034A042A0750200A12E0405A
:104A8B000E076405D05B0E075C02E2200E072601C1
:104A9B00C0D9FF02C0DAFF07C0DFFF014A022A05B7
:104AAB004A062A03C0D9FF04C0DAFFDF5007E0062D
:104ABB0050800A800F0C0ED8B4055CD6E301C0D928
:104ACB00FF02C0DAFF000EDF6E000C03C007F0041C
:104ADB00C008F001C005F002C006F0035005260423
:104AEB00500622FF0E0524096EFF0E06200A6E1BD0
:104AFB00D0200E09C0D9FF0AC0DAFFDF6217D00140
:104B0B00C005F002C006F0051E061E054A062A095E
:104B1B00500524076E0A500620086E0906D8A00A15
:104B2B00060306D8A0040604500310E2E107C001F7
:104B3B00F008C002F01200010192519111D8B44457
:104B4B00EC29F029EEA1F055C0DEFF56C0DDFF29A0
:104B5B00EEA3F057C0DEFF58C0DDFF090E206E78C4
:104B6B000E1F6E2FEC76F01FC059F020C05AF05A72
:104B7B005059100FE0FB0E0E6E820E0D6E59C00FCA
:104B8B00F05AC010F0DAEC45F059C055F05AC05647
:104B9B00F008D0000E0101946F010E936F000E56BA
:104BAB006E556E1200076E30D001019C6B9B6B062D
:104BBB00D02D0E0FEC20F001019B4B9C2B035004CE
:104BCB006E056A01019C51800A066E04509B5D05BF
:104BDB0050800A06581DE2ECD701019C6B9B6B06BB
:104BEB00D05F0E0FEC20F001019B4B9C2B0350046C
:104BFB006E056A01019C51800A066E04509B5D058F
:104C0B0050800A065805E2ECD70750620ACDE0E463
:104C1B00D70D0E0FEF20F02ED001C0D9FF02C0DA56
:104C2B00FFDF500CE003C0D9FF04C0DAFFDF5007F1
:104C3B006E01C0D9FF02C0DAFFDF1818E003C0D93C
:104C4B00FF04C0DAFFDF50076E086A071E081E0755
:104C5B004A082A01C0D9FF02C0DAFFDF50096E09EA
:104C6B00500724016E000E0820026E0ED0014A027E
:104C7B002A034A042A0506D8A006060528D8B40636
:104C8B0028CBE1000E026E016E120020EE0BF0033A
:104C9B0050D9260450DA22DF500F0A2DE003C0D979
:104CAB00FF04C0DAFFDF5027E003C0D9FF04C0DAEE
:104CBB00FFDF50E50A20E020EE0BF00350D926046D
:104CCB0050DA22DF50080A17E020EE0BF00350D920
:104CDB00260450DA22DF50056E060E05160CE12075
:104CEB00EE33F00150D9260250DA22DF5004E000F7
:104CFB000E026E010E02D0000E026E016E12000942
:104D0B006A0A6A0B6A0C6A0850051006100710290C
:104D1B00E0010E0D6E06D0D8900536063607360824
:104D2B00360D2A08AEF8D7D89009360A360B360C52
:104D3B00360550015C0650025807500358085004C2
:104D4B005809E30550015E0650025A0750035A08F2
:104D5B0050045A0980D89008320732063205320DBA
:104D6B002EE2D709C001F00AC002F00BC003F00C11
:104D7B00C004F0120007C0D9FF08C0DAFFDE50DD17
:104D8B001022E107C0D9FF08C0DAFF09C0DEFF0A15
:104D9B00C0DDFF20EE02F00750D9260850DA2209B9
:104DAB00C0DEFF0AC0DDFF09C0D9FF0AC0DAFFDE93
:104DBB006ADD6A20EE02F00950D9260A50DA220089
:104DCB000EDE6EDD6E12D008C002F007C001F007D8
:104DDB00C0D9FF08C0DAFFDECF03F0DDCF04F00A45
:104DEB00C006F009C005F0FCEC26F0120003C0D998
:104DFB00FF04C0DAFF05C0E1FF06C0E2FFDECFE62D
:104E0B00FFDDCFE5FF20EE02F00550D9260650DA84
:104E1B002203C0DEFF04C0DDFF03C0D9FF04C0DAEC
:104E2B00FFDE50DD1009E101C0D9FF02C0DAFF053A
:104E3B00C0DEFF06C0DDFF0ED003C0D9FF04C0DA11
:104E4B00FF10EE02F0DE50E126DD50E22205C0E657
:104E5B00FF06C0E5FF03C0D9FF04C0DAFF05C0DEC3
:104E6B00FF06C0DDFF120002C00EF001C00DF00EF8
:104E7B00500D1003E10168026832D020EE0CF00DEA
:104E8B0050D9260E50DA22DECF03F0DECF04F0DE4F
:104E9B00CF05F0DECF06F020EE08F00D50D9260E30
:104EAB0050DA22DECF07F0DECF08F0DECF09F0DEDE
:104EBB00CF0AF006500A1808E10550091805E1045D
:104ECB0050081802E10350071803E10B680C680344
:104EDB00D0000E0C6E0B6E0BC001F00CC002F0126A
:104EEB0000010E616E626A400E636E646A61505B14
:104EFB005C62505C5863505D5864505E5817E25AC0
:104F0B00C03DF059C03CF05BC03EF05CC03FF05D73
:104F1B00C040F05EC041F060C043F05FC042F01A89
:104F2B00EC5EF03CC059F03DC05AF016D05AC03D73
:104F3B00F059C03CF05BC03EF05CC03FF05DC04040
:104F4B00F05EC041F060C043F05FC042F045EC51F1
:104F5B00F03CC059F03DC05AF01200FC0E076EB089
:104F6B000E066E3CEC1FF0010E026E0101AF0E013E
:104F7B006E9FEC1FF0010E036E0101AF0E026E2C43
:104F8B00EC21F0720EB7EC30F0020E0001F36F89DA
:104F9B000EF26F010EF56FCD0EF46F6BEC2EF00071
:104FAB0001F351F21119E0FF0E0E6EF20E0D6E02AF
:104FBB000E106E0201890E0F6EDAEC45F0020E0137
:104FCB00014E6F890E4D6F94EC2CF0010E026E01A9
:104FDB0001CD0E016E23EC1FF01200FC0E076E13B9
:104FEB000E066E3CEC1FF0010E026E0101AF0E01BE
:104FFB006E9FEC1FF0020E026E0201890E016E9F76
:10500B00EC1FF0010E036E0101AF0E026E2CEC21B2
:10501B00F0720EB7EC30F0020E0101846F890E8333
:10502B006F49EC2DF001018451800AF36E800EF371
:10503B005C000ED8B40101835D0AE2FD0E076ECE53
:10504B000E066E3CEC1FF0010E0101A96F06D0FCA1
:10505B000E076EF60E066E3CEC1FF0120001C0D967
:10506B00FF02C0DAFF2F0EDF6E014A022A000E018B
:10507B00019C6F9B6F28D02E0E03C0D9FF04C0DAA2
:10508B00FFDF6210D00550720A06E00550640A0378
:10509B00E005506E0A07E101C0D9FF02C0DAFF003C
:1050AB000EDF6E17D003C0D9FF04C0DAFF01C0E1D9
:1050BB00FF02C0E2FFDFCFE7FF014A022A034A04E7
:1050CB002A01019B4B9C2B03C0D9FF04C0DAFFDFE5
:1050DB0050D2E101C0D9FF02C0DAFF000EDF6E0033
:1050EB000CFE0E076E830E066E3CEC1FF0010E02DB
:1050FB006E0101AF0E016E9FEC1FF0020E026E02ED
:10510B0001890E016E9FEC1FF0010E036E0101AFC2
:10511B000E026E2CEC21F0720EB7EC30F0FE0E0787
:10512B006ED80E066E3CEC1FF0020E076E02018964
:10513B000E066E3CEC1FF0020E0001F96F890EF8A3
:10514B006F3AEC20F00001F951F81107E0FE0E0761
:10515B006E3B0E066E3CEC1FF006D0FC0E076ED4B9
:10516B000E066E3CEC1FF0120005C0D9FF06C0DA2C
:10517B00FF03C0DEFF04C0DDFF20EE02F00350D9B9
:10518B00260450DA2210EE02F00550E1260650E21A
:10519B0022DECFE6FFDDCFE5FF20EE02F00350D994
:1051AB00260450DA22DE50DD1007E120EE02F0017A
:1051BB0050D9260250DA220ED020EE02F00350D93D
:1051CB00260450DA22DECF07F0DDCF08F007C0D976
:1051DB00FF08C0DAFF05C0DEFF06C0DDFF20EE02D0
:1051EB00F00350D9260450DA2205C0DEFF06C0DDDD
:1051FB00FF120004EEF0F018EECFF0EE6AE550E18E
:10520B0050FCE1E250FAE104EE00F0F00EEE6AE839
:10521B0006FDE103EE00F0F00EEE6AE806FDE1029A
:10522B00EE60F0580EEE6AE806FDE101EE8BF053EE
:10523B000EEE6AE806FDE17A0EF66E480EF76E008A
:10524B000EF86E02EE00F010EE60F00900F5CFEEF6
:10525B00FFE550E150FAE1CB0EF66E3E0EF76E0015
:10526B000EF86E01EEDEF010EE1BF00900F5CFEE3E
:10527B00FFE550E150FAE1000164EF2AF0010E0264
:10528B006E0101D60E016EC2EC1FF0010E026E0113
:10529B0001DA0E016EC2EC1FF0166A156A16508009
:1052AB000A800F020ED8B4155C29E2010E0C6E01B8
:1052BB0001D60E0B6E400E0F6E020E106E440E11C9
:1052CB006E020E126E11501502F3CF13F0F4CF14C1
:1052DB00F01602F350142612501502F35014260F39
:1052EB0050132610501422F00E13240D6E040E14BE
:1052FB00200E6E29EC22F0154A162AD0D7000E018B
:10530B0001926F010E916F010C01C0D9FF02C0DA3F
:10531B00FFDF50076E03C0D9FF04C0DAFFDF50096F
:10532B006E076601D02AD0020E0126000E0222075C
:10533B0050091823E12FEEFFF00150D9260250DA65
:10534B0022DF50086E20EE01F00350D9260450DA0C
:10535B0022DF50096E086601D007D0020E0326002B
:10536B000E042209500818D0E00950056E066A0594
:10537B001E061E054A062A085008D00950056E065F
:10538B006A051E061E054A062A07500524016E00F3
:10539B000E0620026E1200EDC10DF0EEC10EF0EF05
:1053AB00C10FF0F0C110F0F1C111F0F2C112F0F326
:1053BB00C113F0F4C114F00BC002F00AC001F000ED
:1053CB000E046E0D0E036E066A030E056E11EC26AF
:1053DB00F00250011010E00BC002F00AC001F00007
:1053EB000E046E110E036E066A030E056E11EC268B
:1053FB00F00250011011E1000E156E03D00A4A0B9A
:10540B002A152A020E1564FAD70AC0D9FF0BC0DA87
:10541B00FF000EDF6E010E07D0FF0E076E3E0E066D
:10542B006E3CEC1FF0000E1200066A0450800AF36B
:10543B006E800EF35C000ED8B4035C06E2036C04C2
:10544B001ED8B0042A010E066E0250800AF36E803D
:10545B000EF35C000ED8B4015C06E2016C021ED8A0
:10546B00B0022A010E061A086A076A045003101BC1
:10547B00E0010E056E04D0D89003360436052A04DD
:10548B00AEFAD7D890073608360350015C045002A9
:10549B005805E30350015E0450025A0780D890046C
:1054AB00320332052EEED7065004E0076C081ED8E7
:1054BB00B0082A07C001F008C002F012000F0EC19D
:1054CB006E070EB412929A966A899A8D6A1F0E070E
:1054DB006E0101F65135EC1FF073EC1FF0070E0156
:1054EB00018A6F7D0EE82EFED78A2FFCD700F0A91C
:1054FB00EC2DF0000907E1FE0E076E9A0E066E3CCE
:10550B00EC1FF006D0FD0E076E380E066E3CEC1F3E
:10551B00F044EC29F0620E566E6E0E556E650E5809
:10552B006EA40E576EA1EC25F05650551008E0FDF9
:10553B000E076E960E066E3CEC1FF000EF00F0FFB0
:10554B000E01014E6FF70E4D6F94EC2CF04BEC2BC4
:10555B00F0FDD741D007C0D9FF08C0DAFFDF5011EB
:10556B006E09C0D9FF0AC0DAFFDF50126E400E1170
:10557B006405D05B0E115C02E2200E1126400E1268
:10558B006405D05B0E125C02E2200E122612500D47
:10559B006E0E6A0D1E0E1E0D4A0E2A11500D240F93
:1055AB006E000E0E20106E10500F1005E00FC0078E
:1055BB00F010C008F01AD007C0D9FF08C0DAFFDF1F
:1055CB005011E009C0D9FF0AC0DAFFDF500BE0072A
:1055DB004A082A094A0A2A0B06D8A00C060B28D817
:1055EB00B40C28B8E1000E086E076E1200DBC12A5E
:1055FB00F00101DAC129F042D02A50291003E12829
:10560B006A276A06D0C00E2924276EFD0E2A202891
:10561B006E2650281802E12550271826E0120E2777
:10562B0024136E000E2820146E120E2524156E0006
:10563B000E2620166E70EC37F01450131015E01C6C
:10564B000E2724136E000E2820146E1C0E25241515
:10565B006E000E2620166E70EC37F01450131004EB
:10566B00E0000E266E010E0FD020EE02F02950D96D
:10567B00262A50DA22DECF29F0DDCF2AF02A502954
:10568B0010BBE1000E266E256E1200FA0E076E6C33
:10569B000E066E3CEC1FF024EC1FF00101A66F1CF4
:1056AB00D050EC3EF02AD056EC41F027D03BEC30FA
:1056BB00F024D0F3EC27F021D076EC28F01ED0B3F9
:1056CB00EC27F01BD051EC23F018D0FF0E076E2BFC
:1056DB000E066E3CEC1FF011D00101A651610AE3DE
:1056EB00E0050AE7E0020AEEE0080AE6E01C0ADE43
:1056FB00E0050AD6E00F0AE3E0E8D70101A65177EF
:10570B000A0CE0A651720A09E0A651640A06E0A64B
:10571B00516E0A03E0A651780AB8E1FF0E01014E63
:10572B006FF70E4D6F94EF2CF082C08AF083C08B15
:10573B00F084C08CF085C08DF033D08AC086F08B9E
:10574B00C087F08CC088F08DC089F081C047F00015
:10575B000180C046F08AC048F08BC049F08CC04A2B
:10576B00F08DC04BF09FEC54F046C08AF047C08BD5
:10577B00F048C08CF049C08DF081C047F00001802B
:10578B00C046F086C048F087C049F088C04AF0890F
:10579B00C04BF0000E4C6A4D6A4E6A4F6A18EC47CC
:1057AB00F000018A29D8B48B29D8B48C29D8B48DB0
:1057BB002905E08D518A118B118C11BFE1000E0070
:1057CB0001816F010E806F010C03C0D9FF04C0DA99
:1057DB00FFDE50DD100FE120EE02F00350D926045E
:1057EB0050DA2201C0E1FF02C0E2FFDECFE6FFDDAF
:1057FB00CFE5FF14D020EE02F00350D9260450DA87
:10580B002203C0E1FF04C0E2FF00EE02F0E650E924
:10581B0026E550EA22DECFEEFFDDCFEDFF20EE02D4
:10582B00F00350D9260450DA22DE50DD100BE103D1
:10583B00C0D9FF04C0DAFF10EE02F00150E12602DE
:10584B0050E22212D003C0D9FF04C0DAFF10EE02DF
:10585B00F00350E1260450E222E6CF05F0E5CF0637
:10586B00F005C0E1FF06C0E2FFDECFE6FFDDCFE5CE
:10587B00FF1200D5C0DDF0D4C0DCF00101925191D4
:10588B0011D8B444EC29F00001DD51DC1146E022C3
:10589B00EE3DF0DC51D926DD51DA22DE50DD103D34
:1058AB00E0DDC09FF0DCC09EF022EE39F0DC51D978
:1058BB0026DD51DA22DECFA0F0DECFA1F0DECFA2C3
:1058CB00F0DECFA3F0390EDC25D66F000EDD21D72D
:1058DB006F200EA66FD7C0A5F0D6C0A4F0010EA7FF
:1058EB006F000EA86BA96BAA6BA4EC62F09EC0D8DC
:1058FB00F09FC0D9F0A0C0DAF0A1C0DBF00001DB53
:10590B0051D811D911DA1109E022EE3DF0DC51D951
:10591B0026DD51DA22000EDE6EDD6E1200010192E1
:10592B00519111D8B444EC29F0FF0E0E6E870E0D79
:10593B006E4EC110F001014DC10FF0DAEC45F04E87
:10594B00C1F3F04DC1F2F0010E0001F56F4F0EF4F3
:10595B006F6BEC2EF00001F351F21122E137D00105
:10596B000162510BE0FF0E0E6EC40E0D6E010E1098
:10597B006E580E0F6EDAEC45F013D0FF0E0E6E98CC
:10598B000E0D6E010E106E0101580E0F6E67C111D8
:10599B00F068C112F069C113F06AC114F0DAEC457A
:1059AB00F0010E0001BB6F4F0EBA6F010EBD6F58A9
:1059BB000EBC6F01EC22F00001BB51BA11D0E0011B
:1059CB000E026E01014F0E016E23EC1FF01200A0B0
:1059DB000E3B5C860E3C58010E3D58000E3E585255
:1059EB00E2000E026E410E016E046A036A066A0C37
:1059FB000E056E24EC20F07E0E416E3BC00EF03C8B
:105A0B00C00FF03DC010F03EC011F0000E136E42FF
:105A1B000E126E48EC2FF038C002F037C001F020A8
:105A2B000E056E3AC004F039C003F0076A0B0E0680
:105A3B006EAEEC23F0000E026E410E016E7BEC227B
:105A4B00F001C04DF002C04EF04DC03FF04EC040D3
:105A5B00F03F1E401E3F4A402A080E3F26000E40D4
:105A6B00223F503724016E40503820026E200E0525
:105A7B006E000E046E410E036E4DC006F04EC00755
:105A8B00F0AEEC23F0120001018569866984C1FD3B
:105A9B00F083C1FCF0FF0E0001FF6FFD0EFE6FAE39
:105AAB00EC36F0FCC087F1FDC088F101018851870D
:105ABB001145E0090E0001816F780E806F20EE0416
:105ACB00F001018751D9268851DA22DECF82F0DE30
:105ADB00CF83F0DECF84F00001DECF85F09AEC2B84
:105AEB00F00001815180112AE0090EAD6F780EACE8
:105AFB006F87C1D9FF88C1DAFFDECFAEF0DECFAF43
:105B0B00F0DECFB0F0DECFB1F0260E01018725001D
:105B1B0001B26F000E010188210001B36F98EC3BBD
:105B2B00F00001AD51AC110AE088C1DFF087C1DE96
:105B3B00F03DEC32F0000E0101866F856F85C1835D
:105B4B00F186C184F112008A888B9A0B6A04D0FF0C
:105B5B000E81EC1FF00B2A090E0B64F9D78A980102
:105B6B0001AB6B036A046A056A066A950E076E0041
:105B7B000E90EC21F04FEC1FF00101AB05FBE19611
:105B8B006B956B070E096E7D0EE82EFED7092EFC6A
:105B9B00D700F0036A046A056A066A0768010E906B
:105BAB00EC21F04FEC1FF00101954B962BAB510202
:105BBB00E0AB05F7E10A6A036A046A056A066A073D
:105BCB0068370E90EC21F04FEC1FF00101AB510543
:105BDB00E0AB0503E0AB51050AF6E1036A046A0585
:105BEB006A066A0768010E90EC21F04FEC1FF0017A
:105BFB0001AB5102E0AB05F9E10101AB67DCD7ABBF
:105C0B0051D8A4010E1200310E2024016E000E217A
:105C1B0020026E046A036A020E066E000E056A24E9
:105C2B00EC20F0316A306A43D030C028F031C02903
:105C3B00F0000E29BEFF0E2A6E2B6E22502824096F
:105C4B006E235029200A6E24502A200B6E25502BD0
:105C5B00200C6E310E20242C6E000E21202D6E2078
:105C6B000E0F6E2DC00EF02CC00DF0010E106E112C
:105C7B006A126A136A20EE2BF02050D9262150DAD3
:105C8B0022DECF2EF0DDCF2FF001D809D00500FAA0
:105C9B006E2E50FD6E2F50FE6EFF6AFA5012000AE8
:105CAB0050091003E1000E216E0ED0304A312A311B
:105CBB0050800A286E2650305C2750800A2858B432
:105CCB00E3000E216E010E206E12000001F96B0134
:105CDB000EF86FFA69FB69FC69FD6901019251913C
:105CEB0011D8B444EC29F0F3C002F00001F2C0016A
:105CFB00F071EC33F001280001F66F000E0220F773
:105D0B006FF751F6110FE1090E026E780E016E90CE
:105D1B00EC1FF001C0FAF002C0FBF003C0FCF00472
:105D2B00C0FDF00FD0F3C0B9F0F2C0B8F0000E0018
:105D3B0001BB6FFA0EBA6F10EC34F0B8C0F8F0B9C3
:105D4B00C0F9F00001F951F81112E0090E026E785A
:105D5B000E016EF5C004F0F4C003F0FAC005F0FBC1
:105D6B00C006F0FCC007F0FDC008F0EEEC20F00020
:105D7B0001FA29D8B4FB29D8B4FC29D8B4FD2904DD
:105D8B00E1000EF36FF26F05D0F5C0F3F00001F4F4
:105D9B00C0F2F0120000018A698B698C698D6982EF
:105DAB00C08EF083C08FF084C090F085C091F082DC
:105DBB0029D8B48329D8B48429D8B4852924D08E82
:105DCB00C08AF08FC08BF090C08CF091C08DF081A9
:105DDB00C047F0000180C046F08EC048F08FC0492C
:105DEB00F090C04AF091C04BF09FEC54F046C08E3F
:105DFB00F047C08FF048C090F049C091F00001917E
:105E0B00518E118F11901104E1000E0001816F373B
:105E1B00D000018E29D8B48F29D8B49029D8B49149
:105E2B0029CEE181C047F080C046F08AC048F08B94
:105E3B00C049F08CC04AF08DC04BF086C04CF08747
:105E4B00C04DF088C04EF089C04FF018EC47F08180
:105E5B00C047F0000180C046F086C048F087C049BB
:105E6B00F088C04AF089C04BF0FF0E4C684D684E6D
:105E7B00684F6818EC47F0000E0001816F010E00AF
:105E8B0001806F1200490EF66EFA0EF76E000EF8D7
:105E9B006E20EE18F0110E0900F5CFDEFFE82EFB99
:105EAB00D7000E366E290E356E0EC001F00FC002F4
:105EBB00F010C003F011C004F00A0E056E000E06C0
:105ECB006A076A086A6DEC24F001C014F002C01571
:105EDB00F003C016F004C017F0180E1424D96E008E
:105EEB000E1520DA6E35C0E1FF36C0E2FFDFCFE7DB
:105EFB00FF354A362A0EC001F00FC002F010C00366
:105F0B00F011C004F00A0E056E000E066A076A084F
:105F1B006A85EC26F001C00EF002C00FF003C01032
:105F2B00F004C011F011500E100F101010BDE13520
:105F3B00C0D9FF36C0DAFFDF6A3506D8A036060FA8
:105F4B00D035C0D9FF36C0DAFF12C0E1FF13C0E273
:105F5B00FFDFCFE7FF3506D8A03606124A132A29F2
:105F6B000E355C000E3658ECE212C0D9FF13C0DAC6
:105F7B00FF000EDF6E000C1EC002F01DC001F071A1
:105F8B00EC33F001C02BF002C02CF02B28D8B42C32
:105F9B002815E01EC008F01DC007F02BC009F02C1F
:105FAB00C00AF024C00CF023C00BF025C00DF02666
:105FBB00C00EF062EC3DF00850071003E01D681EA8
:105FCB006853D02C502B1005E11FC0D9FF20C0DA2D
:105FDB00FF47D01EC002F01DC001F07BEC22F00188
:105FEB00C027F002C028F024C002F023C001F07BD0
:105FFB00EC22F0011E021E014A022A015027242D19
:10600B006E025028202E6E2250800A276E2D5021B2
:10601B005C2E50800A275804E221C02DF022C02E9E
:10602B00F020C002F01FC001F0200E056E1EC00450
:10603B00F01DC003F02DC006F02EC007F0AEEC2310
:10604B00F0276828682DC029F02EC02AF027502988
:10605B002628502A2229501F24D96E2A502020DAB4
:10606B006E000EDF6E1E6E1D6E1200FC0E076E654F
:10607B000E066E3CEC1FF0010E026E0101AF0E011D
:10608B006E9FEC1FF0010E036E0101AF0E026E2C22
:10609B00EC21F0720EB7EC30F0020E0001FD6F89AF
:1060AB000EFC6FFF0EFF6FFD0EFE6FAEEC36F0FCBD
:1060BB00C097F1FDC098F198C19AF197C199F10180
:1060CB00019851971142E0FE0E076E220E066E3CB0
:1060DB00EC1FF0500E036E730ED8EC25F0FF0E077D
:1060EB006EB70E066E3CEC1FF0010E076E0101AF92
:1060FB000E066E3CEC1FF00D0E0FEC20F0500E0355
:10610B006E730ED8EC25F098C1F7F0000197C1F62D
:10611B00F06EEC21F00001F6510101F76FF7510F12
:10612B00EC20F098C102F0010197C101F039EC2786
:10613B00F00128D8B40228E7E10D0E0FEC20F05047
:10614B000E036E730ED8EC25F006D0FE0E076EF024
:10615B000E066E3CEC1FF098C1DFF097C1DEF03DF0
:10616B00EF32F01B6E21EEE8F010EE16F0050EDEAE
:10617B00CFE6FFE82EFCD701019C6B9B6B010E0257
:10618B006EAF0E016E000E046E160E036E8AEC29B6
:10619B00F00250011009E1010E076E0101AF0E066E
:1061AB006E3CEC1FF0020E5CD01B50770A04E04AE9
:1061BB00D001019B4B9C2BAF0E01019B25D96E018E
:1061CB000E9C21DA6EDF502E0A08E0AF0E9B25D90C
:1061DB006E010E9C21DA6EDF50EBE1AF0E01019BDD
:1061EB0025D96E010E9C21DA6E2E0EDF6223D09B19
:1061FB004B9C2BAF0E9B250A6E010E9C210B6EAF99
:10620B000E0C6ED1EC29F000090EE0020E026E8925
:10621B000E016E010E046E0101AF0E036E770E05BB
:10622B006E34EC28F01CD0FE0E076E530E066E3C3F
:10623B00EC1FF006D0FE0E076E530E066E3CEC1FE5
:10624B00F0000E0ED0020E026E890E016E010E04CE
:10625B006E0101AF0E036E720E056E34EC28F00169
:10626B000E120009C013F00AC014F00BC015F00C8D
:10627B00C016F0090ED8901336143615361636E8BC
:10628B002EF9D713C017F014C018F015C019F0165B
:10629B00C01AF017C003F018C004F019C005F01AAB
:1062AB00C006F00768120E90EC21F002D04FEC1FE5
:1062BB00F00101AB67FBD702D04FEC1FF00101AB34
:1062CB0051FE0AFAE11B6A1C6A1D6A1E6A22D00182
:1062DB0001A06B9F6B0101A051800A7E0F000ED8AD
:1062EB00B49F5D0EE24FEC1FF00DC0D9FF0EC0DA6C
:1062FB00FFABC1DFFF0D4A0E2A01019F4BA02BEA1A
:10630B00D7092A000E0A220B220C221B2A1C221D43
:10631B00221E220F501B5C10501C5811501D58127E
:10632B00501E58D5E3FF0E81EC1FF0FF0E81EC1FC2
:10633B00F0036A046A056A066A07680C0E90EC2182
:10634B00F04FEC1FF002D04FEC1FF00101AB67FBDD
:10635B00D702D04FEC1FF00101AB29FBE1000E0A75
:10636B006E010E096E010C0001BA6BB96BB86BB7FD
:10637B006BB66BADC081F0ACC080F0AEC082F0AF3D
:10638B00C083F0B0C084F0B1C085F00001B651B449
:10639B006FB751B56FB64BB72BB4C086F0B5C0878E
:1063AB00F0000E87BFFF0E886F896F000E8B6B8A14
:1063BB006BD6EC52F000018151801153E0BA6B0F98
:1063CB000EBA6501D0D6D70001BA51200DF3CFB864
:1063DB00F0F4CFB9F0ACC0B4F0ADC0B5F0B851B477
:1063EB0027B951B523310EB425BB6F000EB521BCB7
:1063FB006FBCC002F0BBC001F0FAEC1FF002500101
:10640B00102AE1BCC002F00001BBC001F0A4EC22D9
:10641B00F00250011020E1BCC002F00001BBC00132
:10642B00F0D0EC24F00250011016E0BCC002F0BB1F
:10643B00C001F0B3C004F00001B2C003F0066A0B58
:10644B000E056E11EC26F00250011005E1000E0056
:10645B0001AD6F010E09D00001BA2B0F0EBA65B357
:10646B00D788D7000E0001AD6F0001AC6F1200DFB3
:10647B00C0E1F0DEC0E0F0010192519111D8B444BB
:10648B00EC29F00001E151E01101E185D0DFC0D52D
:10649B00F0DEC0D4F03FEC2CF020EE10F00001E069
:1064AB0051D926E151DA22DE50DD102FE0090EAD75
:1064BB006F780EAC6FE0C0D9FFE1C0DAFFDECFAE74
:1064CB00F0DECFAFF0DECFB0F0DECFB1F0260EE0D6
:1064DB0025B26F000EE121B36F20EE0CF0E051D925
:1064EB0026E151DA22DECFB4F0DECFB5F0DECFB647
:1064FB00F0DECFB7F0B5EC3AF020EE10F00001E093
:10650B0051D926E151DA22DE6ADD6A20EE08F0006D
:10651B0001E051D926E151DA22DE6ADE6ADE6ADD5C
:10652B006A20EE0CF0E051D926E151DA22DE6ADE68
:10653B006ADE6ADD6A20EE04F0E051D926E151DA19
:10654B0022DE6ADE6ADE6ADD6A22EE39F0E051D9BC
:10655B0026E151DA22DE68DE68DE68DD6822EE3D78
:10656B00F0E051D926E151DA22DE6ADD6A20EE1025
:10657B00F0E051D926E151DA22000EDE6ADD6AE144
:10658B00C010F0E0C00FF099EC20F0090E356E78DA
:10659B000E346ECDEC22F0120009C014F00AC015B7
:1065AB00F00BC016F00CC017F0090ED8901436156E
:1065BB003616361736E82EF9D714C018F015C01951
:1065CB00F016C01AF017C01BF018C003F019C00466
:1065DB00F01AC005F01BC006F00768190E90EC21ED
:1065EB00F002D04FEC1FF00101AB67FBD7FF0E8120
:1065FB00EC1FF0FF0E81EC1FF0FC0E81EC1FF01C6A
:10660B006A1D6A1E6A1F6A2ED00101A06B9F6B0167
:10661B0001A051800A7E0F000ED8B49F5D1AE20DC7
:10662B00C0F6FF0EC0F7FF0FC0F8FFF8BA03D00893
:10663B0000F55005D0F6CFE9FFF7CFEAFFEF508119
:10664B00EC1FF00D2A000E0E220F2201019F4BA012
:10665B002BDED7092A000E0A220B220C221C2A1D24
:10666B00221E221F2210501C5C11501D5812501E4E
:10667B005813501F58C9E3FF0E81EC1FF0FF0E811A
:10668B00EC1FF04FEC1FF002D04FEC1FF0ABC1141E
:10669B00F01F0E14161450050A03E0F6D74FEC1F2B
:1066AB00F00101AB29FBE1FF0E81EC1FF0FF0E8126
:1066BB00EC1FF0FD0E81EC1FF04FEC1FF04FEC1FA9
:1066CB00F002D04FEC1FF00101AB29FBE1000E0AE9
:1066DB006E010E096E010C066A056A02500110501C
:1066EB00E001C0F6FF02C0F7FF000EF86E0F0EF7C9
:1066FB006403D00800F55005D0F6CFE9FFF7CFEAD9
:10670B00FFEF502F0A05E12F0E076E014A022A6890
:10671B00D00128036E000E0220046E03C0F6FF04A6
:10672B00C0F7FF000EF86E0F0EF76403D00800F5EC
:10673B005005D0F6CFE9FFF7CFEAFFEF503A0A1931
:10674B00E0020E0124036E000E0220046E03C0F65D
:10675B00FF04C0F7FF000EF86E0F0EF76403D008AE
:10676B0000F55005D0F6CFE9FFF7CFEAFFEF505C0D
:10677B000A07E15C0E076E030E0126000E022230A3
:10678B00D00168026846D001C0F6FF02C0F7FF00D7
:10679B000EF86E0F0EF76403D00800F55005D0F617
:1067AB00CFE9FFF7CFEAFFEF50071803E1014A02E9
:1067BB002A15D0014A022A01C0F6FF02C0F7FF00DA
:1067CB000EF86E0F0EF76403D00800F55005D0F6E7
:1067DB00CFE9FFF7CFEAFFEF500009D5E1054A06F5
:1067EB002A01C0F6FF02C0F7FF000EF86E0F0EF77E
:1067FB006403D00800F55005D0F6CFE9FFF7CFEAD8
:10680B00FFEF500009D8E1FF0E0524016EFF0E06C5
:10681B0020026E1200090E026E780E016E90EC1FB4
:10682B00F001C0CCF002C0CDF003C0CEF004C0CF5D
:10683B00F0B9C002F00001B8C001F071EC33F00107
:10684B00C0CAF002C0CBF00001D16BD06B65D0B9E0
:10685B00C008F0B8C007F0D0C009F0D1C00AF000F2
:10686B000E0C6E0001C00E0B6E0E6A0A0E0D6E62E0
:10687B00EC3DF00728D8B4082848E0090E0001AD1C
:10688B006F780EAC6FCCC0AEF0CDC0AFF0CEC0B059
:10689B00F0CFC0B1F0000EB36FC00EB26F000EB5EB
:1068AB006FD20EB46FB6EC49F0ACC0BCF0ADC0BD4E
:1068BB00F0AEC0BEF0AFC0BFF00001BF51BC11BD08
:1068CB0011BE1123E0000E026ED20E016EB0EC1F52
:1068DB00F0025001101AE00001E651BC6FE751BD08
:1068EB006FBE6BBF6BBDC0BFF0BCC0BEF0BD6BBCA1
:1068FB006BEC51BC25CC6FED51BD21CD6F000EBEA5
:10690B0021CE6F000EBF21CF6F04D0000E0001B956
:10691B006F22D00001D04BD12B010E0001CA25BC38
:10692B006F000ECB21BD6FD151800ABE6FBC51D011
:10693B005DBD51800ABE598BE3BAC0D9FFBBC0DA2B
:10694B00FFCCC0DEFFCDC0DEFFCEC0DEFFCFC0DE92
:10695B00FF000EB96F010E0001B86F120006500553
:10696B00104FE10E6A0D6A35D0050E0D02F3CF07FD
:10697B00F0F4CF08F00E02F3500826000E0724D9CE
:10698B006E020E0820DA6EDECF09F0DECF0AF0DEE3
:10699B00CF0BF0DECF0CF00150095C02500A58030C
:1069AB00500B5804500C5813E3050E0D02F3CF0790
:1069BB00F0F4CF08F00E02F3500826040E07260061
:1069CB000E0822000E0724D96E0201020E4ED00DC6
:1069DB004A0E2A050E0D02F3CF07F0F4CF08F00E86
:1069EB0002F3500826040E0726000E0822000E079D
:1069FB0024D96E0201020E0820DA6EDF5052E0B489
:106A0B00D70E6A0D6A38D0050E0D02F3CF07F0F4DE
:106A1B00CF08F00E02F3500826280E0724D96E0279
:106A2B000E0820DA6EDECF09F0DECF0AF0DECF0BD8
:106A3B00F0DECF0CF00150095C02500A5803500BEA
:106A4B005804500C5816E3050E0D02F3CF07F0F463
:106A5B00CF08F00E02F3500826040E0726000E088E
:106A6B0022280E0724D96E0201020E0820DA6EDFEF
:106A7B005019D00D4A0E2A050E0D02F3CF07F0F474
:106A8B00CF08F00E02F3500826040E0726000E085E
:106A9B0022280E0724D96E0201020E0820DA6EDFBF
:106AAB0050B2E1000E1200106A0F6A1050800A807B
:106ABB000F0B0ED8B40F5C11E20F500124D96E10DE
:106ACB00500220DA6E0F500B24E16E10500C20E2B6
:106ADB006EDFCFE7FF0F4A102AE8D720EE0DF00B41
:106AEB0050D9260C50DA22DF6A20EE0EF00B50D96B
:106AFB00260C50DA22DF6A10EE0FF00B50E1260C59
:106B0B0050E222DFCFE7FF20EE11F00B50D9260C1D
:106B1B0050DA22DF6A20EE10F00B50D9260C50DA37
:106B2B0022200EDF6E20EE13F00B50D9260C50DA1C
:106B3B0022DF6A20EE12F00B50D9260C50DA2220FD
:106B4B000EDF6E20EE16F00B50D9260C50DA22DF3A
:106B5B006A10EE17F00B50E1260C50E222DFCFE764
:106B6B00FF20EE19F00B50D9260C50DA22DF6A20E9
:106B7B00EE18F00B50D9260C50DA22200EDF6E0ED9
:106B8B00500D1008E120EE0BF00B50D9260C50DA0B
:106B9B0022200E07D020EE0BF00B50D9260C50DA2A
:106BAB0022100EDF6E20EE0CF00B50D9260C50DAB3
:106BBB0022DF6A20EE14F00B50D9260C50DA220992
:106BCB00C0DEFF0AC0DDFF20EE1AF00B50D9260CF9
:106BDB0050DA2207C0DEFF08C0DDFF20EE1CF00BF1
:106BEB0050D9260C50DA2203C0DEFF04C0DEFF05AD
:106BFB00C0DEFF06C0DEFF120076C0D9FF77C0DA19
:106C0B00FFDECF92F0DECF93F0DECF94F00001DE0B
:106C1B00CF95F020EE1FF07450D9267550DA22DE96
:106C2B00CF7CF0DECF7DF0DECF7EF0DECF7FF07C51
:106C3B0028D8B47D28D8B47E28D8B47F280BE0752B
:106C4B00C047F074C046F0FF0E486849684A684B6D
:106C5B0068E0EC39F00001966B976B986B996B6958
:106C6B00D075C047F074C046F020EE05F07450D9D3
:106C7B00267550DA22DECF48F0DECF49F0DECF4A60
:106C8B00F0DECF4BF0000E4D6E00019A0E4C6E26CF
:106C9B00EC5AF04750461044E075C047F074C046BC
:106CAB00F092C048F093C049F094C04AF095C04BA5
:106CBB00F09AC04CF09BC04DF09CC04EF09DC04F65
:106CCB00F018EC47F075C047F074C046F09AC04816
:106CDB00F09BC049F09CC04AF09DC04BF0FF0E4C9E
:106CEB00684D684E684F6818EC47F09AC092F09B5D
:106CFB00C093F09CC094F09DC095F0000199519603
:106D0B00119711981110E176C0D9FF77C0DAFF9A6D
:106D1B00C0DEFF9BC0DEFF9CC0DEFF9DC0DEFF031D
:106D2B00D0000E756E13D00001962B000E97239892
:106D3B0023992378500001965D795097597A509892
:106D4B00597B5099598DE3000E756E010E746E12BE
:106D5B00000101826B92519111D8B444EC29F001DE
:106D6B00019451931107E00001FD51FC1103E0FF69
:106D7B0051FE1105E1000E0001FD6FFC6FAAD00062
:106D8B000E01017F6B7E6B44D0010182813ED001ED
:106D9B000182830101828911D0010182A102D0827B
:106DAB008334D0010182A302D08281F3D701018207
:106DBB00A52CD082810101828382850101828B25E2
:106DCB00D00101828722D0FEC07CF1FFC07DF10192
:106DDB00017E517C277F517D237CC1F6FF7DC1F75E
:106DEB00FFF86A0800F5502B0AD7E06A0AE3E003C4
:106DFB000AE7E0100AC9E0050ACAE0360ADBE0033D
:106E0B000ADFE0100AC1E0050AC2E001017E4B7FF8
:106E1B002BFFC002F00001FEC001F07BEC22F00161
:106E2B00017F51800A7C6F01507E5D0250800A7C8D
:106E3B0059CAE3816B806B29EEA3F0DE50DD1002A3
:106E4B00E1D90E8217010182A10BD0FDC0F3F00036
:106E5B0001FCC0F2F036EC4EF0F2C080F1F3C081D1
:106E6B00F10101815180110DE182AB0BD0FDC0F31B
:106E7B00F00001FCC0F2F04AEC60F0F2C080F1F3DC
:106E8B00C081F1010182A182AB13D081518011101D
:106E9B00E182C17CF1060E7C170BE0FDC0F3F00024
:106EAB0001FCC0F2F036EC4EF0F2C080F1F3C08181
:106EBB00F101018151801108E022EE3FF08051D9A0
:106ECB00268151DA2282C1DFFF81C1FDF0000180F2
:106EDB00C1FCF01200000E1E6A1D6A1A6A196A14B0
:106EEB00C002F013C001F052EC22F001C023F002FB
:106EFB00C024F016C002F015C001F052EC22F001D4
:106F0B00C021F002C022F02328D8B4242805E121A7
:106F1B0028D8B4222801E0A4D02128D8B4222805EF
:106F2B00E12328D8B4242801E09BD02328D8B4240B
:106F3B002850E013C017F014C018F0235017262464
:106F4B0050182217281D6E000E18201E6E15C01724
:106F5B00F016C018F02150172622501822172819A6
:106F6B006E000E18201A6E1EC002F01DC001F07BC1
:106F7B00EC22F001C017F002C018F01AC002F01991
:106F8B00C001F07BEC22F00250181802E1015017FF
:106F9B001867E11EC008F01DC007F01AC00AF019EF
:106FAB00C009F01EC002F01DC001F07BEC22F00105
:106FBB00C00BF002C00CF0AFEC2AF00850071050D9
:106FCB00E123C01FF024C020F021C01BF022C01C05
:106FDB00F014D014C002F013C001F07BEC22F001CE
:106FEB00C01FF002C020F016C002F015C001F07BEC
:106FFB00EC22F001C01BF002C01CF014C002F01315
:10700B00C001F01FC003F020C004F06BEC25F001B1
:10701B00C01FF002C020F016C002F015C001F01B1B
:10702B00C003F01CC004F06BEC25F001C01BF00298
:10703B00C01CF01C50201802E11B501F1811E1144A
:10704B00C008F013C007F016C00AF015C009F01FF6
:10705B00C00BF020C00CF0AFEC2AF0085007100367
:10706B00E0000E146E03D0000E146E010E136E12A0
:10707B0000310E2024016E000E2120026E046A03E3
:10708B006A020E066E000E056A24EC20F020EE312B
:10709B00F02050D9262150DA22520EDF6E20EE322C
:1070AB00F02050D9262150DA22520EDF6E20EE331B
:1070BB00F02050D9262150DA22610EDF6E20EE34FB
:1070CB00F02050D9262150DA22410EDF6E22EE1528
:1070DB00F02050D9262150DA22720EDF6E22EE16E6
:1070EB00F02050D9262150DA22720EDF6E22EE17D5
:1070FB00F02050D9262150DA22410EDF6E22EE18F5
:10710B00F02050D9262150DA22610EDF6E22EE19C3
:10711B00F02050D9262150DA22DF6822EE1AF02017
:10712B0050D9262150DA22DF6822EE1BF02050D9ED
:10713B00262150DA22DF6822EE1CF02050D92621BE
:10714B0050DA22DF6822EE1DF02050D9262150DACA
:10715B0022DF6822EE1EF02050D9262150DA22DFE2
:10716B006822EE1FF02050D9262150DA22DF682248
:10717B00EE20F02050D9262150DA22DF6822EE2FA4
:10718B00F02050D9262150DA22550EDF6E22EE3038
:10719B00F02050D9262150DA22AA0EDF6E22C00928
:1071AB00F023C00AF024C00BF025C00CF0310E20E8
:1071BB0024266E000E2120276E200E0F6E27C00E88
:1071CB00F026C00DF0010E106E116A126A136A20C0
:1071DB00EE2BF02050D9262150DA22DECF28F0DD1D
:1071EB00CF29F001D809D00500FA6E2850FD6E2981
:1071FB0050FE6EFF6AFA5012000A50091004E000AC
:10720B000E216E010E02D0000E216E206E120018A0
:10721B00C02AF017C029F027682868010192519104
:10722B0011D8B444EC29F02A50291001E1C2D01D29
:10723B0050020A1E1006E11C5019101A101B1001E7
:10724B00E0B8D022EE39F02950D9262A50DA22DEC6
:10725B0068DE68DE68DD6822EE3DF02950D9262A0B
:10726B0050DA22DE6ADD6A1E501D100FE120EE0897
:10727B00F02950D9262A50DA2219C0DEFF1AC0DEB7
:10728B00FF1BC0DEFF1CC0DEFF13D01D041E1071E0
:10729B00E11CBE34D020EE08F02950D9262A50DA52
:1072AB00221950DE261A50DE221B50DE221C50DD26
:1072BB002220EE08F02950D9262A50DA22DECF1FE1
:1072CB00F0DECF20F0DECF21F0DECF22F020EE0C6F
:1072DB00F02950D9262A50DA22DECF23F0DECF2434
:1072EB00F0DECF25F0DECF26F01F50235C2050249C
:1072FB0058215025582250265856E23FD01C1E1BB1
:10730B001E1A1E196C000E1A221B221C2220EE08BC
:10731B00F02950D9262A50DA22DECF1FF0DECF20FB
:10732B00F0DECF21F0DECF22F019501F5C1A502077
:10733B00581B5021581C5022580BE220EE08F02904
:10734B0050D9262A50DA22DE6ADE6ADE6ADD6A2B23
:10735B00D020EE08F02950D9262A50DA221950DE17
:10736B005E1A50DE5A1B50DE5A1C50DD5ADD52DDC0
:10737B00521AD01D50020A1E101AE120EE0CF029F1
:10738B0050D9262A50DA2210EE08F02950E1262A8D
:10739B0050E222DECFE6FFDECFE6FFDECFE6FFDDFB
:1073AB00CFE5FFE552E552000E286E276E02D0277F
:1073BB00682868120020EE28F04650D9264750DA8C
:1073CB0022DF5001E1CBD047C035F046C034F0206E
:1073DB00EE17F04650D9264750DA22DECF4CF0DEBE
:1073EB00CF4DF0DECF4EF0DECF4FF020EE15F04656
:1073FB0050D9264750DA22DECF50F0DDCF51F05076
:10740B00504C24366E51504D20376E000E4E2038A6
:10741B006E000E4F20396E82EC43F034C052F035C3
:10742B00C053F05350521001E199D022EE06F052A6
:10743B0050D9265350DA2211EEECF0DE50E126DD66
:10744B0050E22248C0E7FF22EE06F05250D92653F5
:10745B0050DA2211EEEDF0DE50E126DD50E222494A
:10746B00C0E7FF22EE06F05250D9265350DA221114
:10747B00EEEEF0DE50E126DD50E2224AC0E7FF22BD
:10748B00EE06F05250D9265350DA2211EEEFF0DE11
:10749B0050E126DD50E2224BC0E7FF22EE04F05212
:1074AB0050D9265350DA22010EDE6EDD6A20EE1F14
:1074BB00F04650D9264750DA2248C0DEFF49C0DEDD
:1074CB00FF4AC0DEFF4BC0DEFF20EE2BF04650D94B
:1074DB00264750DA22DE50DD102EE022EE00F0526D
:1074EB0050D9265350DA22DECF09F0DECF0AF0DE78
:1074FB00CF0BF0DECF0CF0200E0F6E53C00EF05200
:10750B00C00DF0010E106E116A126A136A20EE2B79
:10751B00F04650D9264750DA22DECF4CF0DDCF4D66
:10752B00F001D809D00500FA6E4C50FD6E4D50FE9F
:10753B006EFF6AFA50120022EE00F05250D9265319
:10754B0050DA22DE68DE68DE68DD6822EE04F05277
:10755B0050D9265350DA22000EDE6EDD6E1200007B
:10756B0001C06BBF6BBE6BBD6BBC6B20EE2BF0AC6D
:10757B0051D926AD51DA22DE50DD1001E1D2D0AD6A
:10758B00C081F0ACC080F0AEC082F0AFC083F0B071
:10759B00C084F0B1C085F00001BC51B86FBD51B9CA
:1075AB006FBC4BBD2BB8C086F0B9C087F0000E87FF
:1075BB00BFFF0E886F896F000E8B6B8A6BD6EC52F8
:1075CB00F000018151801101E1ACD0C06B0F0EC0F6
:1075DB006501D0D5D70001C051200DF3CFBEF0F41B
:1075EB00CFBFF0ACC0B8F0ADC0B9F0BE51B827BF3B
:1075FB0051B923310EB825C16F000EB921C26FC22C
:10760B00C002F0C1C001F0FAEC1FF00250011001F2
:10761B00E082D0C2C002F00001C1C001F0A4EC2294
:10762B00F00250011078E1C2C002F00001C1C001AC
:10763B00F0D0EC24F0025001106EE0C2C002F0C199
:10764B00C001F0B3C004F00001B2C003F0066A0B36
:10765B000E056E11EC26F0025001105DE120EE1CC0
:10766B00F00001C151D926C251DA22B4C0DEFFB5F8
:10767B00C0DEFFB6C0DEFFB7C0DEFFACC0B8F0ADFA
:10768B00C0B9F0BE51B827BF51B923310EB825018F
:10769B006E000EB921026E200E056EC2C004F0C141
:1076AB00C003F0076A066EAEEC23F022EE31F00059
:1076BB0001AC51D926AD51DA22DECF09F0DECF0A6B
:1076CB00F0DECF0BF0DECF0CF0310EAC25B86F0037
:1076DB000EAD21B96F200E0F6EB9C00EF0B8C00DF4
:1076EB00F0010E106E116A126A136A20EE2BF0ACC9
:1076FB0051D926AD51DA22DECFBAF0DDCFBBF00186
:10770B00D810D00500FA6E0001BA51FD6EBB51FEC8
:10771B006EFF6AFA5012000001C02B0F0EC0655AA3
:10772B00D72ED712000001BC6BBB6BBA6BB96BB811
:10773B006B20EE2BF0AC51D926AD51DA22DE50DDA9
:10774B001001E1CFD0ADC081F0ACC080F0AEC082F3
:10775B00F0AFC083F0B0C084F0B1C085F00001B8C9
:10776B0051B46FB951B56FB84BB92BB4C086F0B5E6
:10777B00C087F0000E87BFFF0E886F896F000E8BDE
:10778B006B8A6BD6EC52F000018151801101E1A99B
:10779B00D0BC6B0F0EBC6501D0D5D70001BC5120FE
:1077AB000DF3CFBAF0F4CFBBF0ACC0B4F0ADC0B5B5
:1077BB00F0BA51B427BB51B523310EB425BD6F00C0
:1077CB000EB521BE6FBEC002F0BDC001F0FAEC1FBA
:1077DB00F00250011001E07FD0BEC002F00001BDED
:1077EB00C001F0A4EC22F00250011075E1BEC00202
:1077FB00F00001BDC001F0D0EC24F0025001106B81
:10780B00E0BEC002F0BDC001F0B3C004F00001B295
:10781B00C003F0066A0B0E056E11EC26F002500148
:10782B00105AE1BDC0D9FFBEC0DAFFE50EDF6EAC6A
:10783B00C0B4F0ADC0B5F00001BA51B427BB51B51F
:10784B0023310EB425016E000EB521026E200E05FC
:10785B006EBEC004F0BDC003F0076A066EAEEC232B
:10786B00F022EE31F00001AC51D926AD51DA22DE17
:10787B00CF09F0DECF0AF0DECF0BF0DECF0CF0310C
:10788B000EAC25B46F000EAD21B56F200E0F6EB58B
:10789B00C00EF0B4C00DF0010E106E116A126A1317
:1078AB006A20EE2BF0AC51D926AD51DA22DECFB6E1
:1078BB00F0DDCFB7F001D80AD00500FA6E0001B6A3
:1078CB0051FD6EB751FE6EFF6AFA50120009C0AC43
:1078DB00F00AC0ADF00AD00001BC2B0F0EBC655DE9
:1078EB00D731D7000E0001AD6FAC6F1200235022C1
:1078FB001001E1DED022EE04F02250D9262350DA1B
:10790B0022DE50DD1001E1D0D020EE2BF02050D93B
:10791B00262150DA22DE50DD1001E1BDD0010E2C04
:10792B006E2D6A2E6A2F6A22EE00F02250D9262382
:10793B0050DA22DECF24F0DECF25F0DECF26F0DECC
:10794B00CF27F020EE11F02050D9262150DA22DE7D
:10795B00CF28F0DECF29F0DECF2AF0DECF2BF028B8
:10796B001E291E2A1E2B1E282A000E29222A222BF4
:10797B002224502824306E25502920316E26502A7F
:10798B0020326E27502B20336E3028246E000E31A0
:10799B0020256E000E3220266E000E3320276E201F
:1079AB00EE1BF02050D9262150DA22DECF28F0DE54
:1079BB00CF29F0DECF2AF0DECF2BF02450285C2528
:1079CB0050295826502A5827502B5806E3010E2CC5
:1079DB006E000E2D6A2E6A2AD020EE1BF02050D995
:1079EB00262150DA22DECF24F0DECF25F0DECF26A3
:1079FB00F0DECF27F030C028F031C029F032C02A9A
:107A0B00F033C02BF0281E291E2A1E2B1E282A00FD
:107A1B000E29222A222B22245028242C6E25502971
:107A2B00202D6E26502A202E6E27502B202F6E22B3
:107A3B00EE00F02250D9262350DA22DECF09F0DEF9
:107A4B00CF0AF0DECF0BF0DECF0CF0200E0F6E2343
:107A5B00C00EF022C00DF02CC010F02DC011F02E76
:107A6B00C012F02FC013F020EE2BF02050D926219E
:107A7B0050DA22DECF24F0DDCF25F001D809D00576
:107A8B0000FA6E2450FD6E2550FE6EFF6AFA5012FE
:107A9B00000A5009100DE022EE04F02250D92623E3
:107AAB0050DA22000EDE6EDD6E000E216E010E022C
:107ABB00D0000E216E206E1200176A166A196A1812
:107ACB006A1C6A1B6A0850071001E1E1D00E508056
:107ADB000AF36E800EF35C010ED8B40D5C01E2D795
:107AEB00D007C0F6FF08C0F7FF000EF86E0F0EF7B9
:107AFB006403D00800F55005D0F6CFE9FFF7CFEAC5
:107B0B00FFEF502F0A05E12F0E1A6E074A082A388D
:107B1B00D007280F6E000E0820106E0FC0F6FF1056
:107B2B00C0F7FF000EF86E0F0EF76403D00800F5D8
:107B3B005005D0F6CFE9FFF7CFEAFFEF503A0A1A1C
:107B4B00E0020E07240F6E000E0820106E0FC0F619
:107B5B00FF10C0F7FF000EF86E0F0EF76403D0088E
:107B6B0000F55005D0F6CFE9FFF7CFEAFFEF505CF9
:107B7B000A01E08DD05C0E1A6E030E0726000E086C
:107B8B002208C002F007C001F07BEC22F001C01606
:107B9B00F002C017F0156A146A5FD007C0F6FF0831
:107BAB00C0F7FF000EF86E0F0EF76403D00800F558
:107BBB005005D0F6CFE9FFF7CFEAFFEF501A1802C6
:107BCB00E1184A192A0A50191802E10950181840ED
:107BDB00E107C0F6FF08C0F7FF000EF86E0F0EF7B7
:107BEB006403D00800F55005D0F6CFE9FFF7CFEAD4
:107BFB00FFEF501A182DE00F6810680DC011F00E32
:107C0B00C012F00F501126105012221C50800A1374
:107C1B006E11501B5C1250800A13581AE207C0F603
:107C2B00FF08C0F7FF000EF86E1B500B24D96E1C1B
:107C3B00500C20DA6E0F0EF76403D00800F55005D8
:107C4B00D0F6CFE9FFF7CFEAFFEF50DF6E1B4A1CF0
:107C5B002A074A082A144A152A1550800A0F6E164D
:107C6B0050145C1750800A0F5898E31B500B24D903
:107C7B006E1C500C20DA6E000EDF6E0BC0D9FF0CA1
:107C8B00C0DAFFDF5004E0000E086E076E02D0076B
:107C9B0068086812000101AA6BFA0E076EFE0E0649
:107CAB006E3CEC1FF0010E026E0101AF0E016E9FD8
:107CBB00EC1FF0010E036E0101AF0E026E2CEC21D6
:107CCB00F0770EB7EC30F0020A02E1000E08D07725
:107CDB000EB7EC30F00101896F890504E1010E014B
:107CEB0001AA6F03D00101AA51D7E00101AA5101EA
:107CFB00E1CCD0720EB7EC30F0020E0001FD6F89B3
:107D0B000EFC6FFF0EFF6FFD0EFE6FAEEC36F0FC40
:107D1B00C097F1FDC098F101019851971158E09867
:107D2B00C1DFF0000197C1DEF03DEC32F0FB0E0736
:107D3B006E4C0E066E3CEC1FF024EC1FF00101A6FE
:107D4B006FA651790A31E1020E0101846F890E830E
:107D5B006F49EC2DF0010184BF06D0FE0E076EC6F5
:107D6B000E066E3CEC1FF0020E0001FD6F890EFC3F
:107D7B006FFF0EFF6FFD0EFE6FAEEC36F0FCC09783
:107D8B00F1FDC098F101019851971107E098C1DFFF
:107D9B00F0000197C1DEF03DEC32F00101985197F4
:107DAB0011D2E1010EAA6F0CD00101A6516E0A028D
:107DBB00E1AA6B0DD0FF0E076E040E066E3CEC1F96
:107DCB00F00101A6516E0A03E0A651790AB5E177DD
:107DDB000EB7EC30F0020E0001FD6F890EFC6FFF49
:107DEB000EFF6FFB0EFE6FAEEC36F0FCC097F1FD95
:107DFB00C098F10101AA6BFC0E076E8B0E066E3C50
:107E0B00EC1FF001019851971133E024EC1FF001A6
:107E1B0001F76FF7510FEC20F00101F751130A0E28
:107E2B00E1FF0E076E640E066E3CEC1FF024EC1F98
:107E3B00F00101F76FF751790A14E0E7D7200E0034
:107E4B0001E06F010EDF6FF70EDE6FE26B010EE1EB
:107E5B006FE46BE36F98C1E6F097C1E5F0EEEC6C65
:107E6B00F0D4D7FD0E076EB20E066E3CEC1FF0067B
:107E7B00D0FC0E076E3E0E066E3CEC1FF098C1DF79
:107E8B00F0000197C1DEF03DEC32F0120020EE283D
:107E9B00F00150D9260250DA22DF5001E08AD020BF
:107EAB00EE01F00150D9260250DA22DECF07F0DEC8
:107EBB00CF08F0DECF09F0DECF0AF001C0D9FF0208
:107ECB00C0DAFFDF500B6E0BC00CF00D6A0E6A0FA1
:107EDB006AFE0E0324106EFF0E0420116EFF0E05BA
:107EEB0020126EFF0E0620136E10500C02F3CF14EF
:107EFB00F0F4CF15F0166A176A0D02F3501526F43D
:107F0B00501622000E172211500C02F3501526F4B6
:107F1B00501622000E172210500E02F3501626F4A4
:107F2B0050172211500D02F3501626F4501722123F
:107F3B00500C02F3501626F45017220F501002F378
:107F4B0050172611500E02F350172612500D02F344
:107F5B0050172613500C02F350172620EE23F00176
:107F6B0050D9260250DA22DECF18F0DDCF19F004FB
:107F7B000E1A6ED890193218321A2EFBD77F0E18A4
:107F8B0016196A185014241B6E195015201C6E00FC
:107F9B000E16201D6E000E17201E6E07501B24019F
:107FAB006E08501C20026E09501D20036E0A501ED5
:107FBB002069D020EE01F00150D9260250DA22DEE2
:107FCB00CF07F0DECF08F0DECF09F0DECF0AF001ED
:107FDB00C0D9FF02C0DAFFDF500B6E0BC00CF00DE7
:107FEB006A0E6A0F6AFE0E0324106EFF0E04201138
:107FFB006EFF0E0520126EFF0E0620136E10500C36
:10800B0002F3CF14F0F4CF15F0166A176A0D02F3D2
:10801B00501526F4501622000E172211500C02F3A5
:10802B00501526F4501622000E172210500E02F394
:10803B00501626F450172211500D02F3501626F449
:10804B0050172212500C02F3501626F45017220F21
:10805B00501002F350172611500E02F35017261230
:10806B00500D02F350172613500C02F3501726072E
:10807B00501424016E08501520026E09501620036F
:10808B006E0A501720046E120021EEDEF010EE1A6D
:10809B00F00A0EDECFE6FFE82EFCD70EC002F00D85
:1080AB00C001F07BEC22F001C028F002C029F00ED9
:1080BB00C00AF00DC009F04DEC21F009C024F00A04
:1080CB00C025F0050E1102F3CF14F0F4CF15F0120A
:1080DB0002F350152614C02AF015C02BF010C00265
:1080EB00F00FC001F0046A036A066A200E056E24C5
:1080FB00EC20F01468156824C016F025C017F01496
:10810B00501626155017221250171802E11150164F
:10811B001805E01128266E000E122009D011281424
:10812B006E000E1220156E400E1410266E15502781
:10813B006E0FC0D9FF10C0DAFF26C0DFFF20EE0B99
:10814B00F00F50D9261050DA220F0EDF6E20EE0DF5
:10815B00F00F50D9261050DA2213C0DFFF2D6A2CF6
:10816B006A2D50800A800F050ED8B42C5C01E39762
:10817B00D02AC014F02BC015F02C5014262D5015FE
:10818B00221550800A166E2850145C2950800A164E
:10819B005828E22AC014F02BC015F02C5014262DB1
:1081AB0050152214500D24D96E15500E20DA6E1A6C
:1081BB000E166E000E176ED8902C34E16E2D34E235
:1081CB006E1650E1261750E222E6CF18F0E5CF19D4
:1081DB00F018500F24E16E19501020E26EDFCFE73C
:1081EB00FF5BD02AC014F02BC015F02C5014262D99
:1081FB005015222950151802E12850141819E11AAC
:10820B000E146E000E156ED8902C34D96E2D34DAF8
:10821B006E1450D9261550DA22DECF16F0DDCF17AB
:10822B00F016500F24D96E17501020DA6E000E3353
:10823B00D01A0E146E000E156ED8902C34D96E2DEC
:10824B0034DA6E1450D9261550DA22DECF16F0DD53
:10825B00CF17F016500F24D96E17501020DA6EDF9F
:10826B00681A0E146E000E156ED8902C34D96E2D24
:10827B0034DA6E1450D9261550DA22DECF16F0DD23
:10828B00CF17F0162A000E172216500F24D96E178F
:10829B00501020DA6EFF0EDF6E2C4A2D2A61D7129A
:1082AB0000FC0E076E650E066E3CEC1FF0010E0215
:1082BB006E0101AF0E016E9FEC1FF0010E036E01FC
:1082CB0001AF0E026E2CEC21F0770EB7EC30F00202
:1082DB000E0001FD6FA70EFC6FFF0EFF6FF90EFE78
:1082EB006FAEEC36F0FCC097F1FDC098F198C19AD7
:1082FB00F197C199F101019851971101E1DBD0FB85
:10830B000E076EB30E066E3CEC1FF024EC1FF00153
:10831B0001F76FF751230A4EE1FD0E076E170E069C
:10832B006E3CEC1FF024EC1FF00101AE6FAC6B0147
:10833B000E0001DF6FF70EDE6FE16B010EE06FE3F6
:10834B006BE26F98C1E5F097C1E4F00EEC65F001BC
:10835B0001F7510D0A05E1530E0FEC20F00101ACB2
:10836B002B0101AE51AC63E3D7010E0001DF6FF7B8
:10837B000EDE6FE16B010EE06FE36BE26F98C1E510
:10838B00F097C1E4F00EEC65F00101F7510D0A0115
:10839B00E18AD00001E06BDF6B200EDE6FE26B0138
:1083AB000EE16FE46BE36F98C1E6F097C1E5F0EE79
:1083BB00EC6CF0DAD70101F7517F0A50E1730E0F25
:1083CB00EC20F098C118F097C117F0FF0E19681A3E
:1083DB00681B681C6898C108F0010197C107F05130
:1083EB00EC20F007C083F108C084F109C085F10AC5
:1083FB00C086F183C11DF084C11EF00DEC39F00075
:10840B0001E06BDF6B200EDE6FE26B010EE16FE4C0
:10841B006BE36F98C1E6F097C1E5F0EEEC6CF0986A
:10842B00C118F097C117F0FF0E19681A681B681C6A
:10843B006898C108F0010197C107F051EC20F007D3
:10844B00C083F108C084F109C085F10AC086F183AD
:10845B00C11DF084C11EF00DEC39F012D00101F7F3
:10846B0051130A0EE1FE0E076EB00E066E3CEC1FAA
:10847B00F024EC1FF00101F76FF751790A14E04576
:10848B00D7200E0001E06F010EDF6FF70EDE6FE2FB
:10849B006B010EE16FE46BE36F98C1E6F097C1E5FA
:1084AB00F0EEEC6CF032D7FD0E076EB40E066E3CA0
:1084BB00EC1FF006D0FF0E076E510E066E3CEC1F44
:1084CB00F098C1DFF097C1DEF03DEF32F022EE3BCA
:1084DB00F00950D9260A50DA22DE6ADD6A146A13D3
:1084EB006A1450800A800F010ED8B4135C01E303A9
:1084FB00D13D0E0B6E020E0C6E0A0E0D6E020E0EA1
:10850B006E0D501302F3CF0FF0F4CF10F01402F3F3
:10851B005010260E501302F35010260B500F260C42
:10852B0050102209C011F00AC012F00F5011261082
:10853B00501222000E1124D96E020E1220DA6EDEBA
:10854B0068DE68DE68DD683D0E0B6E020E0C6E0A8F
:10855B000E0D6E020E0E6E0D501302F3CF0FF0F4D4
:10856B00CF10F01402F35010260E501302F35010DC
:10857B00260B500F260C50102209C011F00AC01206
:10858B00F00F50112610501222040E1124D96E0236
:10859B000E1220DA6EDE6ADD6A3D0E0B6E020E0CD9
:1085AB006E0A0E0D6E020E0E6E0D501302F3CF0FF0
:1085BB00F0F4CF10F01402F35010260E501302F308
:1085CB005010260B500F260C5010220F500924016F
:1085DB006E10500A20026E046A036A020E066E00C9
:1085EB000E056A24EC20F03D0E0B6E020E0C6E0A8B
:1085FB000E0D6E020E0E6E0D501302F3CF0FF0F434
:10860B00CF10F01402F35010260E501302F350103B
:10861B00260B500F260C50102209C011F00AC01265
:10862B00F00F50112610501222060E1124D96E0293
:10863B000E1220DA6EDE6ADD6A22EE3BF00950D9AB
:10864B00260A50DA223D0E0B6E020E0C6E0A0E0D30
:10865B006E020E0E6E0D501302F3CF0FF0F4CF100F
:10866B00F01402F35010260E501302F35010260B89
:10867B00500F260C50102209C011F00AC012F00F37
:10868B0050112610501222080E1124E16E020E1208
:10869B0020E26EDECFE6FFDDCFE5FF3D0E0B6E0277
:1086AB000E0C6E0A0E0D6E020E0E6E0D501302F3B3
:1086BB00CF0FF0F4CF10F01402F35010260E50131E
:1086CB0002F35010260B500F260C50102209C0112C
:1086DB00F00AC012F00F5011261050122222EE3B5E
:1086EB00F00950D9260A50DA2211C0DEFF12C0DD84
:1086FB00FF134A142AF5D61200436A426A22EE3B54
:10870B00F03450D92635505CD022EE00F04450D9CD
:10871B00264550DA22DECF3AF0DECF3BF0DECF3CFF
:10872B00F0DECF3DF03A50365C3B5037583C50387A
:10873B00583D50395822E322EE00F04450D92645DB
:10874B0050DA22DECF3AF0DECF3BF0DECF3CF0DE6C
:10875B00CF3DF03A283E6E000E3B203F6E000E3CA4
:10876B0020406E000E3D20416E3E50365C3F503730
:10877B005840503858415039582BE322EE08F044FA
:10878B0050D9264550DA22DE50DD1011E14350421C
:10879B001006E022EE08F04250D926435005D022B5
:1087AB00EE3BF03450D9263550DA22DE6ADD6A45CD
:1087BB00C043F044C042F022EE08F04450D92645A5
:1087CB0050DA22DECF44F0DDCF45F0455044109C0B
:1087DB00E1455044102BE022EE00F04450D92645E1
:1087EB0050DA22DECF3AF0DDCF3BF03A1E3B1E3A99
:1087FB004A3B2A36503A2637503B22090ED8903A3C
:10880B00363B36E82EFBD744C03CF045C03DF03A32
:10881B00503C263B503D2222EE06F04450D92645D3
:10882B0050DA223CC0DEFF3DC0DDFF8BD043C0459C
:10883B00F042C044F022EE3BF03450D9263550DAEA
:10884B002212EE08F04450E1264550E222DECFE63C
:10885B00FFDDCFE5FF22EE3BF03450D9263550DA61
:10886B002244C0DEFF45C0DDFF22EE04F04450D9A8
:10887B00264550DA22DE50DD100DE035C021F034F4
:10888B00C020F045C023F044C022F07CEC3CF0212A
:10889B0050201049E022EE00F04450D9264550DA22
:1088AB002236C0DEFF37C0DEFF38C0DEFF39C0DE48
:1088BB00FF22EE00F04450D9264550DA22DECF09D4
:1088CB00F0DECF0AF0DECF0BF0DECF0CF045C00EA2
:1088DB00F044C00DF0010E0F6E106A116A126A207F
:1088EB00EE29F03450D9263550DA22DECF3AF0DDBE
:1088FB00CF3BF001D809D00500FA6E3A50FD6E3B24
:10890B0050FE6EFF6AFA5012000A50091010E12255
:10891B00EE00F04450D9264550DA22DE68DE68DEE0
:10892B0068DD68DD52DD52000E356E346E0ED022DE
:10893B00EE06F04450D9264550DA2244C0DEFF45FE
:10894B00C0DDFF45C035F044C034F012000001A774
:10895B0051A411A511A61101E1D4D020EE1FF09E58
:10896B0051D9269F51DA22DECFA8F0DECFA9F0DE57
:10897B00CFAAF0DECFABF0A829D8B4A929D8B4AAD6
:10898B0029D8B4AB290BE09FC047F09EC046F0FF3F
:10899B000E486849684A684B68E0EC39F00001A85A
:1089AB006B020EA96F9EC0D9FF9FC0DAFFDF50AAE2
:1089BB006FAB6BA851AA03F3CFACF0F4CFADF0AB18
:1089CB0003F350AD27A951AA03F350AD27ACC0B0A8
:1089DB00F0ADC0B1F0000EB1BFFF0EB26FB36FA41C
:1089EB00C001F0A5C002F0A6C003F0A7C004F0B010
:1089FB00C005F0B1C006F0B2C007F0B3C008F085F7
:108A0B00EC26F001C0B4F002C0B5F003C0B6F00420
:108A1B00C0B7F00001B051B403F3CFA8F0F4CFA965
:108A2B00F0AA6BAB6BB503F350A927F450AA230044
:108A3B000EAB23B151B403F350A927F450AA230072
:108A4B000EAB23B051B603F350AA27F450AB23B1AE
:108A5B0051B503F350AA27F450AB23B251B403F32F
:108A6B0050AA27F450AB23B751B003F350AB27B147
:108A7B0051B603F350AB27B251B503F350AB27B349
:108A8B0051B403F350AB27A81FA91FAA1FAB1FA8F4
:108A9B002B000EA923AA23AB23A451A825AC6FA5A9
:108AAB0051A921AD6FA651AA21AE6FA751AB21AF32
:108ABB006FAF51AC11AD11AE1105E0B42B000EB57B
:108ACB0023B623B7230001A151A01145E09FC04756
:108ADB00F09EC046F020EE05F09E51D9269F51DA4C
:108AEB0022DECF48F0DECF49F0DECF4AF0DECF4BAF
:108AFB00F0000E4D6EB80E4C6E26EC5AF0475046F9
:108B0B001004E1000E00019F6F4CD00001B405B5BD
:108B1B0011B611B7112CE19FC047F09EC046F0B8BB
:108B2B00C048F0B9C049F0BAC04AF0BBC04BF0FF27
:108B3B000E4C684D684E684F6818EC47F0A2C0D9D0
:108B4B00FFA3C0DAFFB8C0DEFFB9C0DEFFBAC0DEDC
:108B5B00FFBBC0DEFF22D0A2C0D9FFA3C0DAFFDE6D
:108B6B00CFB8F0DECFB9F0DECFBAF0DECFBBF09FDF
:108B7B00C075F09EC074F0000E776E0001B80E76D3
:108B8B006EB4C078F0B5C079F0B6C07AF0B7C07BE0
:108B9B00F002EC36F075507410B4E0000E00019F3B
:108BAB006F010E00019E6F1200000E1A6E0F0E1950
:108BBB006E2CD12050250A04E020502CEC1FF02500
:108BCB00D11B6A40D01B8E54D019C0D9FF1AC0DA02
:108BDB00FFDECF1CF0DDCF1DF0020E1926000E1AA2
:108BEB00221D501C101AE1FF0E1D6ED90E1C6E15A6
:108BFB00D01CC0F6FF1DC0F7FF000EF86E0F0EF76E
:108C0B006403D00800F55005D0F6CFE9FFF7CFEAA3
:108C1B00FFEF502CEC1FF01C4A1D2A1CC0F6FF1D49
:108C2B00C0F7FF000EF86E0F0EF76403D00800F5C7
:108C3B005005D0F6CFE9FFF7CFEAFFEF500009015F
:108C4B00E1E4D0D6D70DC0F6FF0EC0F7FF0D4A0EEC
:108C5B002AF86A0800F5CF20F0205001E1E2D06439
:108C6B000A07E00D0A05E01A0AAFE00B0AABE0CDEC
:108C7B00D01BBE1CD019C0D9FF1AC0DAFFDECF1C27
:108C8B00F0DDCF1DF0020E1926000E1A221D5080AA
:108C9B000AF36E800EF35C000ED8B41C5C4EE2033C
:108CAB000E1B121C6C1D1ED8B01D2A47D019C0D923
:108CBB00FF1AC0DAFFDECF1CF0DDCF1DF0020E195C
:108CCB0026000E1A223AD0010E206E2050050A3AC9
:108CDB00E02050020D5A0EF324F66EFA0EF420F734
:108CEB006EF86A000EF8220900F5CF15F00900F5B1
:108CFB00CF16F015501C5C16501D5824E3202AE5A6
:108D0B00D7010E206E2050040A1DE02050020D6486
:108D1B000EF324F66EFA0EF420F76EF86A000EF8D6
:108D2B00220900F5CF15F00900F5CF16F015501CF0
:108D3B005C16501D5807E3202AE5D71B50800BC348
:108D4B00E0800ADEE01BC015F0030E151603E02DC4
:108D5B000E2CEC1FF020C018F055D01850020D5AF5
:108D6B000EF324F66EFA0EF420F76EF86A000EF886
:108D7B00220900F5CF03F00A00F5CF04F01CC00167
:108D8B00F01DC002F0B5EC21F001C008F002C009E3
:108D9B00F00B6A0A0E0A6E0DEC21F00850300F2012
:108DAB006E2ED01CC001F01DC002F01850020D64D5
:108DBB000EF324F66EFA0EF420F76EF86A000EF836
:108DCB00220900F5CF03F00A00F5CF04F0B5EC2132
:108DDB00F001500F0B176E1750010D760EF324F6A2
:108DEB006EFF0EF420F76EF86A000EF8220800F5FD
:108DFB00CF20F005D01B50800BB0E0800AD2E020D2
:108E0B00502CEC1FF018061828F5E10DC0F6FF0EDC
:108E1B00C0F7FF0D4A0E2AF86A0800F5CF20F020A4
:108E2B0066C8D6120020EE28F04650D9264750DAF5
:108E3B0022DF5010E148C050F049C051F04AC052F7
:108E4B00F04BC053F051C050F052C051F053C052D0
:108E5B00F0536A11D048C050F049C051F04AC0528B
:108E6B00F04BC053F0080E05D0D89053325232510C
:108E7B00325032E82EF9D750C058F051C059F05249
:108E8B00C05AF053C05BF047C035F046C034F020F9
:108E9B00EE11F04650D9264750DA22DECF50F0DEE5
:108EAB00CF51F0DECF52F0DECF53F0585050243676
:108EBB006E59505120376E5A505220386E5B5053BA
:108ECB0020396E82EC43F034C060F035C061F06144
:108EDB0050601001E1F4D020EE28F04650D926471F
:108EEB0050DA22DF5054E158C051F059C052F05AB9
:108EFB00C053F0506A501E511E521E531E502A0072
:108F0B000E51225222532248505024546E49505134
:108F1B0020556E4A505220566E4B505320576ED8E8
:108F2B009054345C6E55345D6E56345E6E57345FC0
:108F3B006E22EE06F06050D9266150DA22DECF5059
:108F4B00F0DDCF51F05C505024D96E5D505120DADA
:108F5B006E4CC0DFFF5C28506E000E5D20516E2200
:108F6B00EE06F06050D9266150DA22DECF52F0DDEA
:108F7B00CF53F050505224D96E51505320DA6E4DCE
:108F8B00C054F054C055F0566A5550DF6E8ED05811
:108F9B00C050F059C051F05AC052F05BC053F007AB
:108FAB000ED8905036513652365336E82EF9D750EC
:108FBB001E511E521E531E502A000E512252225376
:108FCB002248505024546E49505120556E4A5052ED
:108FDB0020566E4B505320576E020ED89054365578
:108FEB003656365736E82EF9D754C05CF055C05D6F
:108FFB00F056C05EF057C05FF022EE06F06050D91D
:10900B00266150DA22DECF50F0DDCF51F05C5050AC
:10901B0024D96E5D505120DA6E4CC0DFFF5C2850B6
:10902B006E000E5D20516E22EE06F06050D9266167
:10903B0050DA22DECF52F0DDCF53F050505224D90C
:10904B006E51505320DA6E4DC0DFFF020E5C245080
:10905B006E000E5D20516E22EE06F06050D9266137
:10906B0050DA22DECF52F0DDCF53F050505224D9DC
:10907B006E51505320DA6E4EC0DFFF030E5C24504E
:10908B006E000E5D20516E22EE06F06050D9266107
:10909B0050DA22DECF52F0DDCF53F050505224D9AC
:1090AB006E51505320DA6E4FC0DFFF22EE04F0609A
:1090BB0050D9266150DA22010EDE6E000EDD6E12E3
:1090CB000019681A680CC002F00BC001F07BEC228F
:1090DB00F001C015F002C016F02E0E0BC0D9FF0C1C
:1090EB00C0DAFFDF6201D03BD10AC002F009C00138
:1090FB00F0046A200E036E066A0B0E056E24EC203C
:10910B00F0000E026E120E016E046A200E036E0644
:10911B006A030E056E24EC20F01C6A1B6A0FD01B31
:10912B00500B24D96E1C500C20DA6E2E0EDF62040D
:10913B00D01BC019F01CC01AF01B4A1C2A1C5080F3
:10914B000A0D6E15501B5C1650800A0D58E8E3197A
:10915B0028D8B41A283FE019281B6E000E1A201CC1
:10916B006E26D01C50800A0D6E15501B5C1650805D
:10917B000A0D581BE21B500B24D96E1C500C20DA25
:10918B006E19280D6E000E1A200E6E0D1E0E1E0D82
:10919B004A0E2A1B500D261C500E22120E0D24E1D6
:1091AB006E000E0E20E26EDFCFE7FF1B4A1C2A0477
:1091BB000E19240D6E000E1A200E6E1C50800A0F15
:1091CB006E0D501B5C0E50800A0F58CBE319C01567
:1091DB00F01AC016F0186A176A1C6A1B6A4CD01B6F
:1091EB00500B24D96E1C500C20DA6EDF50200A3D38
:1091FB00E01B500B24D96E1C500C20DA6EDF502E66
:10920B000A34E01B500B24D96E1C500C20DA6E6014
:10921B000EDF641BD01B500B24D96E1C500C20DAB4
:10922B006EDF500D6E7B0E0D5C10E217500924D9CA
:10923B006E18500A20DA6E1B500B24E16E1C500C7A
:10924B0020E26EE750E00FDF6E0ED01B500B24D9DF
:10925B006E1C500C20DA6E17500924E16E18500A60
:10926B0020E26EDFCFE7FF174A182A1750080A18BB
:10927B00100BE01B4A1C2A1C50800A0D6E15501B4C
:10928B005C1650800A0D58ABE31C6A080E1B6E1C53
:10929B0050800A800F0B0ED8B41B5C61E2F80E0DE8
:1092AB006E0E681BC00FF01CC010F00D500F260E79
:1092BB00501022120E0F24D96E000E1020DA6E60A1
:1092CB000EDF6431D0F80E0D6E0E681BC00FF01C54
:1092DB00C010F00D500F260E501022120E0F24D975
:1092EB006E000E1020DA6EDF50116E7B0E115C1BC0
:1092FB00E21B500924D96E1C500A20DA6EF80E0DB1
:10930B006E0E681BC00FF01CC010F00D500F260E18
:10931B00501022120E0F24E16E000E1020E26EE7A9
:10932B0050E00FDF6E19D0F80E0D6E0E681BC00FDC
:10933B00F01CC010F00D500F260E501022120E0F05
:10934B0024D96E000E1020DA6E1B500924E16E1C1E
:10935B00500A20E26EDFCFE7FF1B4A1C2A98D71278
:10936B00000101156B146B136B186B0E6B0D6B10EF
:10937B006B0F6B126B116B010E0A6E190E096E0CD3
:10938B006A010E0B6E7FEC23F0ADC081F0ACC08098
:10939B00F0AEC082F0AFC083F0B0C084F0B1C08536
:1093AB00F001010D510001B66F01010E510001B723
:1093BB006F01010D4B0E2BB6C086F0B7C087F000C6
:1093CB000E000187BFFF0E886F896F000E8B6B8AB3
:1093DB006BD6EC52F000018151801101E138D101C3
:1093EB0001156B0F0E156501D0CFD701011551205B
:1093FB000DF3CF13F1F4CF14F1ACC0B6F0ADC0B791
:10940B00F013510001B627010114510001B72331AC
:10941B000EB6250101166F000E0001B721010117D1
:10942B006F17C102F016C101F0FAEC1FF0025001E8
:10943B001019E0010E026E190E016EACC0B6F0AD44
:10944B00C0B7F0010113510001B6270101145100FF
:10945B0001B723310EB625036E000EB721046E9DA6
:10946B00EC67F0EFD017C102F0010116C101F0A4B7
:10947B00EC22F0025001100BE0010E0A6E010119F3
:10948B000E096E000E0C6A0B6A7FEC23F0DAD0012A
:10949B000E026E190E016E17C104F0010116C10305
:1094AB00F04BEC26F00250011034E0010E026E017D
:1094BB0001190E016E02EC25F001C00FF102C01074
:1094CB00F110C114F00FC113F0B3C016F00001B2CC
:1094DB00C015F070EC37F01450131010E0B5C0024B
:1094EB00F0B4C001F0200E056E17C104F001011697
:1094FB00C103F0076A066EAEEC23F097D0010E0A9B
:10950B006E0101190E096E000E0C6A0B6A7FEC23BB
:10951B00F098D017C102F0010116C101F0D0EC2474
:10952B00F00250011001E18DD0010E026E0101001D
:10953B000E016E046A036A066A0D0E056E24EC209A
:10954B00F00101186B14D001011851010DF35016E5
:10955B0025D96EF4501721DA6E1851010D000EF358
:10956B0024E16E010EF420E26EDFCFE7FF182B072C
:10957B000E01011865E8D7126B116B080E186F29D5
:10958B00D001011851010DF3501625D96EF4501767
:10959B0021DA6E18510001B66FB76BB62B000EB700
:1095AB0023000EB625E16E010EB721E26EDFCFE789
:1095BB00FF01011851010DF3501625D96EF4501708
:1095CB0021DA6EDF50200A03E0126B010E116F01DE
:1095DB0001182B0A0E01011865D3D7125111110571
:1095EB00E000512E0A02E02E0E01D0200E010108E0
:1095FB006F010E146E000E136EB3C016F00001B2A5
:10960B00C015F070EC37F01450131011E0B5C00218
:10961B00F0B4C001F0200E056E17C104F001011665
:10962B00C103F0076A066EAEEC23F0010E11D001F8
:10963B000E0A6E0101190E096E000E0C6A0B6A7F81
:10964B00EC23F00101152B0F0E1565CFD69DD6001F
:10965B000E0001AC6F000EAD6FAE6FAF6F000C3133
:10966B000E2024016E000E2120026E046A036A0292
:10967B000E066E000E056A24EC20F0235022101EFD
:10968B00E120EE31F02050D9262150DA22F80EDFFE
:10969B006E20EE32F02050D9262150DA22DF6820DE
:1096AB00EE33F02050D9262150DA22DF6820EE3439
:1096BB00F02050D9262150DA22FF0E56D020EE3161
:1096CB00F02050D9262150DA22F80EDF6E20EE3230
:1096DB00F02050D9262150DA22DF6820EE33F0201B
:1096EB0050D9262150DA22DF6820EE34F02050D9F1
:1096FB00262150DA220F0EDF6E20EE35F02050D9E6
:10970B00262150DA22DF6820EE36F02050D92621B0
:10971B0050DA22DF6820EE37F02050D9262150DABC
:10972B0022DF6820EE38F02050D9262150DA22DFD4
:10973B006820EE39F02050D9262150DA22DF68203C
:10974B00EE3AF02050D9262150DA22DF6820EE3B8A
:10975B00F02050D9262150DA22DF6820EE3CF02091
:10976B0050D9262150DA220F0EDF6E20EE11F02099
:10977B0050D9262150DA22DECF09F0DECF0AF0DEF7
:10978B00CF0BF0DECF0CF0310E2024246E000E2117
:10979B0020256E200E0F6E25C00EF024C00DF0019B
:1097AB000E106E116A126A136A20EE2BF02050D93C
:1097BB00262150DA22DECF26F0DDCF27F001D809A3
:1097CB00D00500FA6E2650FD6E2750FE6EFF6AFA2A
:1097DB005012000A50091057E0310E2024016E0080
:1097EB000E2120026E046A036A020E066E000E053D
:1097FB006A24EC20F0010E316E326A336A346A4B04
:10980B00D020EE11F02050D9262150DA22DECF24C1
:10981B00F0DECF25F0DECF26F0DECF27F03150245F
:10982B0024096E325025200A6E335026200B6E34DD
:10983B005027200C6E310E2024286E000E2120297B
:10984B006E200E0F6E29C00EF028C00DF0010E1009
:10985B006E116A126A136A20EE2BF02050D9262162
:10986B0050DA22DECF2AF0DDCF2BF001D809D0055C
:10987B0000FA6E2A50FD6E2B50FE6EFF6AFA5012E4
:10988B00000A50091003E1000E216E66D0312A0048
:10989B000E32223322342220EE1BF02050D9262107
:1098AB0050DA22DECF24F0DECF25F0DECF26F0DE3D
:1098BB00CF27F020EE27F02050D9262150DA22DFD7
:1098CB0050286E28C029F02A6A2B6A2C6A2950244A
:1098DB0002F3CF2DF0F4CF2EF02F6A306A2502F36E
:1098EB00502E26F4502F22000E30222A502402F341
:1098FB00502E26F4502F22000E302229502602F330
:10990B00502F26F45030222A502502F3502F26F4E4
